:020000040800F2
:10000000A81A0020A1010008093F0008C537000810
:10001000DD3E00085F0D0008E95600080000000002
:10002000000000000000000000000000494A000835
:10003000390E0008000000003F450008B54E0008DA
:10004000BB010008BB010008BB010008BB010008A0
:10005000BB010008BB010008BB010008BB01000890
:10006000BB010008BB010008BB010008BB01000880
:10007000BB010008BB010008BB010008BB01000870
:10008000BB010008BB010008BB010008BB01000860
:10009000BB010008BB010008BB010008BB01000850
:1000A000BB010008BB010008BB010008BB01000840
:1000B000BB010008BB010008BB010008BB01000830
:1000C000BB010008BB010008BB010008BB01000820
:1000D000BB0100084756000857560008BB0100083E
:1000E000BB010008BB010008BB010008BB01000800
:1000F000BB010008BB010008BB010008BB010008F0
:10010000BB010008BB010008BB010008BB010008DF
:10011000D5520008BB010008BB010008BB01000864
:10012000BB010008730D0008BB010008BB010008FB
:10013000BB010008BB010008BB010008BB010008AF
:10014000630D0008BB010008BB010008BB010008EB
:10015000BB010008BB010008BB010008BB0100088F
:10016000BB010008BB010008BB010008BB0100087F
:10017000BB010008BB010008BB0100080000000033
:10018000BB010008BB010008DFF810D000F0E2FA64
:1001900000480047A16A0008AFF30080A81A0020B9
:1001A0000648804706480047FEE7FEE7FEE7FEE711
:1001B000FEE7FEE7FEE7FEE7FEE7FEE7834F000807
:1001C000890100082DE9F05F0546002092469B4614
:1001D00088460646814640241BE02846414647465D
:1001E000224600F020FA53465A46C01A914110D3D5
:1001F00011461846224600F007FA2D1A67EB01084F
:100200004F4622460120002100F0FEF917EB0009BD
:100210004E41201EA4F10104DFDC484631462A4647
:100220004346BDE8F09FD2B201E000F8012B491E21
:10023000FBD270470022F6E710B513460A46044683
:100240001946FFF7F0FF204610BD421C10F8011BB5
:100250000029FBD1801A704710B5002200E0521C23
:10026000835C8C5CA34201D1002BF8D1D8B2E1B2FF
:10027000401A10BD2DE9FE4F804681EA0300C00FF1
:100280000C46009021F0004123F00045B8EB02003D
:10029000A94105D24046214690461C460B460246DF
:1002A00023F00040104347D0270DC7F30A00C3F3E3
:1002B0000A510290401A019040286BDAC3F31300F0
:1002C00040F4801B0098924620B10023D2EB030A31
:1002D00063EB0B0B01985946C0F14002504600F009
:1002E00093F906460D4650465946019A00F0ABF97F
:1002F00010EB08006141002487EA115284EAE77399
:100300001A4340D0009A62B3019A012A4FEA075279
:1003100015DC001B61EB02014FF0004202EA0752BC
:10032000CDE90042001C41F5801132462B4600F019
:10033000ABF903B0BDE8F08F40462146F9E7001B5A
:1003400061EB0201001C41F5801300185B4120188D
:10035000A2F5001747EB030140EAD570B6196D41CD
:1003600011E06D084FEA360645EAC0754FEA0752BC
:10037000001B61EB0201001C41F5801149084FEAA6
:1003800030000019514132462B4603B0BDE8F04F12
:1003900000F06BB90098012240000023D0EB02026C
:1003A00063EBE073009821464FEAE074B8EB00007D
:1003B00061EB0401E9E783F000435BE781F0004172
:1003C00058E72DE9FE4F81EA030404F0004421F0D0
:1003D000004100944FF0000B23F0004350EA010469
:1003E0005ED052EA03045BD0C3F30A54C1F30A554A
:1003F0002C44A4F2F3340194A0FB0254C1F3130182
:1004000041F48011C3F3130343F4801301FB02444E
:1004100000FB034E840A970A44EA815447EA835753
:10042000A4FB076802958D0A05FB07854FEA932C0C
:1004300004FB0C542705029D4FEA065847EA16377D
:10044000B5EB08056EEB070C870E920E47EA811795
:1004500042EA8312A7FB0201B6EB0B0164EB000436
:100460002B0D43EA0C335E1844EB1C50DA46514620
:10047000E7FB0201C5F313044FEA0B3343EA1453BD
:100480004FEA0432019C43EA0603A4F10C040294EF
:10049000009CCDE900B400F0F7F803B0BDE8F08FA0
:1004A00000200146F9E72DE9F04D81EA030404F04C
:1004B000004B21F0004514464FF0000A23F00041A4
:1004C00050EA050220D054EA01021DD0C5F30A57B4
:1004D0000246C5F31303C1F31300C1F30A5640F4F7
:1004E000801543F48013A7EB0608101BD64608F2CC
:1004F000FD3873EB050002D308F1010801E0921802
:100500005B41B8F1000F03DA00200146BDE8F08D31
:1005100000204FF48011064684460EE0171B73EB53
:10052000050705D3121B63EB050306434CEA010CD8
:1005300049084FEA300092185B4150EA0107EDD1BB
:1005400052EA030012D082EA040083EA050108435C
:1005500005D0101BAB4106D20122002306E0002289
:100560004FF0004302E06FF0010253101AEB060057
:100570004CEB085110EB0A0041EB0B01BDE8F04DCC
:1005800000F073B800F0004230F000400AD0C10D16
:1005900001F56071C0F3160042EA0151C20840073C
:1005A00011437047002001467047000030B5041E1B
:1005B00071F1000404DB4FF00044404264EB0101A0
:1005C000141E73F1000405DB1C464FF00043524239
:1005D00063EB0403994208BF904230BD30B50B462F
:1005E000014600202022012409E021FA02F59D4263
:1005F00005D303FA02F5491B04FA02F52844151E37
:10060000A2F10102F1DC30BD202A04DB203A00FA1D
:1006100002F1002070479140C2F1200320FA03F359
:10062000194390407047202A04DB203A21FA02F057
:100630000021704721FA02F3D040C2F1200291401C
:10064000084319467047202A06DBCB17203A41FAA7
:1006500002F043EAE07306E041FA02F3D040C2F14F
:100660002002914008431946704710B5141E73F1DB
:10067000000408DA401C41F1000192185B411A4362
:1006800001D120F0010010BD2DE9F04D92469B46AE
:1006900011B1B1FA81F202E0B0FA80F22032904654
:1006A000FFF7B2FF04460F4640EA0A0041EA0B0199
:1006B00053465A46084313D0114653EA010019D055
:1006C000C8F140025046FFF7AEFF05460E465046C1
:1006D00059464246FFF798FF084305D0012004E041
:1006E00020463946BDE8F08D0020054346EAE07615
:1006F0002C4337430A986305E40AA0EB0800002264
:10070000FD0A44EA47540A3002D500200146E9E7D1
:10071000010510196941DDE9084500196941BDE885
:10072000F04DA2E7C1F30A52C1F3130140F2FF33C7
:1007300041F480119A4202DA00200146704740F2EB
:1007400033439A42A2F2334202DC5242FFF76BBFBC
:10075000FFF75ABF064C074D06E0E06840F0010382
:1007600094E8070098471034AC42F6D3FFF710FD29
:10077000E88B0008088C00084FF40C51C4F201010A
:100780004A6822F440324A604A6843681A434A6021
:1007900001684A6822F480724A6001684A68036905
:1007A00042EA03224A6001684A6822F040724A60C5
:1007B00001684A6883681A434A6001688A6822F4BB
:1007C00000628A6001688A68C3681A438A60816A25
:1007D0006FF07062D14214D001688A6822F07062B2
:1007E0008A6001688A68836A1A438A6001688A6835
:1007F00022F040528A6001688A68C36A1A438A609C
:1008000009E001688A6822F070628A6001688A687B
:1008100022F040528A6001688A6822F002028A60EF
:1008200001688A68037E42EA43028A6090F82010D9
:1008300089B101684A6842F400624A6001684A6806
:1008400022F460424A6001684A68436A5B1E42EAD9
:1008500043324A6004E001684A6822F400624A6058
:100860000168CA6A22F47002CA620168CA6A838B8C
:100870005B1E42EA0352CA6201688A6822F400726F
:100880008A6001688A6890F8303042EA43228A60C0
:1008900001688A6822F480628A6001688A68406917
:1008A00042EA80208860704741F24420C2F2000092
:1008B000407D38B1002041F24421C2F20001487568
:1008C000012070470020FCE710B504F00FFF642101
:1008D00041F24420C2F20000FFF7ACFC002041F2DC
:1008E0004421C2F20001087000F0A7F801F0A3FC57
:1008F00041F24421C2F20001C8600020C4F270201D
:10090000486288620020C4F24820C8620020C4F215
:10091000C8200863486341F2883141F24420C2F2A2
:100920000000016440F6B83141644FF4FA7181630C
:1009300041F28831C1634FF47A61816442F2283117
:10094000C164642181654FF47A710165C8214165F4
:10095000C1654FF41671016648F6A400C0F60000A8
:1009600004F068FF48F6A400C0F6000000F0E6F9C5
:1009700010BD70B501F05FFC0446002541F2442033
:10098000C2F20000C06828B141F24420C2F2000067
:10099000C068251A41F24420C2F20000C460806899
:1009A000201A41F24421C2F2000148600846007852
:1009B000012806D10846007D18B908460069284478
:1009C000086141F2B810C2F2000090F87A00D8B184
:1009D00041F24420C2F200000078032813D0032023
:1009E00041F24421C2F20001087000F06EF948F6AD
:1009F000AC30C0F6000004F01DFF48F6AC30C0F685
:100A0000000000F09BF970BD41F24420C2F20000EA
:100A1000007830B1012805D0022806D0032808D17B
:100A200006E007E003F0B3FD04E004F00CF801E099
:100A300000E000BF00BF00BFE5E710B5044641F28B
:100A40004420C2F20000447001F0F5FB41F2442161
:100A5000C2F200018860002048600120487510BD86
:100A600041F24420C2F20000007870472DE9F041C5
:100A7000054601F0E0FB0646322741F24420C2F26F
:100A80000000008B00280ADD41F24420C2F2000081
:100A9000C069301A142802D20020BDE8F08141F26A
:100AA0004420C2F20000C661008B401C41F2442188
:100AB000C2F2000108834FF400614FF48060C4F279
:100AC000020001F0AAFBE0BB02F0F2FD0446CCB349
:100AD00041F23420C2F2000004604068A0421AD201
:100AE00041F23420C2F200004068201A41F2342161
:100AF000C2F200018860084690ED020AF8EEC00AD2
:100B00000020C4F24F3000EE100A80EE801A084632
:100B100080ED031A06E0002041F23421C2F2000108
:100B20008860C86041F24420C2F2000090ED080ADB
:100B300041F23420C2F20000D0ED030A30EE200A68
:100B400001E012E010E041F24420C2F2000080ED2A
:100B5000080AC07D401C41F24421C2F20001C87560
:100B60000846807D401C887500BF41F24420C2F2D7
:100B70000000807D0A2808D241F24420C2F2000021
:100B8000008BB84201DA002087E741F24420C2F22C
:100B90000000C07D002813DD41F24420C2F20000B5
:100BA000D0ED080AC07D00EE100AB8EE400A80EED3
:100BB000801A41F23420C2F2000080ED031A06E0F0
:100BC000002041F23421C2F200018860C8603DB1CA
:100BD00041F23420C2F2000090ED030A85ED000AD4
:100BE00001205AE7002041F24421C2F20001887539
:100BF000C8750883C8610862704710B500F04DF9E8
:100C000000F063F8032041F24421C2F200010870B1
:100C100010BD10B541F24420C2F200000078032854
:100C200017D103F09DFC00F050F8002041F2442160
:100C3000C2F200010870FFF700FF48F6D030C0F69E
:100C4000000004F0F7FD48F6D030C0F6000000F0D8
:100C500075F810BD10B541F24420C2F200000078D2
:100C600090B9012041F24421C2F200010870002035
:100C70000875086101F0DFFA41F24421C2F2000177
:100C8000C8600020FFF7D9FE10BD10B541F2442026
:100C9000C2F20000007801280AD141F24420C2F2D9
:100CA000000040780C280FDA0C20FFF7C6FE0BE09E
:100CB00004F0DCF800F009F8002041F24421C2F20F
:100CC00000010870FFF7B9FE10BD10B50021022029
:100CD00003F085FF0021012003F081FF02F08BFE6D
:100CE00003F0FEF810BD014641F24420C2F20000BC
:100CF0004068884201D3012070470020FCE710B50E
:100D0000012240F23C01C2F2000140F28830C2F2FE
:100D1000000002F0C9FB10BD0FB400B59BB01DA8C8
:100D2000019002A8019A1C9904F094FD0020019002
:100D300002A800F003F81BB05DF814FB70B5044680
:100D40002046FFF782FA85B24FF47A732A4621468D
:100D500040F28830C2F2000002F03CFC70BD00BFDF
:100D6000FEE710B540F22810C2F2000000F0C2FC0D
:100D700010BD10B540F25010C2F2000000F0B5FFF7
:100D800010BD01684AF6AB23CAB2103ACAF6AA23CC
:100D9000A3FB0232120946F6FC53C0F600039B5C2B
:100DA000C365032A04D96FF30901091D816502E0B7
:100DB0006FF309018165806D7047014600208A6AE2
:100DC0008B69002B0FD0B3F5005F1DD08AB3012AC9
:100DD00030D0022A2ED0032A04D1C96A11F0807FB4
:100DE00000D0012070471AB1012A07D0022AF9D198
:100DF000C96A11F0807FF5D001207047C96AB1F14E
:100E0000C07FFAD1012070475AB1012A0BD0022AC3
:100E100007D0032AF7D1C96AB1F1C07FF3D101200D
:100E2000704701207047C96A11F0807FFAD0012015
:100E30007047FFE701207047704710B540F240301F
:100E4000C2F2000090F84100202806D048F27070ED
:100E5000C0F6000004F0EEFC10BD48F29470C0F63D
:100E6000000004F0E7FC48F29870C0F6000004F0BF
:100E7000E1FC48F2C870C0F6000004F0DBFC48F268
:100E8000F070C0F6000004F0D5FC48F29870C0F68F
:100E9000000004F0CFFC00BFDEE710B5012041F2F6
:100EA000B811C2F2000181F87A000021084600F072
:100EB0008DF8322001F086F800221146104600F02D
:100EC00017F8322001F07EF8002141F2B810C2F28A
:100ED00000000171017480F8241080F8301080F84F
:100EE000441080F8501080F8621080F86E1010BD29
:100EF00070B506460C46154640F62060C2F200006A
:100F00000670F32040F62061C2F200014870AB2069
:100F100088700846C47005716B204871062140F640
:100F20002060C2F2000005F03AFA70BD70B50646C6
:100F30000C46154640F65070C2F20000067046207E
:100F400040F65071C2F2000148706920887008466E
:100F5000C47005716B204871062140F65070C2F2D2
:100F6000000005F01CFA70BD10B5044640F60040C4
:100F7000C2F2000004700E2040F60041C2F20001EF
:100F80004870522088706B20C870042140F60040E1
:100F9000C2F2000005F003FA10BD10B5044640F699
:100FA000F030C2F2000004700A2040F6F031C2F2C4
:100FB000000148706D2088706B20C870042140F6D5
:100FC000F030C2F2000005F0EAF910BD70B5054638
:100FD0000C4640F65060C2F200000570FE2040F65C
:100FE0005061C2F200014870982088700846C470B1
:100FF0006B200871052140F65060C2F2000005F038
:10100000CEF970BD10B5044640F66060C2F2000033
:101010000470FF2040F66061C2F200014870662053
:1010200088706B20C870042140F66060C2F2000036
:1010300005F0B5F910BD2DE9F04105460F461446FF
:101040001E46DDF8188040F63060C2F200000570E0
:10105000F62040F63061C2F2000148700846877001
:101060002012C8700C710846467180F806806B200B
:10107000C871082140F63060C2F2000005F08FF917
:10108000BDE8F08100BFFEE70146012904D0022936
:1010900007D003290FD109E041F2B810C2F20000D5
:1010A000704741F2D810C2F20000F9E741F2F8109F
:1010B000C2F20000F4E70020F2E738B44FF0000C71
:1010C000CDF800C090F83C20012A1BD0012280F806
:1010D0003C200A680724092A17D90368DD680A3A00
:1010E00002EB420204FA02F225EA0202DA600A780E
:1010F0008B680A3A02EB420293400268D4682343A9
:10110000D36014E038BC0220704703681D6902EB0D
:10111000420204FA02F225EA02021A610A788B6896
:1011200002EB4202934002681469234313614A6848
:101130001F24072A15D203685D6B521E02EB820240
:1011400004FA02F225EA02025A630A8893B20A7983
:10115000521E02EB820293400268546B2343536396
:101160002CE00D2A15D203681D6BD21F02EB820200
:1011700004FA02F225EA02021A630A8893B20A7993
:10118000D21F02EB820293400268146B2343136365
:1011900014E00368DD6A0D3A02EB820204FA02F2FF
:1011A00025EA0202DA620A8893B20A790D3A02EB62
:1011B000820293400268D46A2343D3624FF40C52F4
:1011C000C4F201024FF400530468C4F201039C42CC
:1011D00006D10C68122C03D1546844F48004546086
:1011E00004689C4222D10B68102B01D0112B1DD119
:1011F000536843F4000353600968102916D140F284
:101200002C01C2F20001096844F24022C0F20F0230
:10121000B1FBF2F101EB810149000091009929B184
:101220000099491E009100990029F9D180F83CC02D
:1012300038BC0020704770B504460025002C03D050
:10124000206C002610B107E0012070BD204600F0A0
:101250001DF8666484F83C60206C10F0100F04D018
:10126000012584F83C60284670BD206C20F488502D
:1012700040F0020020642046FFF77EFA6664206C8E
:1012800020F0020040F001002064EAE710B586B0CB
:101290000446142101A8FEF7CDFF4FF40051C4F21B
:1012A00001012068884237D100BF0020009043F63A
:1012B0004400C4F20200006840F4807043F6440128
:1012C000C4F2020108600846006800F480700090D3
:1012D00000BF00BF00BF0020009043F63000C4F202
:1012E0000200006840F0010043F63001C4F2020140
:1012F00008600846006800F00100009000BF00BFD1
:1013000001200190032002900020039001A90020F9
:10131000C4F2020000F06AFE06B010BD90F8202072
:10132000012A07D0022A05D0416A41F48021416296
:1013300001207047006842691143416100207047F5
:1013400070B490F82040D0F800C0DCF808C0012C40
:1013500008D0022C06D0416A41F48021416270BC61
:10136000012070470CF080640CF000652C4302D122
:101370001CF0805F55D0CCF3016C012404FA0CF40E
:101380001C608B684FF4C0749BB1CD6804EB0C16E5
:101390002B434D6843EAC5030568AB514FF4C27354
:1013A000066803EB0C130D69F550097D012909D07E
:1013B0000DE00D88CB6804EB0C1643EA4553056835
:1013C000AB51EBE70168CD5845F48075CD501179EC
:1013D000D379557941EA036193791B0443EA0523E4
:1013E00019434FF4C675036805EB0C155951117874
:1013F000D37841EA0361937852781B0443EA0222CE
:1014000011434FF4C473026803EB0C13D15001680D
:1014100004EB0C100A5842F001020A5070BC002084
:101420007047416A41F40011416270BC012070476D
:1014300090F82020012A07D0022A05D0416A41F401
:1014400080214162012070474FF4C840C4F200007F
:10145000D0F8002242F00102C0F80022D0F80022A9
:1014600022F47C52C0F80022D0F800224B6A42EAF3
:101470000322C0F800220A7D012302F01F0203FAB2
:1014800002F2D0F81C329343C0F81C32CB69D3B9B6
:10149000D0F80C329343C0F80C32B1F80CC04B6852
:1014A0006CF31F43D1F814C000EBCC0CCCF84032E5
:1014B000B1F808C00B686CF31F43D1F814C000EBFF
:1014C000CC0CCCF84432CB69012B1AD1D0F80C32B9
:1014D0001343C0F80C32B1F800C04B686CF31F43E3
:1014E000D1F814C000EBCC0CCCF84032B1F808C0F5
:1014F000CB686CF31F43D1F814C000EBCC0CCCF8D4
:1015000044328B697BB1D0F804321343C0F8043203
:101510000B6973B1D0F814321343C0F81432096A5E
:1015200001290CD010E0D0F804329343C0F8043203
:10153000EEE7D0F814329343C0F81432EFE7D0F856
:101540001C121143C0F81C12D0F8001221F0010146
:10155000C0F80012002070477047002290F8203039
:10156000012B01D0022B04D129B10068006900F0E1
:101570000302104670470068C06800F00302F8E7F5
:1015800030B490F820C0BCF1010F09D0BCF1020FBB
:1015900006D0416A41F48021416230BC012070478D
:1015A00039B1D0F800C0DCF810C01CF0030F33D004
:1015B00006E0D0F800C0DCF80CC01CF0030F24D00B
:1015C0004FF4D87C04680CEB011C54F80C4004F078
:1015D000040494603CB3046854F80C40E40854607C
:1015E000046854F80CC00CF0020CC2F80CC04FF4A4
:1015F000DA7C04680CEB011C54F80C5005F00F0564
:10160000082D16D30824146118E0416A41F4001132
:10161000416230BC01207047416A41F400114162CF
:1016200030BC01207047046854F80C40640D14600D
:10163000D6E754F80C4004F00F041461046854F821
:101640000C40C4F307249461046854F80CC04FEABA
:101650001C4CC2F814C04FF4DC72D0F800C002EB8E
:1016600001125CF802C083F800C0D0F800C05CF83A
:1016700002C04FEA1C2C83F801C0D0F800C05CF80F
:1016800002C04FEA1C4C83F802C0D0F800C05CF8DE
:101690000220120EDA704FF4DE72D0F800C002EBB6
:1016A00001125CF802C083F804C0D0F800C05CF8F6
:1016B00002C04FEA1C2C83F805C0D0F800C05CF8CB
:1016C00002C04FEA1C4C83F806C0D0F800C05CF89A
:1016D0000220120EDA7139B10068016941F020016F
:1016E000016130BC002070470068C16841F02001F2
:1016F000C160F6E72DE9F05F0546002428684669D9
:10170000D0F804908768D0F80CA0D0F810B0D0F8CA
:10171000188016F0010F54D017F0010F17D00121D7
:10172000816017F0020F03D0284600F075FA0EE032
:1017300017F0040F02D04FF4006408E017F0080F10
:1017400002D04FF4805402E0284600F064FA17F407
:10175000807F19D029684FF48070886017F4007F6B
:1017600003D0284600F05AFA0EE017F4806F02D03A
:1017700044F4005408E017F4006F02D044F48044AD
:1017800002E0284600F049FA17F4803F19D0296892
:101790004FF48030886017F4003F03D0284600F0F3
:1017A0003FFA0EE017F4802F02D044F4004408E022
:1017B00017F4002F02D044F4803402E0284600F0F1
:1017C0002EFA16F0080F07D01AF0100F04D044F4C8
:1017D000007429681020C86016F0040F4FF0080745
:1017E00007D01AF0080F04D02868C760284600F018
:1017F000B4F916F0020F07D02868C06810F0030F84
:1018000002D0284600F0AAF916F0400F07D01BF0CE
:10181000100F04D044F4806429681020086116F089
:10182000200F07D01BF0080F04D028680761284656
:1018300000F0BCF916F0100F07D02868006910F00E
:10184000030F02D0284600F0B2F916F4003F08D08A
:1018500019F0100F05D0296810204860284600F0C4
:10186000A7F916F4803F07D019F0080F04D02868B4
:101870004760284600F0D5F916F4004F4AD019F019
:10188000040F44D016F4807F04D018F0010F01D06B
:1018900044F0010416F4007F04D018F0020F01D0C8
:1018A00044F0020416F4806F04D018F0040F01D045
:1018B00044F0040416F4006F29D018F0700F26D0FD
:1018C00008F07000402815D006DC102809D0202828
:1018D0000AD0302816D10AE050280ED0602811D145
:1018E0000EE044F008040DE044F010040AE044F077
:1018F000200407E044F0400404E044F0800401E0E8
:1019000044F480742868816921F07001816129683C
:1019100004204860002C05D0686A2043686228468D
:10192000FFF71AFEBDE8F09F70B50446002C03D007
:1019300094F8200010B104E0012070BD204600F0B2
:10194000A7F82068016841F00101016000F073FC14
:101950000546206840684FF0050610F0010F11D1D0
:1019600000F069FC401B0A2807D9606A40F4003087
:10197000606284F82060012070BD2068406810F02B
:10198000010FEDD02068016821F00201016000F034
:1019900052FC05462068406810F0020F11D000F09C
:1019A0004AFC401B0A2807D9606A40F40030606294
:1019B00084F82060012070BD2068406810F0020F9C
:1019C000EDD1207E01283FD02068016821F0800100
:1019D0000160607E01283DD02068016821F040014F
:1019E0000160A07E01283BD02068016821F0200121
:1019F0000160E07E012839D02068016841F01001C3
:101A00000160207F012837D02068016821F008019B
:101A10000160607F012835D02068016821F0040151
:101A20000160E168A06862690843216911430843C5
:101A30006168491E08432168C86100206062012076
:101A400084F82000002070BD2068016841F080010A
:101A50000160BEE72068016841F040010160C0E715
:101A60002068016841F020010160C2E72068016838
:101A700021F010010160C4E72068016841F008010D
:101A80000160C6E72068016841F004010160C8E711
:101A900010B586B00446142101A8FEF7CBFB4FF425
:101AA000D041C4F200012068884254D100BF002018
:101AB00000904FF46150C4F20200006840F00070E2
:101AC0004FF46151C4F2020108600846006800F05A
:101AD0000070009000BF00BF00BF002000900846CB
:101AE000006840F0806008600846006800F0806090
:101AF000009000BF00BF00BF0020009043F6300000
:101B0000C4F20200006840F0020043F63001C4F263
:101B1000020108600846006800F00200009000BF63
:101B200000BF4FF44050019002200290002003902B
:101B3000032004900920059001A94FF48060C4F2AD
:101B4000020000F053FA00221146402000F0F6FB9C
:101B5000402000F0E5FB06B010BD704710B504460C
:101B60004FF4D041C4F200012068884200D010BD7B
:101B700013E040F2CC03C2F20003A3F11C020021E7
:101B80002046FFF7FDFC38B9012040F2B001C2F257
:101B9000000181F8740000E005E000212046FFF715
:101BA000DCFC0028E5D100BF00BFE0E770477047CC
:101BB000704770B5044694F82000012805D0606A8B
:101BC00040F400206062012070BD022084F82000F3
:101BD0002068016821F00101016000F02CFB05463E
:101BE0002068406810F0010F12D000F024FB401B69
:101BF0000A2808D9606A40F400306062052084F841
:101C00002000012070BD2068406810F0010FECD169
:101C10000020606270BD7047704770477047704722
:101C2000704770472DE9F0410446A66D00F003FBB4
:101C3000054694F835000027022806D0802060650C
:101C400084F834700120BDE8F0812068016821F03B
:101C5000160101602068416921F080014161206C1A
:101C600008B9A06C20B12068016821F0080101606A
:101C70002068016821F0010101602068006810F00F
:101C8000010F12D000F0D7FA401B052808D92020F8
:101C90006065032084F8350084F83470BDE8F08175
:101CA0002068006810F0010FECD194F85C003F212F
:101CB00001FA00F0B060012084F8350084F8347037
:101CC0000020BDE8F08190F83510022903D0802172
:101CD000416501207047052180F8351000680168D2
:101CE00021F001010160002070472DE9F84304460E
:101CF0004FF00008CDF8008040F22C00C2F2000046
:101D000000684FF41651B0FBF1F7A56D2E6894F8FA
:101D10005C00082101FA00F0304211D0206802680E
:101D200012F0040F0CD0026822F00402026094F852
:101D30005C0001FA00F0A860606D40F00100606591
:101D400094F85C004FF0010909FA00F0304209D024
:101D50002168496911F0800F04D0A860606D40F0DF
:101D60000200606594F85C1004208840304209D07D
:101D70002168096811F0020F04D0A860606D40F07E
:101D80000400606594F85C1010208840304224D034
:101D90002168096811F0080F1FD0A8602068016849
:101DA00011F4802F0DD0006810F4002F04D0A16C26
:101DB00099B12046884710E0216C71B120468847D0
:101DC0000BE0016811F4807F03D1016821F0080164
:101DD0000160216C09B12046884794F85C102020EE
:101DE0008840304251D02168096811F0100F4CD062
:101DF000A86094F8350005280DD02068016811F41A
:101E0000802F32D0006810F4002F29D0E16B59B335
:101E10002046884739E02068016821F016010160FA
:101E20002068416921F080014161206C08B9A06CF3
:101E300020B12068016821F00801016094F85C007D
:101E40003F2101FA00F0A86084F8359084F83480CE
:101E5000216D00293ED001B02046BDE8F04308477F
:101E6000616C09B1204688470FE0016811F4807F5A
:101E700007D1016821F01001016084F8359084F8E1
:101E80003480E16B09B120468847606D002821D07D
:101E9000606D10F0010F15D0052084F83500206822
:101EA000016821F0010101600098401C0090B842D7
:101EB00004D82068006810F0010FF5D184F835903F
:101EC00084F83480E16C002904D001B02046BDE8DC
:101ED000F0430847BDE8F8832DE9F041044600F0DF
:101EE000AAF90546DCB1022084F83500002684F802
:101EF00034602068016821F00101016020680068F9
:101F000010F0010F13D000F096F9401B052809D9F5
:101F100020206065032084F83500BDE8F0810120B1
:101F2000BDE8F0812068006810F0010FEBD1216856
:101F3000086848F23F02CFF210021040A3686268BE
:101F4000D4F810C01A43E36843EA0C031A436369E8
:101F50001A43A3691A43E3691A43236A1A431043D5
:101F6000626A042A03D1236BE26A1A4310430860B1
:101F70002068406920F00701606A40EA01050127F6
:101F800004280ED1A06A0543E06A50B12046FEF74E
:101F900014FF30B14020606584F835700120BDE841
:101FA000F081206845612046FEF7EBFE94F85C1056
:101FB0003F2202FA01F18160666584F835700020E5
:101FC000BDE8F08170B5044600F035F90546B4F17E
:101FD000FF3F05D040F23000C2F200000078044418
:101FE00000F029F9401BA042FAD370BD2DE9F84F4B
:101FF000002243F6084A43F64409C4F2010A4FF0AE
:10200000010E03274FF00F08C4F20209AAF1040BD6
:102010000EFA02FC0B6803EA0C0363457DD10C79D0
:1020200004F00304012C01D0022C14D18568540063
:1020300007FA04F6B543CE6806FA04F42C4384602C
:10204000446824EA0C0C0C79C4F30014944044EA6C
:102050000C0CC0F804C0D1F804C037EA0C0C0CD04A
:10206000C4684FEA420C07FA0CF5AC438D6805FAD8
:102070000CFC4CEA040CC0F80CC091F804C00CF045
:10208000030CBCF1020F12D14FEAD20C00EB8C040E
:10209000256A4FEA427C4FEADC6C08FA0CF6B5433D
:1020A0000E6906FA0CFC4CEA050CC4F820C0046862
:1020B0004FEA420C07FA0CF5AC430D7905F0030525
:1020C00005FA0CFC4CEA040CC0F800C0D1F804C0BE
:1020D0001CF4403F21D0D9F800C04CF4804CC9F822
:1020E00000C0D9F800C00CF4804CCDF800C022F03C
:1020F000030C0CF1804505F59835D5F808C8940710
:10210000240F08FA04F62CEA0606A0F1804CBCF570
:10211000003C6AD0A0F1804C00E060E0BCF5013CDE
:1021200066D0A0F1804CBCF5023C64D0A0F1804C9C
:10213000BCF5033C62D0A0F1804CBCF5043C60D0FF
:10214000A0F1804CBCF5053C5ED0A0F1804CBCF504
:10215000063C5CD0A0F1804CBCF5073C5AD04FF057
:10216000080C0CFA04FC4CEA060CC5F808C8DAF8AE
:1021700000C02CEA030C4C6814F4801F01D04CEA18
:10218000030CCAF800C043F60C44C4F20104D4F8AE
:1021900000C02CEA030C4D6815F4001F01D04CEA76
:1021A000030CC4F800C0DBF800C02CEA030C4C6838
:1021B00014F4003F01D04CEA030CCBF800C04FF4FC
:1021C0007054C4F20104D4F800C02CEA030C4D682A
:1021D00015F4803F01D04CEA030CC4F800C0521C37
:1021E000102AFFF415AFBDE8F88F4FF0000CB8E7E8
:1021F0004FF0010CB5E74FF0020CB2E74FF0030CC3
:10220000AFE74FF0040CACE74FF0050CA9E74FF037
:10221000060CA6E74FF0070CA3E70069084201D0BF
:102220000120704700207047002A01D0816170476B
:1022300009048161704740F23000C2F200008068FA
:10224000704740F23000C2F2000081680278114409
:102250008160704710B54FF47050C4F202000168FD
:1022600041F400710160016841F48061016001681E
:1022700041F480710160032000F094F8002000F028
:1022800004F800F025F8002010BD70B5044640F2B7
:102290003005C2F2000528784FF47A71B1FBF0F0F6
:1022A00040F22C01C2F200010968B1FBF0F000F02D
:1022B000FFFB08B1012070BD102C07D2002221467F
:1022C000501E00F03BF86C60002070BD012070BD16
:1022D00008B500BF0020009043F64400C4F202009D
:1022E000006840F4804043F64401C4F202010860F3
:1022F0000846006800F48040009000BF00BF00BFA7
:1023000000200090081F006840F08050091F0860FE
:102310000846006800F08050009000BF00BF08BD74
:1023200000280ADB00F01F01012202FA01F1400936
:10233000800000F1E020C0F80011704710B44EF6A4
:102340000C53CEF200031B68C3F30223C3F1070C46
:10235000BCF1040F01D94FF0040C1C1D072C01D255
:10236000002300E0DB1E012404FA0CFCACF1010C9C
:102370000CEA0101994004FA03F35B1E1A40114371
:10238000002806DB00F1E020090180F8001410BCF1
:10239000704700F00F0000F1E020090180F8141DE3
:1023A00010BC704700F007004EF60C52CEF200024F
:1023B00011684FF6FF03194041EA002040F0FD701C
:1023C00040F08060106070472DE9F04704460D46EC
:1023D000002C15D04FF47059C4F20209D9F800004E
:1023E000EFB200F00700A8420DD289F80070D9F8CA
:1023F000000000F00700A84205D00120BDE8F087EA
:102400000120BDE8F087206843F6080610F0020FAF
:10241000C4F2020614D010F0040F03D0306840F468
:10242000E0503060207810F0080F03D0306840F49E
:10243000604030603068A16820F0F00008433060F0
:10244000207810F0010F41D060684FF46051C4F261
:102450000201012808D002280DD003280BD00968FA
:1024600011F0020F28D00AE0096811F4003F06D1EC
:102470000120BDE8F087096811F0007F19D03168AC
:1024800021F0030108433060FFF7D5FE8046306835
:10249000616800F00C00B0EB810F17D041F2883A70
:1024A000FFF7C9FEA0EB0800504508D90320BDE89E
:1024B000F0870120BDE8F0870120BDE8F087306893
:1024C000616800F00C00B0EB810FE9D1D9F8000091
:1024D00000F00700A8420AD989F80070D9F8000076
:1024E00000F00700A84202D00120BDE8F087207864
:1024F00010F0040F05D03068E16820F4E050084384
:102500003060207810F0080F06D03068216920F480
:10251000604040EAC100306000F040F83168C1F32B
:10252000031146F6E452C0F60002515CC84040F286
:102530002C01C2F20001086040F23400C2F2000037
:102540000068FFF7A2FE0020BDE8F08740F22C00F3
:10255000C2F200000068704700B5FFF7F7FF43F6CE
:102560000801C4F202010968C1F3822146F6F4525F
:10257000C0F60002515CC84000BD00B5FFF7E6FFA1
:1025800043F60801C4F202010968C1F3423146F67C
:10259000F452C0F60002515CC84000BD10B543F6CD
:1025A0000800C4F20200006810F00C014FF4105053
:1025B000C0F2F4001CD047F64003C0F27D1304299A
:1025C00015D0082914D143F60404C4F2020421688A
:1025D00001F03F02216811F4800F0AD02068C0F397
:1025E0008810A0FB03010023FDF7ECFD09E018466D
:1025F00010BD21680023C1F38811A1FB0001FDF784
:10260000E1FD2168C1F30141491C4900B0FBF1F033
:1026100010BD2DE9F84F0446002C15D0207843F664
:102620000406C4F2020610F0010FA6F1040563D0FF
:10263000301D016801F00C0104290CD0006800F085
:102640000C00082803D010E00120BDE8F88F3068A6
:1026500010F4800F09D0286810F4003F4CD0606857
:10266000002849D10120BDE8F88F6068B0F5803FAF
:1026700014D0B0F5A02F16D0286820F48030286040
:10268000286820F480202860606810B3FFF7D3FD2D
:102690000746286810F4003F0ED02DE0286840F46B
:1026A00080302860F0E7286840F48020286028689F
:1026B00040F480302860E7E7FFF7BDFDC01B6428C9
:1026C00002D90320BDE8F88F286810F4003FF3D04A
:1026D00012E0FFF7B0FD0746286810F4003F0BD06A
:1026E000FFF7A9FDC01B642802D90320BDE8F88FBD
:1026F000286810F4003FF3D120784FF0000710F065
:10270000020F4FF00009C4F247275AD043F60800E1
:10271000C4F20200016811F00C0F14D0006800F040
:102720000C00082803D1306810F4800F0BD0E0684B
:1027300080B301203860FFF77EFD8046286810F0E6
:10274000020F12D01EE0286810F0020F05D0E068DA
:10275000012802D00120BDE8F88F2868216920F007
:10276000F80040EAC10028602BE0FFF764FDA0EB11
:102770000800022802D90320BDE8F88F286810F06D
:10278000020FF2D02868216920F0F80040EAC10069
:10279000286016E0FFE7C7F80090FFF74CFD804681
:1027A000286810F0020F0CD0FFF745FDA0EB0800E1
:1027B000022802D90320BDE8F88F286810F0020F24
:1027C000F2D1207810F0080F3AD04FF4686043F649
:1027D000740A6169C4F24720C4F2020AC1B101213E
:1027E0000160FFF728FD8046DAF8000010F0020FC4
:1027F00026D1FFF720FDA0EB0800022802D9032014
:10280000BDE8F88FDAF8000010F0020FF1D017E001
:10281000C0F80090FFF70FFD8046DAF8000010F0D6
:10282000020F0DD0FFF707FDA0EB0800022802D928
:102830000320BDE8F88FDAF8000010F0020FF1D1A4
:10284000207810F0040F70D04FF000084FF4615062
:10285000C4F20200006810F0805F0DD14FF46150A7
:10286000C4F20200016841F080510160006800F08C
:10287000805000904FF001084FF4E04BC4F2000B81
:10288000DBF8000010F4807F1BD1DBF8000040F47F
:102890008070CBF80000FFF7CEFC8246DBF800002A
:1028A00010F4807F0DD1FFF7C6FCA0EB0A000228D0
:1028B00002D90320BDE8F88FDBF8000010F4807F18
:1028C000F1D0A06843F6700BC4F2020B012818D0B7
:1028D00005281DD0DBF8000020F00100CBF8000037
:1028E000DBF8000020F00400CBF80000A06870B313
:1028F000FFF7A1FC8246DBF8000010F0020F15D0B4
:102900003DE0DBF8000040F00100CBF80000EDE70F
:10291000DBF8000040F00400CBF80000DBF800001A
:1029200040F00100CBF80000E0E733E0FFF783FC64
:10293000A0EB0A0141F28830814202D90320BDE8B0
:10294000F88FDBF8000010F0020FEFD017E0FFF770
:1029500072FC8246DBF8000010F0020F0FD0FFF788
:102960006AFCA0EB0A0141F28830814202D90320BF
:10297000BDE8F88FDBF8000010F0020FEFD1B8F1DE
:10298000010F07D14FF46150C4F20200016821F039
:1029900080510160A06978B343F60801C4F20201D6
:1029A00009684FF0FF3801F00C01082954D00228C3
:1029B00010D0C7F86090FFF73EFC0446286810F07E
:1029C000007F72D0FFF737FC001B02283FD903209D
:1029D000BDE8F88FC7F86090FFF72DFC81462868A6
:1029E00010F0007F0DD0FFF726FCA0EB09000228B5
:1029F00003D90320BDE8F88F57E0286810F0007F66
:102A0000F1D1216AE069A26A0843616A08EB5202C7
:102A1000890141EA0241084394F82C1040EA016020
:102A2000306001203866FFF706FC0446286810F085
:102A3000007F3AD1FFF7FFFB001B022802D90320D9
:102A4000BDE8F88F286810F0007FF3D02DE02868EB
:102A500010F0007FB6D128E0012823D03068E26969
:102A600000F4800191421AD1226A00F03F019142A4
:102A700015D147F6C071626A0140B1EB821F0ED1D9
:102A8000A26A00F4403108EB5202B1EB024F06D1CA
:102A900094F82C1000F07060B0EB016F05D00120AD
:102AA000BDE8F88F0120BDE8F88F0020BDE8F88F61
:102AB000401EB0F1807F01D3012070474FF0E0212C
:102AC00048614EF62352CEF20002F0201070002032
:102AD0008861072008610020704790F83C20012A97
:102AE0002CD0012280F83C20CA680023D1F808C00D
:102AF00022F4407242EA0C02D1F804C022F480624F
:102B000042EA0C02D1F800C022F4006242EA0C0250
:102B1000D1F810C022F4805242EA0C02D1F814C05D
:102B200022F4005242EA0C02C96922F480421143A5
:102B30000268516480F83C300020704702207047E2
:102B400030B490F83C20012A44D0012480F83C4065
:102B5000022280F83D200268D2F804C093682CF06D
:102B6000700C0D6845EA0C0CC2F804C00268A2F1B2
:102B7000804CBCF5803C20D0B2F1804F1DD0A2F13A
:102B8000804CBCF5806C18D0A2F1804CBCF5006C78
:102B900013D0A2F1804CBCF5406C0ED0A2F1804C59
:102BA000BCF5823C09D0A2F1804CBCF5A03C04D01D
:102BB000A2F1804CBCF5C05C04D123F080034968CD
:102BC0001943916080F83D40002180F83C1030BCF2
:102BD0000020704730BC0220704710B50446002C1E
:102BE00003D094F83D0010B107E0012010BD002093
:102BF00084F83C00204600F01EF8022084F83D00D6
:102C0000211D206802F0D1F9012084F8460084F8E3
:102C10003E0084F83F0084F8400084F8410084F8C6
:102C2000420084F8430084F8440084F8450084F8A6
:102C30003D00002010BD08B50022C4F20102016869
:102C4000914215D100BF0021009143F64401C4F226
:102C50000201096841F0010143F64402C4F2020294
:102C600011601146096801F00101009100BF00BF29
:102C700008BD70B50446002594F83C00012818D022
:102C8000012684F83C60022084F83D0020688268B8
:102C900022F0770222F47F4282600868502839D0FF
:102CA0000EDC202854D006DC002851D0102811D189
:102CB0004EE0022070BD30284AD040280AD13DE0C5
:102CC000602831D070280DD0B0F5805F03D0B0F50A
:102CD000005F13D0012584F83D60002084F83C009B
:102CE000284670BDCB684A688968206802F0D9F927
:102CF0002068816841F077018160ECE7CB684A6821
:102D00008968206802F0CDF92068816841F480412B
:102D10008160E0E7CA684968206802F0B4FA50218F
:102D2000206802F0C9F9D6E7CA684968206802F04D
:102D3000BDFA6021206802F0BFF9CCE7CA68496893
:102D4000206802F0A0FA4021206802F0B5F9C2E73D
:102D500022680146104602F0AFF9BCE710B586B014
:102D60000446142101A8FDF765FA0021C4F201010F
:102D70002068884227D100BF0020009043F6300031
:102D8000C4F20200006840F0100043F63001C4F2C3
:102D9000020108600846006800F01000009000BFC3
:102DA00000BF4FF4D4400190022002900020039015
:102DB000022004900120059001A94FF48050C4F234
:102DC0000200FFF713F906B010BD70B504460D46BA
:102DD000002694F83C0001280FD0012084F83C0024
:102DE0006AB1042A1FD0082A32D00C2A44D0012606
:102DF000002084F83C00304670BD022070BD29469A
:102E0000206802F061F92068816941F00801816160
:102E10002068816921F004018161206881692A6943
:102E200011438161E4E72946206802F086F92068B1
:102E3000816941F4006181612068816921F48061C8
:102E40008161206881692A6941EA02218161CFE7B5
:102E50002946206802F0AEF92068C16941F00801F6
:102E6000C1612068C16921F00401C1612068C169A4
:102E70002A691143C161BBE72946206802F0D7F9EE
:102E80002068C16941F40061C1612068C16921F411
:102E90008061C1612068C1692A6941EA0221C1617A
:102EA000A6E710B50446002C03D094F83D0010B1FD
:102EB00007E0012010BD002084F83C00204600F00F
:102EC0001EF8022084F83D00211D206802F06DF8F4
:102ED000012084F8460084F83E0084F83F0084F81E
:102EE000400084F8410084F8420084F8430084F8EC
:102EF000440084F8450084F83D00002010BD704770
:102F000010B50446002909D004290AD008290BD09D
:102F100094F8410001280AD0012010BD94F83E0029
:102F2000F8E794F83F00F5E794F84000F2E7022054
:102F3000F1B304294DD008294ED084F84100012274
:102F4000206802F09FF800222068C4F201024FF4CA
:102F50008061C4F20101904201D0884203D1436CE8
:102F600043F4004343642068904225D0B0F1804F81
:102F700022D0A0F18042B2F580621DD0A0F1804243
:102F8000B2F5006218D0A0F18042B2F5406213D0D1
:102F9000884211D0A0F18041B1F5A0310CD0A0F150
:102FA0008041B1F5C05107D0016841F0010100E056
:102FB0000CE00160002010BD816801F007010629C6
:102FC000F8D0016841F001010160F3E784F83E00A8
:102FD000B5E784F83F00B2E784F84000AFE77047F8
:102FE0007047F8B5044622681068D168536900F04C
:102FF0000F0CBCF1000F0AD110F0200F07D011F018
:10300000200F04D02046BDE8F84002F0A6B9002504
:10301000BCF1000F78D003F0010C01F490765CEA6B
:10302000060671D010F0010F06D011F4807F03D096
:10303000626C42F00102626410F0040F06D013F0DB
:10304000010F03D0626C42F00202626410F0020FC2
:1030500006D013F0010F03D0626C42F004026264E8
:1030600010F0080F08D001F0200252EA0C0203D041
:10307000626C42F008026264626C002A38D010F080
:10308000200F05D011F0200F02D0204602F065F984
:1030900020684069C0F38010616C11F0080F00D106
:1030A00060B3204602F025F92068406910F0400F17
:1030B0001FD02068143050E8001F21F0400140E884
:1030C0000012002AF5D1E06B78B145F2E521C0F697
:1030D00000010165E06BFEF7F6FD002808D0E06B0B
:1030E000016D01B0BDE8F04008472046FFF778FFCA
:1030F000F8BD2046FFF774FFF8BD05E0FFE7204666
:10310000FFF76EFF6564F8BD236B012B7DD110F0D6
:10311000100F7AD011F0100F77D01068506800901F
:1031200050694FF0200310F0400F4FF0020651D0CD
:10313000E26B1068406880B2E0B3A18D81423DD956
:10314000E085D069B0F5807F2DD020680C3050E844
:10315000001F21F4807140E80012002AF5D1206898
:10316000143050E8001F21F0010140E80012002A4D
:10317000F5D12068143050E8001F21F0400140E8EC
:103180000012002AF5D184F84230256320680C3003
:1031900050E8001F21F0100140E80012002AF5D18C
:1031A000E06BFEF73FFD6663A08DE18D401A81B2B2
:1031B000204600E002E0FFF712FFF8BDA18D81423A
:1031C000FBD1D069B0F5807FF7D166632046FFF769
:1031D00006FFF8BDA08DE18D401A81B2E08D002878
:1031E000F7D00029F5D020680C3050E8002F22F4E9
:1031F000907240E8002CBCF1000FF4D1206814302C
:1032000050E8002F22F0010200E016E040E8002C18
:10321000BCF1000FF2D184F84230256320680C30F5
:1032200050E8002F22F0100240E80023002BF5D1D7
:1032300066632046FFF7D3FEF8BD10F0800F07D07D
:1032400011F0800F04D02046BDE8F84002F085B9A7
:1032500010F0400FF0D011F0400FEDD02046BDE847
:10326000F84002F06DB870B50446002C04D094F814
:103270004100002510B106E0012070BD84F84050E7
:10328000204600F023F8242084F841002068C1681B
:1032900021F40051C160204602F0C4F820680169A1
:1032A00021F4904101612068416921F02A014161C6
:1032B0002068C16841F40051C1606564202084F831
:1032C000410084F842006563002070BD10B586B0EF
:1032D0000446142101A8FCF7ADFF4FF49841C4F255
:1032E00000012068884246D100BF002000904FF4C2
:1032F0006150C4F20200006840F400204FF46151B4
:10330000C4F2020108600846006800F40020009042
:1033100000BF00BF00BF0020009043F63000C4F2A1
:103320000200006840F0040043F63001C4F20201DC
:1033300008600846006800F00400009000BF00BF6D
:103340004FF440600190022002900020039003207F
:1033500004900820059001A94FF40060C4F2020017
:10336000FEF744FE002211463420FEF7E7FF34202A
:10337000FEF7D6FF96E04FF48051C4F201012068B9
:10338000884244D100BF0020009043F64400C4F2BC
:103390000200006840F0100043F64401C4F202014C
:1033A00008600846006800F01000009000BF00BFF1
:1033B00000BF0020009043F63000C4F20200006815
:1033C00040F0010043F63001C4F2020108600846F3
:1033D000006800F00100009000BF00BF4FF4C06023
:1033E0000190022002900120039004900720059094
:1033F00001A90020C4F20200FEF7F8FD00221146E8
:103400002520FEF79BFF2520FEF78AFF4AE04FF4B8
:103410008841C4F200012068884243D100BF0020E7
:1034200000904FF46150C4F20200006840F4003094
:103430004FF46151C4F2020108600846006800F4CC
:103440000030009000BF00BF00BF0020009043F696
:103450003000C4F20200006840F0010043F6300181
:10346000C4F2020108600846006800F00100009004
:1034700000BF00BF0C2001900220029001200390A9
:10348000022004900720059001A90020C4F2020048
:10349000FEF7ACFD002211462620FEF74FFF262046
:1034A000FEF73EFF06B010BD90F84230202B01D051
:1034B0000220704721B11AB10023036302F031B832
:1034C0000120704770B505464FF48841C4F20001F1
:1034D0002868884273D140F23C00C2F200000478B0
:1034E00040F23F00C2F200000078A8B9402C59D148
:1034F000012040F23F01C2F200010870002040F2BA
:103500003E01C2F200010870962141F2A400C2F20D
:103510000000FCF78FFE45E040F23F00C2F20000E1
:10352000007801283ED10D2C01D00A2C17D10020A3
:1035300041F2A401C2F2000140F23E02C2F20002D6
:1035400012788854012040F23D01C2F20001087057
:10355000002040F23F01C2F20001087022E040F278
:103560003E00C2F200000078952810DA40F23E01D9
:10357000C2F200010878411C40F23E02C2F2000291
:10358000117041F2A401C2F200010C540AE00020C3
:1035900040F23F01C2F20001087040F23E01C2F267
:1035A00000010870012240F23C01C2F2000140F229
:1035B0008830C2F20000FFF777FF0AE0FFE74FF420
:1035C0009841C4F200012868884202D1284600F0E0
:1035D000FBF870BD2DE9F84304460E4615461F461C
:1035E00094F84100202802D00220BDE8F8837EB183
:1035F00075B100206064212084F84100FEF71BFEB5
:103600008146A584E584A068B0F5805F03D004E01E
:103610000120BDE8F883206990B135460026E08C92
:103620004FF02008C8B14B46002280212046009769
:1036300001F0C2FF30B184F841800320BDE8F88377
:103640000025ECE7B5B12168287848606D1CE08C56
:10365000401EE084E08C0028E5D14B46002240214A
:103660002046009701F0A8FF58B184F8418003205C
:10367000BDE8F88330882168C0F308004860B61CB4
:10368000E5E784F841800020BDE8F883704710B575
:1036900000224FF480614FF48060C4F20200FEF714
:1036A000C3FD0A20FEF78EFC0A2000F05EF810BD74
:1036B00070B50024FEF7BFFD064606E0FEF7BBFD31
:1036C000801B642801D3002070BD4FF400614FF4CB
:1036D0008060C4F20200FEF7A0FD0128EED00120B8
:1036E00002F052FF002523E0012291024FF4806096
:1036F000C4F20200FEF798FD012002F045FF6400CD
:1037000000224FF480614FF48060C4F20200FEF7A3
:103710008BFD012002F038FF4FF400614FF4806010
:10372000C4F20200FEF779FD00B1641C681CC5B24A
:10373000182DD9DB012291024FF48060C4F20200FF
:10374000FEF772FD012002F01FFF84F40004002246
:103750004FF480614FF48060C4F20200FEF764FD14
:10376000012002F011FF2046AEE72DE9F0470646A2
:1037700000210F468846002406B901264FF00009B3
:103780000FE0FFF795FF054625B17F1948F10008C6
:10379000601CC4B21420FEF715FC09F1010000F012
:1037A000FF09B145EDDB002C0ADD22460023384637
:1037B0004146FCF707FD41F23421C2F200014860A6
:1037C000BDE8F08700BFFEE770B5054635B14FF4A0
:1037D0009841C4F200012868884200D070BD40F2D0
:1037E0005200C2F20000047840F24600C2F200002B
:1037F0000078082874D248F60841C0F60001D1E8E4
:1038000000F02C2C05D1012040F24601C2F200014B
:103810000870DEE0122C13D1022040F24601C2F201
:1038200000010870002040F24D01C2F20001087052
:1038300040F24700C2F200000021016081800EE0EA
:103840002C2C06D1012040F24601C2F20001087082
:1038500005E0002040F24601C2F200010870B8E025
:1038600040F24D00C2F2000001780078401C40F2A6
:103870004D02C2F20002107040F24700C2F2000096
:10388000445410460078062805DB032040F2460128
:10389000C2F2000108709CE040F24E00C2F200004B
:1038A0000470042040F24601C2F20001087090E06A
:1038B00040F24F00C2F200000470052040F24601C1
:1038C000C2F20001087084E040F25000C2F2000031
:1038D0000470062040F24601C2F20001087078E050
:1038E00074E040F25100C2F200000470072040F280
:1038F0004601C2F2000108706BE05B2C5CD140F223
:103900004F00C2F20000007840F24E01C2F2000106
:10391000097840EA012041F23A11C2F2000108811F
:1039200040F25100C2F20000007840F25001C2F2B1
:103930000001097840EA012041F23A11C2F2000187
:10394000488108460089B0F5487F02D94FF4487095
:1039500004E041F23A10C2F20000008941F23A114B
:10396000C2F20001088108464089B0F5F07F02D913
:103970004FF4F07004E041F23A10C2F200004089C6
:1039800041F23A11C2F200014881084640F2470173
:10399000C2F200010A6802608988818040F2470013
:1039A000C2F2000002F0B6FD41F23A11C2F200018B
:1039B00088710120087306E0002041F23A11C2F23A
:1039C00000010873887103F005F802E003F002F8C3
:1039D00000BF00BF012240F25201C2F2000140F2DA
:1039E000F820C2F20000FFF75FFD00BFF6E610B559
:1039F00000F0C1F810BD10B50021084601F039F8FB
:103A00000021012001F035F810BD10B50121002082
:103A100001F02FF80121084601F02BF810BD1FB569
:103A2000002000900190029003904FF40050C4F2E7
:103A3000010040F26801C2F2000108604FF48030DA
:103A40004860002140F26800C2F20000816001611C
:103A5000017680F82010C1620121C0F600718162F8
:103A60000021C1600121C161002180F830100121D5
:103A70004161FDF7E0FB08B1FDF704FB0020009079
:103A80000120019007200290694640F26800C2F2CE
:103A90000000FDF712FB08B1FDF7F4FA1FBD10B5E9
:103AA0004FF4D040C4F2000040F22811C2F20001ED
:103AB00008600E204860002140F22810C2F2000089
:103AC0008160C1604FF440310161002141610176A4
:103AD0000121417600218176C17601774177FDF79A
:103AE00023FF08B1FDF7CEFA10BD08B500BF0020D6
:103AF000009043F63000C4F20200006840F48000F9
:103B000043F63001C4F2020108600846006800F480
:103B10008000009000BF00BF46F22840C4F20200BF
:103B200040F25011C2F2000108600020486080217C
:103B300040F25010C2F2000081608900C16049006B
:103B40000161002141618161C16101620421416221
:103B5000032181620021C1620163FEF7BDF908B152
:103B6000FDF790FA002211463920FEF7E7FB3920D5
:103B7000FEF7D6FB08BD00B587B0142102A8FCF7FC
:103B800059FB00BF0020019043F63000C4F2020050
:103B9000006840F0040043F63001C4F202010860FE
:103BA0000846006800F00400019000BF00BF00BF9D
:103BB000002001900846006840F080000860084638
:103BC000006800F08000019000BF00BF00BF00202F
:103BD00001900846006840F001000860084600684F
:103BE00000F00100019000BF00BF00BF0020019065
:103BF0000846006840F0100008600846006800F0C1
:103C00001000019000BF00BF00BF002001900846D7
:103C1000006840F0020008600846006800F00200FA
:103C2000019000BF00BF00BF00200190084600685F
:103C300040F0080008600846006800F008000190A5
:103C400000BF00BF002260210020C4F20200FEF786
:103C5000EBFA00224FF480614FF48060C4F202005E
:103C6000FEF7E2FA60200290012003900020049009
:103C7000059002A90020C4F20200FEF7B7F94FF444
:103C8000806002900120039000200490059002A91A
:103C90004FF48060C4F20200FEF7A8F94FF4006010
:103CA000029000200390049002A94FF48060C4F2B7
:103CB0000200FEF79BF9F020029000200390012003
:103CC000049002A94FF44060C4F20200FEF78EF99E
:103CD00007B000BD00B595B0002011901290139070
:103CE00014900F9010901C2108A8FCF7A3FA202133
:103CF0006846FCF79FFA0020C4F2010040F2B011C0
:103D0000C2F200010860A7204860002140F2B01014
:103D1000C2F20000816044F61F61C16000210161B0
:103D200041618161FEF759FF08B1FDF7ABF94FF42E
:103D30008050119011A940F2B010C2F20000FEF7BD
:103D400098FF08B1FDF79EF940F2B010C2F20000F2
:103D5000FFF7A7F808B1FDF795F900200F90109034
:103D60000FA940F2B010C2F20000FEF7E9FE08B160
:103D7000FDF788F96020089040F2DC50099000209F
:103D80000A900B900C900D900E90002208A940F222
:103D9000B010C2F20000FFF718F808B1FDF772F991
:103DA000042208A940F2B010C2F20000FFF70DF89B
:103DB00008B1FDF767F9082208A940F2B010C2F275
:103DC0000000FFF702F808B1FDF75CF90C2208A922
:103DD00040F2B010C2F20000FEF7F7FF08B1FDF7A5
:103DE00051F90020009001900290039004904FF44C
:103DF0000050059000200790694640F2B010C2F2D2
:103E00000000FEF76AFE08B1FDF73CF940F2B01081
:103E1000C2F20000FEF7A2FF15B000BD10B54FF4CE
:103E20009840C4F2000040F2F821C2F2000108609C
:103E30004FF4E1304860002140F2F820C2F2000067
:103E40008160C16001610C21416100218161C1611A
:103E5000FFF709FA08B1FDF715F910BD10B54FF4D9
:103E60008050C4F2010040F24031C2F2000108600B
:103E70004FF4E1304860002140F24030C2F20000CF
:103E80008160C16001610C21416100218161C161DA
:103E9000FFF7E9F908B1FDF7F5F810BD10B54FF4DB
:103EA0008840C4F2000040F28831C2F2000108608C
:103EB0004FF416504860002140F28830C2F20000F2
:103EC0008160C16001610C21416100218161C1619A
:103ED000FFF7C9F908B1FDF7D5F810BD00BFFEE73F
:103EE00010B50021022000F0C4FD0021032000F0E5
:103EF000C0FD10BD10B50121022000F0BAFD012166
:103F0000032000F0B6FD10BD704700200FE0002137
:103F100009E0002240F2D033C2F2000303EBC013E9
:103F20005A544A1CD1B28029F3DB421CD0B2082873
:103F3000EDDB70472DE9F04304460D4616461F465B
:103F400028463CE0224635E0002A31DB7F2A2FDC80
:103F500000282DDB3F282BDC4FEAE07C00EB5C7C6B
:103F60004FEAEC0C40F2D038C2F2000808EBCC1C4F
:103F70001CF802C003464FEAE07800EB58784FEA9D
:103F8000E808A0EBC8094FF0010808FA09F82CEA84
:103F9000080C01464FEAE07800EB58784FEAE80851
:103FA00040F2D039C2F2000909EBC81808F802C083
:103FB000511C0AB2A1199142C6DC411C08B2E91990
:103FC0008142BFDCBDE8F08330B587B0142102A880
:103FD000FCF730F9002406E0002500E06D1CB5F583
:103FE0007A7FFBD3641CB4F57A7FF5D300BF002041
:103FF000019043F63000C4F20200006840F0020075
:1040000043F63001C4F2020108600846006800F07F
:104010000200019000BF00BF01224FF440714FF435
:104020008060C4F20200FEF7FFF84FF44070029087
:1040300011200390012004900220059002A94FF462
:104040008060C4F20200FDF7D1FF012000F038FAD1
:10405000012000F041FA07B030BD70B505460024DC
:1040600017E080212141294009B1012100E0002110
:10407000084600F031FA012000F022FA042002F094
:1040800083FA002000F01CFA042002F07DFA601C84
:10409000C4B2082CE5DB012000F012FA002000F089
:1040A0000FFA70BD10B5012000F016FA012000F0E3
:1040B00007FA042002F068FA002000F00DFA04204C
:1040C00002F062FA002000F0FBF9042002F05CFA32
:1040D00010BD10B5002000F0FFF9012000F0F0F94C
:1040E000042002F051FA012000F0F6F9042002F059
:1040F0004BFA10BD10B5FFF767FFAE2000F0F8F9DE
:10410000D52000F0F5F9802000F0F2F9A82000F0A9
:10411000EFF93F2000F0ECF9D32000F0E9F900209E
:1041200000F0E6F9402000F0E3F9A12000F0E0F90A
:10413000C82000F0DDF9DA2000F0DAF9122000F0F2
:10414000D7F9812000F0D4F9CF2000F0D1F9D9209F
:1041500000F0CEF9F12000F0CBF9DB2000F0C8F937
:10416000302000F0C5F9A42000F0C2F9A62000F02C
:10417000BFF98D2000F0BCF9142000F0B9F9AF2090
:1041800000F0B6F9FFF7C1FE00F085F910BD10B5DB
:104190000246012000E050430B1EA1F10101FAD1BB
:1041A00010BD70B505460C4645F0B00000F0A0F912
:1041B000102141EA141000F09BF904F00F0000F008
:1041C00097F970BDF8B506460F4614461D46082DF2
:1041D0000FD1A4F1200046F60461C0F6000101EB06
:1041E00000101023082239460090304600F015F8E0
:1041F00012E0062D10D1A4F1200000EB400047F2A0
:10420000F431C0F6000101EB4000082306223946D4
:104210000090304600F001F8F8BD2DE9FF4F8046D0
:104220000E469146DDF834B0002500244A4631465A
:104230004046039BFFF77EFE00BF6AE0002564E076
:1042400008EB050000285EDB08EB05007F285ADC40
:104250003046F11706EB5171C9100FB2F11706EB9A
:104260005171C910A6EBC10A002E05DA781E07B2FB
:104270000AF108000FFA80FA381900281DDB3819F6
:1042800007281ADC381940F2D031C2F2000101EBE4
:10429000C01008EB0501405C04FB09511BF801103C
:1042A00001FA0AF10843391940F2D032C2F2000291
:1042B00002EBC11108EB050288543819401C002894
:1042C00021DB3819401C07281DDC3819401C40F23E
:1042D000D031C2F2000101EBC01008EB0501405CD7
:1042E00004FB09511BF80110CAF1080211410843EF
:1042F0003919491C40F2D032C2F2000202EBC1115E
:1043000008EB05028854681CC5B24D4598DB601C5B
:10431000C4B20399481EC11700EB5171012202EB90
:10432000E101A1428ADCBDE8FF8F2DE9F047064696
:10433000894617461D46DDF82080002417E0281B1B
:10434000411E0A20FFF723FFB7FBF0F00A21B0FB64
:10435000F1F201FB120000F1300A04FB086108B21F
:10436000434652464946FFF72DFF601CC4B2AC429B
:10437000E5DBBDE8F0872DE9FE4F07468A46144687
:1043800098460025AB4600267EE0605D00F0800088
:1043900058B94FF0010B2846691C8DB2205C8DF88E
:1043A000040000208DF8050013E04FF0020B2846B2
:1043B000691C8DB2205C8DF80400605D00B967E077
:1043C0002846691C8DB2205C8DF8050000208DF810
:1043D0000600BBF1010F0BD19DF80420B91908B2FA
:1043E00043465146FFF7EEFE06EB080086B24BE06F
:1043F0004FF0000911E0C9EBC90101EB810147F25F
:104400002E62C0F60002881801A9FBF725FF00B94B
:1044100014E009F101001FFA80F9C9EBC90101EBB1
:10442000810147F22E62C0F60002881848F60C019E
:10443000C0F60001FBF710FF0028DCD100BFB8F187
:10444000080F15D1C9EBC90000EB800047F22E61BF
:10445000C0F600010844C01CB919009008B210232E
:104460001A465146FFF7D9FE06F1100086B20BE05E
:10447000B8F1060F08D1B91908B206233F225146F8
:10448000FFF7A0FEB01D86B2605D00287FF47DAF0F
:1044900000BFBDE8FE8F10B500240EE000212046CD
:1044A000FFF77FFE40F2D031C2F2000101EBC410F1
:1044B000802100F02DF8601CC4B2082CEEDB10BD8A
:1044C00010B5044622464FF480714FF48060C4F268
:1044D0000200FDF7A9FE10BD10B5044622464FF4B8
:1044E00000714FF48060C4F20200FDF79DFE10BD24
:1044F00010B50446FFF7D6FD7820FFF7AEFD00208B
:10450000FFF7ABFD2046FFF7A8FDFFF7E2FD10BD6A
:1045100070B505460E46FFF7C5FD7820FFF79DFDF7
:104520004020FFF79AFD002404E0285DFFF795FD89
:10453000601CC4B2B442F8DBFFF7CBFD70BD70471E
:1045400010B5002220210020C4F20200FDF76CFE0D
:10455000002240210020C4F20200FDF765FE10BDDC
:1045600010B541F2B810C2F2000090F87A0060B1C4
:104570000020FCF7F9FC3220FDF724FD002041F279
:10458000B811C2F2000181F87A00012010BD00B517
:104590002DED028B83B041F24420C2F20000007D79
:1045A00018B103B0BDEC028B00BD41F24420C2F251
:1045B00000004078122816D248F61041C0F60001DB
:1045C000D1E800F0FCF781FB0120FCF736FA48F651
:1045D000C800C0F6000001F02DF948F6C800C0F68A
:1045E0000000FCF7ABFB2BE2FCF75EF9D0B141F227
:1045F0004420C2F20000D0ED090AB0EE600A0120AA
:1046000000F00EFB0121022000F0E9FA48F6E80074
:10461000C0F6000001F00EF948F61810C0F60000D0
:10462000FCF78CFB41F24421C2F20001086CFCF75C
:104630005AFBA8B1012000F0E7FB0021022000F0A6
:10464000CEFA48F63410C0F6000001F0F3F848F650
:104650005010C0F60000FCF771FB0220FCF7EDF9EA
:10466000EEE1FCF721F9C0B141F24420C2F20000B2
:10467000D0ED0A0AB0EE600A022000F0D1FAFFF78E
:10468000C4F948F66810C0F6000001F0D3F848F607
:104690009010C0F60000FCF751FB41F24421C2F239
:1046A0000001886BFCF71FFB10B10320FCF7C5F974
:1046B000C6E1FCF7F9F878B10121084600F08FFA5D
:1046C00048F6B010C0F6000001F0B4F848F6D41077
:1046D000C0F60000FCF732FB41F24421C2F20001B7
:1046E000086CFCF700FBB8B1022000F08DFB002144
:1046F000012000F074FAFFF77EF948F6F010C0F6DA
:10470000000001F097F848F61020C0F60000FCF712
:1047100015FB0420FCF791F992E1FCF7C5F8B0B164
:1047200041F24420C2F20000D0ED0B0AB0EE600A64
:10473000032000F075FA48F62820C0F6000001F0CA
:1047400079F848F62820C0F60000FCF7F7FA41F2A5
:104750004421C2F20001486CFCF7C5FA28B10320DD
:1047600000F052FB0520FCF768F969E1FCF79CF8C2
:1047700008B1FCF737FA41F24421C2F20001086D9A
:10478000FCF7B1FAE8B30020029002A8FCF76EF93A
:10479000C0B30298FBF7F6FE41EC180B53EC182B54
:1047A00048F65020C0F600000BE03EE127E11AE198
:1047B00003E1F6E0E1E0D4E0C6E0A6E07EE056E00A
:1047C0002CE001F037F80298FBF7DCFE41EC180B07
:1047D00053EC182B48F65020C0F60000FCF79CFA6A
:1047E000082348F67822C0F6000230210020FFF7A7
:1047F000C2FD0820042300909DED020ABCEEC00A11
:1048000001E00AE008E010EE102A30213C20FFF71A
:104810008CFD0620FCF711F900BF11E1FCF744F80C
:10482000B0B141F24420C2F20000D0ED0B0AB0EE6C
:10483000600A032000F0F4F948F68020C0F600007A
:1048400000F0F8FF48F68020C0F60000FCF776FA8A
:1048500041F24421C2F20001486CFCF744FA28B14D
:10486000032000F0D1FA0720FCF7E7F8E8E0FCF7B6
:104870001BF8A8B141F24420C2F20000D0ED0C0AAE
:10488000B0EE600A00F034FA48F6A820C0F6000046
:1048900000F0D0FF48F6A820C0F60000FCF74EFA62
:1048A00041F24421C2F20001886CFCF71CFA20B1ED
:1048B00000F0C7FA0820FCF7C0F8C1E0FBF7F4FFEE
:1048C000A8B141F24420C2F20000D0ED0D0AB0EED2
:1048D000600A00F053FA48F6D420C0F6000000F059
:1048E000A9FF48F6D420C0F60000FCF727FA41F2F1
:1048F0004421C2F20001C86CFCF7F5F920B100F0C8
:10490000C4FA0920FCF799F89AE0FBF7CDFF68B1EB
:10491000FFF7F0FA48F60030C0F6000000F08AFF1A
:1049200048F60030C0F60000FCF708FA41F24421D6
:10493000C2F20001C86DFCF7D6F920B1FFF7D0FA3A
:104940000A20FCF77AF87BE0FBF7AEFF40B148F6AF
:104950001C30C0F6000000F06DFF0B20FCF76DF876
:104960006EE041F24421C2F20001086EFCF7BBF98F
:1049700010B10120FCF761F862E0FBF795FF78B118
:1049800048F63430C0F6000000F054FF012000F07B
:104990003BFA0021022000F022F90D20FCF74DF82F
:1049A0004EE041F24421C2F20001C86BFCF79BF9D2
:1049B00010B10E20FCF741F842E0FBF775FF88B11B
:1049C00048F65C30C0F6000000F034FF022000F032
:1049D0001BFA0021012000F002F9FFF70CF80F206C
:1049E000FCF72BF82CE041F24421C2F20001C86B25
:1049F000FCF779F910B11020FCF71FF820E0FBF765
:104A000053FF88B148F68430C0F6000000F012FF72
:104A1000032000F0F9F900F014FA00F036FAFCF780
:104A200054F91120FCF709F80AE0FCF74EF90020D0
:104A300041F24421C2F200010870FBF7FEFF00BF03
:104A400000BF00BFADE57047704710B500F01FF81C
:104A50000021084600F00DF80021012000F009F8BF
:104A60000021022000F005F80021032000F001F8E9
:104A700010BD70B505460C460026012C01D15A2602
:104A800000E000263146284600F04DF870BD10B514
:104A9000002140F2B010C2F20000FEF731FA04210A
:104AA00040F2B010C2F20000FEF72AFA082140F2EC
:104AB000B010C2F20000FEF723FA0C2140F2B01051
:104AC000C2F20000FEF71CFA40F2B010C2F2000081
:104AD0000068406C40F4004040F2B011C2F20001A6
:104AE0000968486440F24000C2F20000818800205A
:104AF00000F03EF840F24000C2F200008188012040
:104B000000F036F840F24000C2F200008188022036
:104B100000F02EF840F24000C2F20000818803202D
:104B200000F026F810BD70B506460B46B3F5877F3A
:104B300001DD4FF4877340F24000C2F2000040886C
:104B400040F24001C2F200010988441A03FB04F05C
:104B50004FF48771B0FBF1F040F24001C2F2000166
:104B60000988084485B22946304600F001F870BD36
:104B700040F24002C2F2000212888A4204DD40F292
:104B80004002C2F20002118840F24002C2F200026A
:104B900052888A4204DA40F24002C2F2000251888E
:104BA00030B1012809D002280CD0032814D10EE01E
:104BB0000022C4F2010251630FE00022C4F201029C
:104BC00091630AE00022C4F20102D16305E00022F1
:104BD000C4F20102116400E000BF00BF704770B56D
:104BE00004460D46012D01D1012000E000200646BB
:104BF000012C02D0022C10D107E0324620210020E7
:104C0000C4F20200FDF710FB08E03246402100200C
:104C1000C4F20200FDF708FB00E000BF00BF70BD5A
:104C2000F0B52DED028B81B00746B0EE408A41F21F
:104C3000B810C2F2000090F87A0020B1002001B054
:104C4000BDEC028BF0BD3846FCF71EFA04460CB9E9
:104C50000020F4E7B5EEC08AF1EE10FA02D200208F
:104C600008EE100A84ED078ABCEEC80A10EE100A9E
:104C700085B2BCEEC80A10EE100A86B2E5806682E4
:104C8000012121712174A07801221146FCF730F92D
:104C90003220FDF797F9A07B01221146FCF728F995
:104CA0003220FDF78FF9012041F2B812C2F2000262
:104CB000009092F87830E178A0782A46FCF7BBF9AA
:104CC0003220FDF77FF9012041F2B812C2F2000252
:104CD000009092F87830E17BA07B3246FCF7ABF98C
:104CE0003220FDF76FF90020FCF78CF90120A6E7D0
:104CF00010B52DED028B82B0B0EE408A41F2B810B3
:104D0000C2F2000090F87A0020B1002002B0BDECA1
:104D1000028B10BDB5EEC08AF1EE10FA02D200206F
:104D200008EE100ABCEEC80A10EE100A84B241F276
:104D3000B810C2F20000A0F86440012180F86210AF
:104D4000014691F8600000220121FCF7D1F83220E1
:104D5000FDF738F9002041F2B812C2F200020090CB
:104D600092F8783092F8611092F860002246FCF7D1
:104D700062F93220FDF726F90120C7E710B52DEDC5
:104D8000028B82B0B0EE408A41F2B810C2F200004D
:104D900090F87A0020B1002002B0BDEC028B10BD6B
:104DA000B5EEC08AF1EE10FA02D2002008EE100A29
:104DB000BCEEC80A10EE100A84B241F2B810C2F27A
:104DC0000000A0F87040012180F86E10014691F8B3
:104DD0006C0000220121FCF78BF83220FDF7F2F87D
:104DE000002041F2B812C2F20002009092F878302E
:104DF00092F86D1092F86C002246FCF71CF93220F4
:104E0000FDF7E0F80120C7E770B505462846FCF736
:104E10003BF904460CB9002070BD002121712174BA
:104E20000020E061A078FCF7D1F83220FDF7CAF845
:104E3000A07B0021FCF7CAF83220FDF7C3F801205F
:104E4000EAE710B5002141F2B810C2F2000080F884
:104E50006210A0F86410014691F860000021FCF790
:104E6000B5F83220FDF7AEF8012010BD10B50120D5
:104E7000FFF7CAFF0220FFF7C7FF0320FFF7C4FFB9
:104E8000FFF7DFFF00F001F810BD10B5002141F27F
:104E9000B810C2F2000080F86E10A0F87010014641
:104EA00091F86C000021FCF791F83220FDF78AF8A8
:104EB000012010BD10B5FDF7C4F910BD00B593B0C9
:104EC000302107A8FBF7B6F9142102A8FBF7B2F9C5
:104ED00000BF002001904FF46150C4F2020000684E
:104EE00040F080504FF46151C4F20201086008465E
:104EF000006800F08050019000BF00BF00BF00209C
:104F000001904FF4E040C4F20000006840F480409B
:104F10004FF4E041C4F2000108600846006800F464
:104F20008040019000BF00BF0220079001200A903E
:104F300010200B9002200D9000210E9108210F915E
:104F4000A8211091022111910421129107A8FDF7C7
:104F500060FB08B1FCF796F80F2002900220039046
:104F6000002004904FF4A05005904FF4805006901C
:104F7000052102A8FDF728FA08B1FCF783F813B061
:104F800000BD4EF68850CEF20000006840F470007C
:104F90004EF68851CEF2000108604FF000604EF6E8
:104FA0000851CEF2000108607047F0B402684FF07B
:104FB000000CC4F2010C4FF480644FF400654FF410
:104FC00040664FF48063C4F20004C4F20005C4F2EA
:104FD0000006C4F2010360450AD0B0F1804F07D04B
:104FE000A04205D0A84203D0B04201D0984203D1DC
:104FF00022F070024F683A43604528D0B0F1804FEC
:1050000025D0A04223D0A84221D0B0421FD0984240
:105010001DD0A0F18044B4F5A03418D0A0F1804494
:10502000B4F5A23413D0A0F18044B4F5A4340ED06A
:10503000A0F18044B4F5C05409D0A0F18044B4F587
:10504000E05404D0A0F18044B4F5005403D122F41C
:105050004072CC6822434C6922F0800222438C6863
:10506000C4620C688462604501D0984201D109692C
:105070000163016841F004010160012141610260A6
:10508000F0BC704701F01F0101238B40D0F820C015
:105090002CEA03030362036A02FA01F11943016275
:1050A0007047D0F808C02CF47F4C42EA0322114329
:1050B00041EA0C0181607047826822F0700211435E
:1050C00041F007018160704770B4026A036A23F0FF
:1050D000010303624368D0F818C02CF0700C2CF068
:1050E000030C0C6844EA0C0C22F002028C68224388
:1050F0000024C4F201044FF48065C4F20105A0420B
:1051000001D0A84205D122F00802CE68324322F035
:105110000402A04201D0A84207D123F4807323F4F3
:1051200000734C6923438C6923434360C0F818C063
:1051300049684163026270BC704770B4026A036AD6
:1051400023F0100303624368D0F818C02CF4E04C3D
:105150002CF4407C0C684CEA042C22F020028C6871
:1051600042EA04120024C4F201044FF48065C4F240
:105170000105A04201D0A84206D122F08002CE68EB
:1051800042EA061222F04002A04201D0A84209D110
:1051900023F4806323F400634C6943EA84038C693D
:1051A00043EA84034360C0F818C04968816302621F
:1051B00070BC704770B4026A036A23F480730362A0
:1051C0004368D0F81CC02CF0700C2CF0030C0C6859
:1051D00044EA0C0C22F400728C6842EA0422002497
:1051E000C4F201044FF48065C4F20105A04201D06D
:1051F000A84206D122F40062CE6842EA062222F4D6
:105200008062A04201D0A84209D123F4805323F444
:1052100000534C6943EA04138C6943EA0413436066
:10522000C0F81CC04968C163026270BC704710B40A
:10523000036A026A22F4805202624268D0F81CC0FB
:105240002CF4E04C2CF4407C0C684CEA042C23F445
:1052500000538C6843EA0433A0F18044B4F58034F1
:1052600004D0A0F18044B4F5823404D122F4804209
:105270004C6942EA84124260C0F81CC0496801646B
:10528000036210BC7047036AD0F820C02CF0010CF8
:10529000C0F820C0D0F818C02CF0F00C4CEA021274
:1052A00023F00A031943826101627047036AD0F850
:1052B00020C02CF0100CC0F820C0D0F818C02CF47E
:1052C000704C4CEA023223F0A00343EA01118261E0
:1052D0000162704710B540F2F820C2F20000FDF7FD
:1052E00080FE10BD10B5806B0021C185FDF778FEF2
:1052F00010BD01680C3151E8002F22F4907241E892
:105300000023002BF5D10168143151E8002F22F061
:10531000010241E80023002BF5D1016B012909D1DD
:1053200001680C3151E8002F22F0100241E80023FF
:10533000002BF5D1202180F8421000210163704735
:1053400010B50168CA6822F04002CA60202180F8C6
:105350004110FEF79BF9002010BD08B590F84210EF
:10536000222901D0022008BD8268B2F5805F01D1F8
:10537000016929B1816AB2F5805F1DD052B10BE09D
:10538000816A02685268C2F308020A80816A891C35
:10539000816209E002697AB10268526802F07F0214
:1053A0000A70816A491C8162C18D491E0904090C79
:1053B000C18505D0002008BD026852680A70F0E778
:1053C0000168CA6822F02002CA600168CA6822F433
:1053D0008072CA6001684A6922F001024A61202194
:1053E00080F8421000214163026B012A03D0FEF7CE
:1053F00069F8002008BD016301680C3151E8002FF5
:1054000022F0100241E80023002BF5D101680A6860
:1054100012F0100F02D00A6849680091818DFDF7E3
:10542000DEFDE6E72DE9F041044620680169E26807
:1054300021F44051114301612169A068E2690843E8
:105440006169114301432068C26822F4037222F4A7
:1054500014421143C16020684169A26921F440717E
:10546000114341612068A0F18041B1F5883131D00C
:10547000A0F18041B1F58A312CD0FDF76DF884465A
:10548000E1690020192748F21F553226C5F2EB15B5
:10549000B1F5004F22D06068830F8200ACFB07019A
:1054A000FAF790FE0146A5FB002040097A424243EC
:1054B00001EB820106EB0111A5FB0121490901F075
:1054C000F00202EB001001F00F010844216888602F
:1054D000BDE8F081FDF751F88446D1E761684A18CC
:1054E00040EB0003ACFB0701FAF76CFE0346A5FB9B
:1054F0000010410918460A016FF01803594300EBE8
:10550000810006EBC000A5FB0010400900F0F80187
:1055100002EB410100F00700084421688860BDE803
:10552000F08181628285C28500214164222180F858
:1055300042100169002904D00168CA6842F48072EF
:10554000CA6001684A6942F001024A610068C168A4
:1055500041F02001C1600020704790F841102129DE
:1055600001D0022070478168B1F5805F01D10169E7
:1055700061B1016A4A1C0262026809785160C18CFB
:10558000491E0904090CC1840AD013E0016A0268AB
:105590000988C1F308015160016A891C0162EEE7C4
:1055A0000168CA6822F08002CA600068C16841F0E0
:1055B0004001C160002070472DE9F8430446089E71
:1055C0000D46174698462068006835EA000028D046
:1055D0000020B84232D1B6F1FF3F27D0FCF72BFEB6
:1055E000A0EB0800B0421ED8EEB12068C16811F0EF
:1055F000040F1BD0802D19D0402D17D0016811F059
:10560000080F13D0002521680968406800902046E3
:10561000FFF76FFE0820606484F840500120BDE869
:10562000F8830120D5E70320BDE8F88320680068EF
:1056300035EA000005D00020B842CCD00020BDE8FB
:10564000F8830120F8E710B540F24030C2F20000C4
:10565000FDF7C7FC10BD10B540F28830C2F2000063
:10566000FDF7BFFC10BD00B591B0002006909DF87D
:105670001800401103909DF818004FF6FF7101EAE1
:10568000C020001D0490002005909DF814004011DA
:1056900001909DF8140001EAC020001D02900E2028
:1056A0000C9000200D9001200E90BDF80C0007908A
:1056B000BDF810000890BDF804000990BDF808007E
:1056C0000A9000200B9001200F900E20109007A947
:1056D00040F22810C2F20000FBF7AAFE10B1002031
:1056E00011B000BD0120FBE700BFFEE77CB57C21C7
:1056F00041F2B810C2F20000FAF79CFD142041F20A
:10570000B811C2F2000181F878000120087002206F
:1057100081F82000032081F84000012088700220D9
:1057200088734FF4FA6141F2B810C2F2000041816F
:10573000C1820021C170C173032180F822100421AD
:1057400080F82E104FF4FA614185C186012180F85E
:105750002310002180F82F10052180F84210062127
:1057600080F84E104FF4FA61A0F84A10A0F85610D5
:10577000002180F84310012180F84F10072041F2EA
:10578000B811C2F2000181F860004FF47A7141F261
:10579000B810C2F20000A0F86810002180F8611073
:1057A000082041F2B811C2F2000181F86C004FF4F8
:1057B0007A7141F2B810C2F20000A0F87410012111
:1057C00080F86D104FF4FA60FCF7FCFB48F610010E
:1057D000C0F6000103C9CDE90001002419E01DF85D
:1057E00004502846FBF7C0FB9620FCF7EBFB012298
:1057F00000212846FBF79AFB9620FCF7E3FB0022EA
:1058000001212846FBF774FB9620FCF7DBFB601CAC
:10581000C4B2082CE3DB0020FBF7BFFB012041F200
:10582000B811C2F2000181F87900002081F87A00F5
:105830007CBD00000FB4054B10B503A9044A0298C3
:1058400000F0ECF810BC5DF814FB0000B96900082A
:105850006400002037B514460846064B6A462146C8
:1058600000F0DCF804466946002000F05AFC2046AF
:105870003EBD00002361000802E008C8121F08C1F5
:10588000002AFAD170477047002001E001C1121FC1
:10589000002AFBD1704700002DE9FF5F82B0002194
:1058A000DDE90430020DDDF840B0034318D044F6C2
:1058B0001050A2F2FF3242431514119801281FD054
:1058C000A5EB0B00401C5FEA000A4FF000064E4FAC
:1058D000DFF83891B046504615D5CAF1000413E000
:1058E000119801244AA3012801D16FEA0B01029803
:1058F000119AC0E90031C0E9024206B0BDE8F09F4C
:10590000CBF10000DFE704460021404A491842EB92
:105910000450CDE9001012E0E00707D032463B46C4
:1059200040464946FAF74DFD8046894632463B4699
:1059300010461946FAF745FD06460F466410002C3E
:10594000EAD1DDE90401DDE90023BAF1000F06DA4E
:10595000FAF737FD42464B46FAF733FD05E0FAF712
:10596000A2FD42464B46FAF79EFD04460E46002233
:10597000284BFAF71BFE03D84FF0FF30014607E033
:105980000022254B20463146FAF774FCFAF7CAFE8E
:10599000102409E0002C0ADB0A220023FAF712FC8B
:1059A000039B30321A55641E50EA0102F2D1641C86
:1059B000039AC4F111031444119A012A03D001225D
:1059C00008430DD10AE0084304D000204FF0110B2A
:1059D000119072E7A3EB0B056D1E0DE05B4504DD36
:1059E0004FF0000205F1010504E003DA4FF0000278
:1059F000A5F10105002AECD002981199C0E9023105
:105A0000C0E9004579E70000000014400000F03FC5
:105A1000300000000000F0430000E03F2DE9FF4FA0
:105A200095B09A46884606460025EEE1252877D1AE
:105A300000242746F94A0121039400E0044316F8A4
:105A4000013F203B01FA03F01042F7D130782A28B9
:105A500011D06FF02F033078A0F13002092A16D848
:105A6000039A44F0020402EB820203EB4202104468
:105A7000761C0390EFE758F8042B0392002A03DA10
:105A8000504244F40054039044F00204761C3078F1
:105A90002E2816D116F8010F44F004042A280DD040
:105AA0006FF02F023078A0F13003092B09D807EBF3
:105AB000870302EB4303C718761CF3E758F8047B0F
:105AC000761C30786C280FD006DC4C2817D068285C
:105AD0000DD06A2814D104E0742810D07A280FD190
