:020000040800F2
:10000000A0190020A1010008ED3E00086D3A00088B
:10001000E93E00082D0E00088F590008000000007E
:10002000000000000000000000000000714C00080B
:10003000570F0008000000005D450008335100081C
:10004000BB010008BB010008BB010008BB010008A0
:10005000BB010008BB010008BB010008BB01000890
:10006000BB010008BB010008BB010008BB01000880
:10007000BB010008BB010008BB010008BB01000870
:10008000BB010008BB010008BB010008BB01000860
:10009000BB010008BB010008BB010008BB01000850
:1000A000BB010008BB010008BB010008BB01000840
:1000B000BB010008BB010008BB010008BB01000830
:1000C000BB010008BB010008BB010008BB01000820
:1000D000BB010008C5580008BB010008BB010008AF
:1000E000BB010008BB010008BB010008BB01000800
:1000F000BB010008BB010008BB010008BB010008F0
:10010000BB010008BB010008BB010008BB010008DF
:1001100053550008BB010008BB010008BB010008E3
:10012000BB010008910E0008BB010008BB010008DC
:10013000BB010008BB010008BB010008BB010008AF
:10014000310E0008BB010008BB010008BB0100081C
:10015000BB010008BB010008BB010008BB0100088F
:10016000BB010008BB010008BB010008BB0100087F
:10017000BB010008BB010008BB0100080000000033
:10018000BB010008BB010008DFF810D000F002FB43
:1001900000480047616C0008AFF30080A019002000
:1001A0000648804706480047FEE7FEE7FEE7FEE711
:1001B000FEE7FEE7FEE7FEE7FEE7FEE70152000886
:1001C000890100082DE9F05F0546002092469B4614
:1001D00088460646814640241BE02846414647465D
:1001E000224600F040FA53465A46C01A914110D3B5
:1001F00011461846224600F027FA2D1A67EB01082F
:100200004F4622460120002100F01EFA17EB00099C
:100210004E41201EA4F10104DFDC484631462A4647
:100220004346BDE8F09F40EA01039B0703D009E085
:1002300008C9121F08C0042AFAD203E011F8013BD2
:1002400000F8013B521EF9D27047D2B201E000F82B
:10025000012B491EFBD270470022F6E710B513466A
:100260000A4604461946FFF7F0FF204610BD421C1F
:1002700010F8011B0029FBD1801A704710B500222D
:1002800000E0521C835C8C5CA34201D1002BF8D1AE
:10029000D8B2E1B2401A10BD30B505460020034681
:1002A00000E05B1C934205D2EC5CC85C201A01D1D3
:1002B000002CF6D130BD2DE9FE4F804681EA0300C7
:1002C000C00F0C46009021F0004123F00045B8EB30
:1002D0000200A94105D24046214690461C460B46E5
:1002E000024623F00040104347D0270DC7F30A0011
:1002F000C3F30A510290401A019040286BDAC3F30D
:10030000130040F4801B0098924620B10023D2EBEA
:10031000030A63EB0B0B01985946C0F140025046AB
:1003200000F092F906460D4650465946019A00F0F3
:10033000AAF910EB08006141002487EA115284EA0F
:10034000E7731A4340D0009A62B3019A012A4FEA38
:10035000075215DC001B61EB02014FF0004202EA7C
:100360000752CDE90042001C41F5801132462B4670
:1003700000F0AAF903B0BDE8F08F40462146F9E746
:10038000001B61EB0201001C41F5801300185B416A
:100390002018A2F5001747EB030140EAD570B61903
:1003A0006D4111E06D084FEA360645EAC0754FEA27
:1003B0000752001B61EB0201001C41F58011490846
:1003C0004FEA30000019514132462B4603B0BDE8D8
:1003D000F04F00F06AB90098012240000023D0EBF2
:1003E000020263EBE073009821464FEAE074B8EB39
:1003F000000061EB0401E9E783F000435BE781F073
:10040000004158E72DE9FE4F81EA030404F000445F
:1004100021F0004100944FF0000B23F0004350EA1C
:1004200001045ED052EA03045BD0C3F30A54C1F363
:100430000A552C44A4F2F3340194A0FB0254C1F3F6
:10044000130141F48011C3F3130343F4801301FB40
:10045000024400FB034E840A970A44EA815447EAA7
:100460008357A4FB076802958D0A05FB07854FEAB1
:10047000932C04FB0C542705029D4FEA065847EACB
:100480001637B5EB08056EEB070C870E920E47EAA0
:10049000811742EA8312A7FB0201B6EB0B0164EB62
:1004A00000042B0D43EA0C335E1844EB1C50DA4673
:1004B0005146E7FB0201C5F313044FEA0B3343EA4D
:1004C00014534FEA0432019C43EA0603A4F10C04DE
:1004D0000294009CCDE900B400F0F6F803B0BDE84A
:1004E000F08F00200146F9E72DE9F04D81EA030481
:1004F00004F0004B21F0004514464FF0000A23F0B1
:10050000004150EA050220D054EA01021DD0C5F393
:100510000A570246C5F31303C1F31300C1F30A5689
:1005200040F4801543F48013A7EB0608101BD64651
:1005300008F2FD3873EB050002D308F1010801E071
:1005400092185B41B8F1000F03DA00200146BDE8C4
:10055000F08D00204FF48011064684460EE0171BF4
:1005600073EB050705D3121B63EB050306434CEA47
:10057000010C49084FEA300092185B4150EA01072C
:10058000EDD152EA030012D082EA040083EA0501A9
:10059000084305D0101BAB4106D20122002306E020
:1005A00000224FF0004302E06FF0010253101AEBFB
:1005B00006004CEB085110EB0A0041EB0B01BDE8C3
:1005C000F04D00F072B800F0004230F000400AD068
:1005D000C10D01F56071C0F3160042EA0151C20875
:1005E00040071143704700200146704730B5041E94
:1005F00071F1000404DB4FF00044404264EB010160
:10060000141E73F1000405DB1C464FF000435242F8
:1006100063EB0403994208BF904230BD30B50B46EE
:10062000014600202022012409E021FA02F59D4222
:1006300005D303FA02F5491B04FA02F52844151EF6
:10064000A2F10102F1DC30BD202A04DB203A00FADD
:1006500002F1002070479140C2F1200320FA03F319
:10066000194390407047202A04DB203A21FA02F017
:100670000021704721FA02F3D040C2F120029140DC
:10068000084319467047202A06DBCB17203A41FA67
:1006900002F043EAE07306E041FA02F3D040C2F10F
:1006A0002002914008431946704710B5141E73F19B
:1006B000000408DA401C41F1000192185B411A4322
:1006C00001D120F0010010BD2DE9F04D92469B466E
:1006D00011B1B1FA81F202E0B0FA80F22032904614
:1006E000FFF7B2FF04460F4640EA0A0041EA0B0159
:1006F00053465A46084313D0114653EA010019D015
:10070000C8F140025046FFF7AEFF05460E46504680
:1007100059464246FFF798FF084305D0012004E000
:1007200020463946BDE8F08D0020054346EAE076D4
:100730002C4337430A986305E40AA0EB0800002223
:10074000FD0A44EA47540A3002D500200146E9E791
:10075000010510196941DDE9084500196941BDE845
:10076000F04DA2E7C1F30A52C1F3130140F2FF3387
:1007700041F480119A4202DA00200146704740F2AB
:1007800033439A42A2F2334202DC5242FFF76BBF7C
:10079000FFF75ABF064C074D06E0E06840F0010342
:1007A00094E8070098471034AC42F6D3FFF7F0FC0A
:1007B000408E0008608E00084FF40C51C4F2010115
:1007C0004A6822F440324A604A6843681A434A60E1
:1007D00001684A6822F480724A6001684A680369C5
:1007E00042EA03224A6001684A6822F040724A6085
:1007F00001684A6883681A434A6001688A6822F47B
:1008000000628A6001688A68C3681A438A60816AE4
:100810006FF07062D14214D001688A6822F0706271
:100820008A6001688A68836A1A438A6001688A68F4
:1008300022F040528A6001688A68C36A1A438A605B
:1008400009E001688A6822F070628A6001688A683B
:1008500022F040528A6001688A6822F002028A60AF
:1008600001688A68037E42EA43028A6090F8201099
:1008700089B101684A6842F400624A6001684A68C6
:1008800022F460424A6001684A68436A5B1E42EA99
:1008900043324A6004E001684A6822F400624A6018
:1008A0000168CA6A22F47002CA620168CA6A838B4C
:1008B0005B1E42EA0352CA6201688A6822F400722F
:1008C0008A6001688A6890F8303042EA43228A6080
:1008D00001688A6822F480628A6001688A684069D7
:1008E00042EA80208860704740F2B820C2F20000DF
:1008F000407D38B1002040F2B821C2F200014875B5
:10090000012070470020FCE710B505F042F878217F
:1009100040F2B820C2F20000FFF79EFC002040F237
:10092000B821C2F20001087000F0AAF801F04BFDF6
:1009300040F2B821C2F20001C8600020C4F2702069
:100940008863C8630020C4F2483008640020C4F201
:10095000F020486441F27C5140F2B820C2F200001D
:10096000016541654FF4FA71816441F28831C164D7
:100970004FF4FA61016640F2DC518165C821C1651E
:1009800040F6B831416643F69821816641F28831DC
:10099000C16643F6982101674FF41671416748F626
:1009A000BC10C0F6000005F095F848F6BC10C0F683
:1009B000000000F02AFA10BD70B501F004FD0446F5
:1009C000002540F2B820C2F20000C06828B140F211
:1009D000B820C2F20000C068251A40F2B820C2F266
:1009E0000000C4608068201A40F2B821C2F2000101
:1009F000486008460078012806D10846007D18B9ED
:100A0000084600692844086140F2A030C2F20000A4
:100A100090F86E00D8B140F2B820C2F20000007821
:100A2000032813D0032040F2B821C2F2000108705D
:100A300000F0B4F948F67C40C0F6000005F04AF832
:100A400048F67C40C0F6000000F0DFF970BD40F2CF
:100A5000B820C2F20000007830B1012805D0022889
:100A600006D0032808D106E007E003F0D4FE04E036
:100A700004F0FDF801E000E000BF00BF00BFE5E7C3
:100A800010B5044640F2B820C2F20000447001F0F4
:100A90009AFC40F2B821C2F2000188600020486050
:100AA0000120487510BD40F2B820C2F20000007865
:100AB00070472DE9F0472DED048B04460D46164690
:100AC00001F081FC81464FF0320A40F2B820C2F2B8
:100AD0000000008B00280DDD40F2B820C2F20000BB
:100AE000C069A9EB0000142804D20020BDEC048BDF
:100AF000BDE8F08740F2B820C2F20000C0F81C90B8
:100B0000008B401C40F2B821C2F200010883002093
:100B100008EE100A08EE900A09EE100A0027804637
:100B200002F0F0FE40B1002002F08EFEB0EE408AEE
:100B3000002002F0F8FE0746012002F0E3FE40B17B
:100B4000012002F081FEF0EE408A012002F0EBFE6F
:100B5000804617B9002008EE100AB8F1000F02D144
:100B6000002008EE900A38EE280AB0EE409A17B935
:100B7000B8F1000F20D040F2B820C2F2000090ED92
:100B8000080A30EE080A80ED080A90ED090A30EEF6
:100B9000280A80ED090A90ED0A0A30EE090A80ED74
:100BA0000A0AC07D401C40F2B821C2F20001C8759B
:100BB0000846807D401C887540F2B820C2F20000D3
:100BC000807D0A2808D240F2B820C2F20000008BD3
:100BD000504501DA002089E740F2B820C2F2000057
:100BE000C07D002831DD40F2B820C2F20000D0ED17
:100BF000080AC07D00EE100AB8EE400A80EE801AA6
:100C000040F2B820C2F2000080ED0B1AD0ED090AC4
:100C1000C07D00EE100AB8EE400A80EE801A40F265
:100C2000B820C2F2000080ED0C1AD0ED0A0AC07D97
:100C300000EE100AB8EE400A80EE801A40F2B820AA
:100C4000C2F2000080ED0D1A07E0002040F2B8214A
:100C5000C2F20001C8620863486340F2B820C2F2E1
:100C6000000090ED0D0A40F21040C2F2000080ED4D
:100C7000070A3CB140F2B820C2F2000090ED0D0A24
:100C800084ED000A3DB140F2B820C2F2000090EDC0
:100C90000B0A85ED000A3EB140F2B820C2F2000016
:100CA00090ED0C0A86ED000A01201FE7002040F2BB
:100CB000B821C2F200018875C8750883C86108624E
:100CC00048628862C86208634863704710B500F0E4
:100CD00078F900F063F8032040F2B821C2F2000175
:100CE000087010BD10B540F2B820C2F200000078C4
:100CF000032817D103F079FD00F050F8002040F2EE
:100D0000B821C2F200010870FFF7BAFE48F6A04011
:100D1000C0F6000004F0DEFE48F6A040C0F6000079
:100D200000F073F810BD10B540F2B820C2F2000018
:100D3000007890B9012040F2B821C2F20001087099
:100D400000200875086101F03EFB40F2B821C2F2B4
:100D50000001C8600020FFF793FE10BD10B540F2FF
:100D6000B820C2F20000007801280AD140F2B82071
:100D7000C2F20000407809280FDA0920FFF780FE50
:100D80000BE004F0CAF900F009F8002040F2B821A5
:100D9000C2F200010870FFF773FE10BD10B500210C
:100DA000022003F0E3FF0021012003F0DFFF03F046
:100DB000CFFB10BD014640F2B820C2F200004068EF
:100DC000884201D3012070470020FCE710B50122C2
:100DD00040F28801C2F2000140F22820C2F2000075
:100DE00002F0FDFB10BD0FB400B59BB01DA8019033
:100DF00002A8019A1C9904F07DFE0020019002A82F
:100E000000F003F81BB05DF814FB70B504462046F3
:100E1000FFF72DFA85B24FF47A732A46214640F245
:100E20002820C2F2000002F05EFC70BD00BFFEE7A9
:100E300010B540F25810C2F2000000F023FD10BDC2
:100E40000146B5EEC00AF1EE10FA02D2002000EE23
:100E5000100A00EE901AF8EE600AB4EEE00AF1EE25
:100E600010FA05DD00EE901AF8EE600AB0EE600AA6
:100E7000FCEEC00A10EE900A80B2704710B5017007
:100E80000281437000248480C4808470847210BD09
:100E900010B540F28010C2F2000000F0EEFF10BD6D
:100EA00001684AF6AB23CAB2103ACAF6AA23A3FBDA
:100EB0000232120946F6BC73C0F600039B5CC365A0
:100EC000032A04D96FF30901091D816502E06FF35C
:100ED00009018165806D7047014600208A6A8B692F
:100EE000002B0FD0B3F5005F1DD08AB3012A30D09C
:100EF000022A2ED0032A04D1C96A11F0807F00D0C3
:100F0000012070471AB1012A07D0022AF9D1C96A13
:100F100011F0807FF5D001207047C96AB1F1C07F20
:100F2000FAD1012070475AB1012A0BD0022A07D00A
:100F3000032AF7D1C96AB1F1C07FF3D1012070470C
:100F400001207047C96A11F0807FFAD001207047F4
:100F5000FFE701207047704710B540F27020C2F2E1
:100F6000000090F84100202806D048F6A050C0F6B6
:100F7000000004F0AFFD10BD48F6C450C0F60000FC
:100F800004F0A8FD48F6C850C0F6000004F0A2FD29
:100F900048F6F850C0F6000004F09CFD48F62060CA
:100FA000C0F6000004F096FD48F6C850C0F60000F8
:100FB00004F090FD00BFDEE710B5322001F0CAF862
:100FC00010BD10B5012040F2A031C2F2000181F83D
:100FD0006E000021084600F0BEF8FFF7EDFF00228A
:100FE0001146104600F016F8FFF7E6FF002140F228
:100FF000A030C2F200000171017480F8241080F862
:10100000301080F8421080F84E1080F85E1080F8A2
:10101000621010BD70B506460C46154640F6846059
:10102000C2F200000670F32040F68461C2F20001B3
:101030004870AB2088700846C47005716B204871F9
:10104000062140F68460C2F2000005F0E9FA70BDA6
:1010500070B506460C46154640F6B470C2F2000064
:101060000670462040F6B471C2F200014870692053
:1010700088700846C47005716B204871062140F6DF
:10108000B470C2F2000005F0CBFA70BD2DE9F04754
:1010900006460F4615469846DDE9099A089C40F633
:1010A000A460C2F200000670FD2040F6A461C2F206
:1010B00000014870084687702812C8700D710846F4
:1010C00080F80580200E8871200CC871200A0872F3
:1010D0004C72084680F80A9080F80BA06B200873C9
:1010E0000D2140F6A460C2F2000005F099FABDE8B7
:1010F000F08710B5044640F66440C2F20000047068
:101100000E2040F66441C2F20001487052208870FF
:101110006B20C870042140F66440C2F2000005F064
:101120007FFA10BD10B5044640F65440C2F20000EC
:1011300004700A2040F65441C2F2000148706D204C
:1011400088706B20C870042140F65440C2F2000041
:1011500005F066FA10BD70B505460C4640F6B46061
:10116000C2F200000570FE2040F6B461C2F2000138
:101170004870982088700846C4706B20087105215B
:1011800040F6B460C2F2000005F04AFA70BD10B536
:10119000044640F6C460C2F200000470FF2040F62E
:1011A000C461C2F200014870662088706B20C8706C
:1011B000042140F6C460C2F2000005F031FA10BD0F
:1011C0002DE9F04105460F4614461E46DDF818800D
:1011D00040F69460C2F200000570F62040F694617B
:1011E000C2F200014870084687702012C8700C7166
:1011F0000846467180F806806B20C871082140F6C9
:101200009460C2F2000005F00BFABDE8F08110B561
:101210000446002201212046FFF7FCFEFFF7CCFE2A
:1012200010BD00BFFEE70146012902D002290AD104
:1012300004E040F2A030C2F20000704740F2C0303B
:10124000C2F20000F9E70020F7E738B44FF0000CD5
:10125000CDF800C090F83C20012A1BD0012280F874
:101260003C200A680724092A17D90368DD680A3A6E
:1012700002EB420204FA02F225EA0202DA600A787C
:101280008B680A3A02EB420293400268D468234317
:10129000D36014E038BC0220704703681D6902EB7C
:1012A000420204FA02F225EA02021A610A788B6805
:1012B00002EB4202934002681469234313614A68B7
:1012C0001F24072A15D203685D6B521E02EB8202AF
:1012D00004FA02F225EA02025A630A8893B20A79F2
:1012E000521E02EB820293400268546B2343536305
:1012F0002CE00D2A15D203681D6BD21F02EB82026F
:1013000004FA02F225EA02021A630A8893B20A7901
:10131000D21F02EB820293400268146B23431363D3
:1013200014E00368DD6A0D3A02EB820204FA02F26D
:1013300025EA0202DA620A8893B20A790D3A02EBD0
:10134000820293400268D46A2343D3624FF40C5262
:10135000C4F201024FF400530468C4F201039C423A
:1013600006D10C68122C03D1546844F480045460F4
:1013700004689C4222D10B68102B01D0112B1DD187
:10138000536843F4000353600968102916D140F2F2
:101390002001C2F20001096844F24022C0F20F02AB
:1013A000B1FBF2F101EB810149000091009929B1F3
:1013B0000099491E009100990029F9D180F83CC09C
:1013C00038BC0020704770B504460025002C03D0BF
:1013D000206C002610B107E0012070BD204600F00F
:1013E0001DF8666484F83C60206C10F0100F04D087
:1013F000012584F83C60284670BD206C20F488509C
:1014000040F0020020642046FFF7D6F96664206CA5
:1014100020F0020040F001002064EAE710B586B039
:101420000446142101A8FEF717FF4FF40051C4F23F
:1014300001012068884237D100BF0020009043F6A8
:101440004400C4F20200006840F4807043F6440196
:10145000C4F2020108600846006800F48070009041
:1014600000BF00BF00BF0020009043F63000C4F270
:101470000200006840F0010043F63001C4F20201AE
:1014800008600846006800F00100009000BF00BF3F
:1014900002200190032002900020039001A9002067
:1014A000C4F2020000F06AFE06B010BD90F82020E1
:1014B000012A07D0022A05D0416A41F48021416205
:1014C0000120704700684269114341610020704764
:1014D00070B490F82040D0F800C0DCF808C0012CAF
:1014E00008D0022C06D0416A41F48021416270BCD0
:1014F000012070470CF080640CF000652C4302D191
:101500001CF0805F55D0CCF3016C012404FA0CF47C
:101510001C608B684FF4C0749BB1CD6804EB0C1653
:101520002B434D6843EAC5030568AB514FF4C273C2
:10153000066803EB0C130D69F550097D012909D0EC
:101540000DE00D88CB6804EB0C1643EA45530568A3
:10155000AB51EBE70168CD5845F48075CD5011795A
:10156000D379557941EA036193791B0443EA052352
:1015700019434FF4C675036805EB0C1559511178E2
:10158000D37841EA0361937852781B0443EA02223C
:1015900011434FF4C473026803EB0C13D15001687C
:1015A00004EB0C100A5842F001020A5070BC0020F3
:1015B0007047416A41F40011416270BC01207047DC
:1015C00090F82020012A07D0022A05D0416A41F470
:1015D00080214162012070474FF4C840C4F20000EE
:1015E000D0F8002242F00102C0F80022D0F8002218
:1015F00022F47C52C0F80022D0F800224B6A42EA62
:101600000322C0F800220A7D012302F01F0203FA20
:1016100002F2D0F81C329343C0F81C32CB69D3B924
:10162000D0F80C329343C0F80C32B1F80CC04B68C0
:101630006CF31F43D1F814C000EBCC0CCCF8403253
:10164000B1F808C00B686CF31F43D1F814C000EB6D
:10165000CC0CCCF84432CB69012B1AD1D0F80C3227
:101660001343C0F80C32B1F800C04B686CF31F4351
:10167000D1F814C000EBCC0CCCF84032B1F808C063
:10168000CB686CF31F43D1F814C000EBCC0CCCF842
:1016900044328B697BB1D0F804321343C0F8043272
:1016A0000B6973B1D0F814321343C0F81432096ACD
:1016B00001290CD010E0D0F804329343C0F8043272
:1016C000EEE7D0F814329343C0F81432EFE7D0F8C5
:1016D0001C121143C0F81C12D0F8001221F00101B5
:1016E000C0F80012002070477047002290F82030A8
:1016F000012B01D0022B04D129B10068006900F050
:101700000302104670470068C06800F00302F8E763
:1017100030B490F820C0BCF1010F09D0BCF1020F29
:1017200006D0416A41F48021416230BC01207047FB
:1017300039B1D0F800C0DCF810C01CF0030F33D072
:1017400006E0D0F800C0DCF80CC01CF0030F24D079
:101750004FF4D87C04680CEB011C54F80C4004F0E6
:10176000040494603CB3046854F80C40E4085460EA
:10177000046854F80CC00CF0020CC2F80CC04FF412
:10178000DA7C04680CEB011C54F80C5005F00F05D2
:10179000082D16D30824146118E0416A41F40011A1
:1017A000416230BC01207047416A41F4001141623E
:1017B00030BC01207047046854F80C40640D14607C
:1017C000D6E754F80C4004F00F041461046854F890
:1017D0000C40C4F307249461046854F80CC04FEA29
:1017E0001C4CC2F814C04FF4DC72D0F800C002EBFD
:1017F00001125CF802C083F800C0D0F800C05CF8A9
:1018000002C04FEA1C2C83F801C0D0F800C05CF87D
:1018100002C04FEA1C4C83F802C0D0F800C05CF84C
:101820000220120EDA704FF4DE72D0F800C002EB24
:1018300001125CF802C083F804C0D0F800C05CF864
:1018400002C04FEA1C2C83F805C0D0F800C05CF839
:1018500002C04FEA1C4C83F806C0D0F800C05CF808
:101860000220120EDA7139B10068016941F02001DD
:10187000016130BC002070470068C16841F0200160
:10188000C160F6E72DE9F05F054600242868466947
:10189000D0F804908768D0F80CA0D0F810B0D0F839
:1018A000188016F0010F54D017F0010F17D0012146
:1018B000816017F0020F03D0284600F075FA0EE0A1
:1018C00017F0040F02D04FF4006408E017F0080F7F
:1018D00002D04FF4805402E0284600F064FA17F476
:1018E000807F19D029684FF48070886017F4007FDA
:1018F00003D0284600F05AFA0EE017F4806F02D0A9
:1019000044F4005408E017F4006F02D044F480441B
:1019100002E0284600F049FA17F4803F19D0296800
:101920004FF48030886017F4003F03D0284600F061
:101930003FFA0EE017F4802F02D044F4004408E090
:1019400017F4002F02D044F4803402E0284600F05F
:101950002EFA16F0080F07D01AF0100F04D044F436
:10196000007429681020C86016F0040F4FF00807B3
:1019700007D01AF0080F04D02868C760284600F086
:10198000B4F916F0020F07D02868C06810F0030FF2
:1019900002D0284600F0AAF916F0400F07D01BF03D
:1019A000100F04D044F4806429681020086116F0F8
:1019B000200F07D01BF0080F04D0286807612846C5
:1019C00000F0BCF916F0100F07D02868006910F07D
:1019D000030F02D0284600F0B2F916F4003F08D0F9
:1019E00019F0100F05D0296810204860284600F033
:1019F000A7F916F4803F07D019F0080F04D0286823
:101A00004760284600F0D5F916F4004F4AD019F087
:101A1000040F44D016F4807F04D018F0010F01D0D9
:101A200044F0010416F4007F04D018F0020F01D036
:101A300044F0020416F4806F04D018F0040F01D0B3
:101A400044F0040416F4006F29D018F0700F26D06B
:101A500008F07000402815D006DC102809D0202896
:101A60000AD0302816D10AE050280ED0602811D1B3
:101A70000EE044F008040DE044F010040AE044F0E5
:101A8000200407E044F0400404E044F0800401E056
:101A900044F480742868816921F0700181612968AB
:101AA00004204860002C05D0686A204368622846FC
:101AB000FFF71AFEBDE8F09F70B50446002C03D076
:101AC00094F8200010B104E0012070BD204600F021
:101AD000A7F82068016841F00101016000F073FC83
:101AE0000546206840684FF0050610F0010F11D13F
:101AF00000F069FC401B0A2807D9606A40F40030F6
:101B0000606284F82060012070BD2068406810F099
:101B1000010FEDD02068016821F00201016000F0A2
:101B200052FC05462068406810F0020F11D000F00A
:101B30004AFC401B0A2807D9606A40F40030606202
:101B400084F82060012070BD2068406810F0020F0A
:101B5000EDD1207E01283FD02068016821F080016E
:101B60000160607E01283DD02068016821F04001BD
:101B70000160A07E01283BD02068016821F020018F
:101B80000160E07E012839D02068016841F0100131
:101B90000160207F012837D02068016821F008010A
:101BA0000160607F012835D02068016821F00401C0
:101BB0000160E168A0686269084321691143084334
:101BC0006168491E08432168C861002060620120E5
:101BD00084F82000002070BD2068016841F0800179
:101BE0000160BEE72068016841F040010160C0E784
:101BF0002068016841F020010160C2E720680168A7
:101C000021F010010160C4E72068016841F008017B
:101C10000160C6E72068016841F004010160C8E77F
:101C200010B586B00446142101A8FEF715FB4FF449
:101C3000D041C4F200012068884254D100BF002086
:101C400000904FF46150C4F20200006840F08060E0
:101C50004FF46151C4F2020108600846006800F0C8
:101C60008060009000BF00BF00BF002000900846C9
:101C7000006840F0007008600846006800F00070DE
:101C8000009000BF00BF00BF0020009043F630006E
:101C9000C4F20200006840F0020043F63001C4F2D2
:101CA000020108600846006800F00200009000BFD2
:101CB00000BF4FF44050019002200290002003909A
:101CC000032004900920059001A94FF48060C4F21C
:101CD000020000F053FA00221146402000F0F6FB0B
:101CE000402000F0E5FB06B010BD704710B504467B
:101CF0004FF4D041C4F200012068884200D010BDEA
:101D000013E040F2FC03C2F20003A3F11C02002125
:101D10002046FFF7FDFC38B9012040F2E001C2F295
:101D2000000181F8740000E005E000212046FFF783
:101D3000DCFC0028E5D100BF00BFE0E7704770473A
:101D4000704770B5044694F82000012805D0606AF9
:101D500040F400206062012070BD022084F8200061
:101D60002068016821F00101016000F02CFB0546AC
:101D70002068406810F0010F12D000F024FB401BD7
:101D80000A2808D9606A40F400306062052084F8AF
:101D90002000012070BD2068406810F0010FECD1D8
:101DA0000020606270BD7047704770477047704791
:101DB000704770472DE9F0410446A66D00F003FB23
:101DC000054694F835000027022806D0802060657B
:101DD00084F834700120BDE8F0812068016821F0AA
:101DE000160101602068416921F080014161206C89
:101DF00008B9A06C20B12068016821F008010160D9
:101E00002068016821F0010101602068006810F07D
:101E1000010F12D000F0D7FA401B052808D9202066
:101E20006065032084F8350084F83470BDE8F081E3
:101E30002068006810F0010FECD194F85C003F219D
:101E400001FA00F0B060012084F8350084F83470A5
:101E50000020BDE8F08190F83510022903D08021E0
:101E6000416501207047052180F835100068016840
:101E700021F001010160002070472DE9F84304467C
:101E80004FF00008CDF8008040F22000C2F20000C0
:101E900000684FF41651B0FBF1F7A56D2E6894F869
:101EA0005C00082101FA00F0304211D0206802687D
:101EB00012F0040F0CD0026822F00402026094F8C1
:101EC0005C0001FA00F0A860606D40F00100606500
:101ED00094F85C004FF0010909FA00F0304209D093
:101EE0002168496911F0800F04D0A860606D40F04E
:101EF0000200606594F85C1004208840304209D0EC
:101F00002168096811F0020F04D0A860606D40F0EC
:101F10000400606594F85C1010208840304224D0A2
:101F20002168096811F0080F1FD0A86020680168B7
:101F300011F4802F0DD0006810F4002F04D0A16C94
:101F400099B12046884710E0216C71B1204688473E
:101F50000BE0016811F4807F03D1016821F00801D2
:101F60000160216C09B12046884794F85C1020205C
:101F70008840304251D02168096811F0100F4CD0D0
:101F8000A86094F8350005280DD02068016811F488
:101F9000802F32D0006810F4002F29D0E16B59B3A4
:101FA0002046884739E02068016821F01601016069
:101FB0002068416921F080014161206C08B9A06C62
:101FC00020B12068016821F00801016094F85C00EC
:101FD0003F2101FA00F0A86084F8359084F834803D
:101FE000216D00293ED001B02046BDE8F0430847EE
:101FF000616C09B1204688470FE0016811F4807FC9
:1020000007D1016821F01001016084F8359084F84F
:102010003480E16B09B120468847606D002821D0EB
:10202000606D10F0010F15D0052084F83500206890
:10203000016821F0010101600098401C0090B84245
:1020400004D82068006810F0010FF5D184F83590AD
:1020500084F83480E16C002904D001B02046BDE84A
:10206000F0430847BDE8F8832DE9F041044600F04D
:10207000AAF90546DCB1022084F83500002684F870
:1020800034602068016821F0010101602068006867
:1020900010F0010F13D000F096F9401B052809D964
:1020A00020206065032084F83500BDE8F081012020
:1020B000BDE8F0812068006810F0010FEBD12168C5
:1020C000086848F23F02CFF210021040A36862682D
:1020D000D4F810C01A43E36843EA0C031A43636957
:1020E0001A43A3691A43E3691A43236A1A43104344
:1020F000626A042A03D1236BE26A1A431043086020
:102100002068406920F00701606A40EA0105012764
:1021100004280ED1A06A0543E06A50B12046FEF7BC
:10212000DBFE30B14020606584F835700120BDE8E9
:10213000F081206845612046FEF7B2FE94F85C10FD
:102140003F2202FA01F18160666584F83570002053
:10215000BDE8F08170B5044600F035F90546B4F1EC
:10216000FF3F05D040F22400C2F200000078044492
:1021700000F029F9401BA042FAD370BD2DE9F84FB9
:10218000002243F6084A43F64409C4F2010A4FF01C
:10219000010E03274FF00F08C4F20209AAF1040B45
:1021A0000EFA02FC0B6803EA0C0363457DD10C793F
:1021B00004F00304012C01D0022C14D185685400D2
:1021C00007FA04F6B543CE6806FA04F42C4384609B
:1021D000446824EA0C0C0C79C4F30014944044EADB
:1021E0000C0CC0F804C0D1F804C037EA0C0C0CD0B9
:1021F000C4684FEA420C07FA0CF5AC438D6805FA47
:102200000CFC4CEA040CC0F80CC091F804C00CF0B3
:10221000030CBCF1020F12D14FEAD20C00EB8C047C
:10222000256A4FEA427C4FEADC6C08FA0CF6B543AB
:102230000E6906FA0CFC4CEA050CC4F820C00468D0
:102240004FEA420C07FA0CF5AC430D7905F0030593
:1022500005FA0CFC4CEA040CC0F800C0D1F804C02C
:102260001CF4403F21D0D9F800C04CF4804CC9F890
:1022700000C0D9F800C00CF4804CCDF800C022F0AA
:10228000030C0CF1804505F59835D5F808C894077E
:10229000240F08FA04F62CEA0606A0F1804CBCF5DF
:1022A000003C6AD0A0F1804C00E060E0BCF5013C4D
:1022B00066D0A0F1804CBCF5023C64D0A0F1804C0B
:1022C000BCF5033C62D0A0F1804CBCF5043C60D06E
:1022D000A0F1804CBCF5053C5ED0A0F1804CBCF573
:1022E000063C5CD0A0F1804CBCF5073C5AD04FF0C6
:1022F000080C0CFA04FC4CEA060CC5F808C8DAF81D
:1023000000C02CEA030C4C6814F4801F01D04CEA86
:10231000030CCAF800C043F60C44C4F20104D4F81C
:1023200000C02CEA030C4D6815F4001F01D04CEAE4
:10233000030CC4F800C0DBF800C02CEA030C4C68A6
:1023400014F4003F01D04CEA030CCBF800C04FF46A
:102350007054C4F20104D4F800C02CEA030C4D6898
:1023600015F4803F01D04CEA030CC4F800C0521CA5
:10237000102AFFF415AFBDE8F88F4FF0000CB8E756
:102380004FF0010CB5E74FF0020CB2E74FF0030C31
:10239000AFE74FF0040CACE74FF0050CA9E74FF0A6
:1023A000060CA6E74FF0070CA3E70069084201D02E
:1023B0000120704700207047002A01D081617047DA
:1023C00009048161704740F22400C2F20000806875
:1023D000704740F22400C2F2000081680278114484
:1023E0008160704710B54FF47050C4F2020001686C
:1023F00041F400710160016841F48061016001688D
:1024000041F480710160032000F094F8002000F096
:1024100004F800F025F8002010BD70B5044640F225
:102420002405C2F2000528784FF47A71B1FBF0F070
:1024300040F22001C2F200010968B1FBF0F000F0A7
:10244000FFFB08B1012070BD102C07D200222146ED
:10245000501E00F03BF86C60002070BD012070BD84
:1024600008B500BF0020009043F64400C4F202000B
:10247000006840F4804043F64401C4F20201086061
:102480000846006800F48040009000BF00BF00BF15
:1024900000200090081F006840F08050091F08606D
:1024A0000846006800F08050009000BF00BF08BDE3
:1024B00000280ADB00F01F01012202FA01F14009A5
:1024C000800000F1E020C0F80011704710B44EF613
:1024D0000C53CEF200031B68C3F30223C3F1070CB5
:1024E000BCF1040F01D94FF0040C1C1D072C01D2C4
:1024F000002300E0DB1E012404FA0CFCACF1010C0B
:102500000CEA0101994004FA03F35B1E1A401143DF
:10251000002806DB00F1E020090180F8001410BC5F
:10252000704700F00F0000F1E020090180F8141D51
:1025300010BC704700F007004EF60C52CEF20002BD
:1025400011684FF6FF03194041EA002040F0FD708A
:1025500040F08060106070472DE9F04704460D465A
:10256000002C15D04FF47059C4F20209D9F80000BC
:10257000EFB200F00700A8420DD289F80070D9F838
:10258000000000F00700A84205D00120BDE8F08758
:102590000120BDE8F087206843F6080610F0020F1E
:1025A000C4F2020614D010F0040F03D0306840F4D7
:1025B000E0503060207810F0080F03D0306840F40D
:1025C000604030603068A16820F0F000084330605F
:1025D000207810F0010F41D060684FF46051C4F2D0
:1025E0000201012808D002280DD003280BD0096869
:1025F00011F0020F28D00AE0096811F4003F06D15B
:102600000120BDE8F087096811F0007F19D031681A
:1026100021F0030108433060FFF7D5FE80463068A3
:10262000616800F00C00B0EB810F17D041F2883ADE
:10263000FFF7C9FEA0EB0800504508D90320BDE80C
:10264000F0870120BDE8F0870120BDE8F087306801
:10265000616800F00C00B0EB810FE9D1D9F80000FF
:1026600000F00700A8420AD989F80070D9F80000E4
:1026700000F00700A84202D00120BDE8F0872078D2
:1026800010F0040F05D03068E16820F4E0500843F2
:102690003060207810F0080F06D03068216920F4EF
:1026A000604040EAC100306000F040F83168C1F39A
:1026B000031146F6A472C0F60002515CC84040F215
:1026C0002001C2F20001086040F22800C2F20000BE
:1026D0000068FFF7A2FE0020BDE8F08740F220006E
:1026E000C2F200000068704700B5FFF7F7FF43F63D
:1026F0000801C4F202010968C1F3822146F6B472EE
:10270000C0F60002515CC84000BD00B5FFF7E6FF0F
:1027100043F60801C4F202010968C1F3423146F6EA
:10272000B472C0F60002515CC84000BD10B543F65B
:102730000800C4F20200006810F00C014FF41050C1
:10274000C0F2F4001CD047F64003C0F27D13042908
:1027500015D0082914D143F60404C4F202042168F8
:1027600001F03F02216811F4800F0AD02068C0F305
:102770008810A0FB03010023FDF724FD09E01846A3
:1027800010BD21680023C1F38811A1FB0001FDF7F2
:1027900019FD2168C1F30141491C4900B0FBF1F06A
:1027A00010BD2DE9F84F0446002C15D0207843F6D3
:1027B0000406C4F2020610F0010FA6F1040563D06E
:1027C000301D016801F00C0104290CD0006800F0F4
:1027D0000C00082803D010E00120BDE8F88F306815
:1027E00010F4800F09D0286810F4003F4CD06068C6
:1027F000002849D10120BDE8F88F6068B0F5803F1E
:1028000014D0B0F5A02F16D0286820F480302860AE
:10281000286820F480202860606810B3FFF7D3FD9B
:102820000746286810F4003F0ED02DE0286840F4D9
:1028300080302860F0E7286840F48020286028680D
:1028400040F480302860E7E7FFF7BDFDC01B642837
:1028500002D90320BDE8F88F286810F4003FF3D0B8
:1028600012E0FFF7B0FD0746286810F4003F0BD0D8
:10287000FFF7A9FDC01B642802D90320BDE8F88F2B
:10288000286810F4003FF3D120784FF0000710F0D3
:10289000020F4FF00009C4F247275AD043F6080050
:1028A000C4F20200016811F00C0F14D0006800F0AF
:1028B0000C00082803D1306810F4800F0BD0E068BA
:1028C00080B301203860FFF77EFD8046286810F055
:1028D000020F12D01EE0286810F0020F05D0E06849
:1028E000012802D00120BDE8F88F2868216920F076
:1028F000F80040EAC10028602BE0FFF764FDA0EB80
:102900000800022802D90320BDE8F88F286810F0DB
:10291000020FF2D02868216920F0F80040EAC100D7
:10292000286016E0FFE7C7F80090FFF74CFD8046EF
:10293000286810F0020F0CD0FFF745FDA0EB08004F
:10294000022802D90320BDE8F88F286810F0020F92
:10295000F2D1207810F0080F3AD04FF4686043F6B7
:10296000740A6169C4F24720C4F2020AC1B10121AC
:102970000160FFF728FD8046DAF8000010F0020F32
:1029800026D1FFF720FDA0EB0800022802D9032082
:10299000BDE8F88FDAF8000010F0020FF1D017E070
:1029A000C0F80090FFF70FFD8046DAF8000010F045
:1029B000020F0DD0FFF707FDA0EB0800022802D997
:1029C0000320BDE8F88FDAF8000010F0020FF1D113
:1029D000207810F0040F70D04FF000084FF46150D1
:1029E000C4F20200006810F0805F0DD14FF4615016
:1029F000C4F20200016841F080510160006800F0FB
:102A0000805000904FF001084FF4E04BC4F2000BEF
:102A1000DBF8000010F4807F1BD1DBF8000040F4ED
:102A20008070CBF80000FFF7CEFC8246DBF8000098
:102A300010F4807F0DD1FFF7C6FCA0EB0A0002283E
:102A400002D90320BDE8F88FDBF8000010F4807F86
:102A5000F1D0A06843F6700BC4F2020B012818D025
:102A600005281DD0DBF8000020F00100CBF80000A5
:102A7000DBF8000020F00400CBF80000A06870B381
:102A8000FFF7A1FC8246DBF8000010F0020F15D022
:102A90003DE0DBF8000040F00100CBF80000EDE77E
:102AA000DBF8000040F00400CBF80000DBF8000089
:102AB00040F00100CBF80000E0E733E0FFF783FCD3
:102AC000A0EB0A0141F28830814202D90320BDE81F
:102AD000F88FDBF8000010F0020FEFD017E0FFF7DF
:102AE00072FC8246DBF8000010F0020F0FD0FFF7F7
:102AF0006AFCA0EB0A0141F28830814202D903202E
:102B0000BDE8F88FDBF8000010F0020FEFD1B8F14C
:102B1000010F07D14FF46150C4F20200016821F0A7
:102B200080510160A06978B343F60801C4F2020144
:102B300009684FF0FF3801F00C01082954D0022831
:102B400010D0C7F86090FFF73EFC0446286810F0EC
:102B5000007F72D0FFF737FC001B02283FD903200B
:102B6000BDE8F88FC7F86090FFF72DFC8146286814
:102B700010F0007F0DD0FFF726FCA0EB0900022823
:102B800003D90320BDE8F88F57E0286810F0007FD4
:102B9000F1D1216AE069A26A0843616A08EB520236
:102BA000890141EA0241084394F82C1040EA01608F
:102BB000306001203866FFF706FC0446286810F0F4
:102BC000007F3AD1FFF7FFFB001B022802D9032048
:102BD000BDE8F88F286810F0007FF3D02DE028685A
:102BE00010F0007FB6D128E0012823D03068E269D8
:102BF00000F4800191421AD1226A00F03F01914213
:102C000015D147F6C071626A0140B1EB821F0ED147
:102C1000A26A00F4403108EB5202B1EB024F06D138
:102C200094F82C1000F07060B0EB016F05D001201B
:102C3000BDE8F88F0120BDE8F88F0020BDE8F88FCF
:102C4000401EB0F1807F01D3012070474FF0E0219A
:102C500048614EF62352CEF20002F02010700020A0
:102C60008861072008610020704790F83C20012A05
:102C70002CD0012280F83C20CA680023D1F808C07B
:102C800022F4407242EA0C02D1F804C022F48062BD
:102C900042EA0C02D1F800C022F4006242EA0C02BF
:102CA000D1F810C022F4805242EA0C02D1F814C0CC
:102CB00022F4005242EA0C02C96922F48042114314
:102CC0000268516480F83C30002070470220704751
:102CD00030B490F83C20012A44D0012480F83C40D4
:102CE000022280F83D200268D2F804C093682CF0DC
:102CF000700C0D6845EA0C0CC2F804C00268A2F121
:102D0000804CBCF5803C20D0B2F1804F1DD0A2F1A8
:102D1000804CBCF5806C18D0A2F1804CBCF5006CE6
:102D200013D0A2F1804CBCF5406C0ED0A2F1804CC7
:102D3000BCF5823C09D0A2F1804CBCF5A03C04D08B
:102D4000A2F1804CBCF5C05C04D123F0800349683B
:102D50001943916080F83D40002180F83C1030BC60
:102D60000020704730BC0220704710B50446002C8C
:102D700003D094F83D0010B107E0012010BD002001
:102D800084F83C00204600F01EF8022084F83D0044
:102D9000211D206802F048FA012084F8460084F8DA
:102DA0003E0084F83F0084F8400084F8410084F835
:102DB000420084F8430084F8440084F8450084F815
:102DC0003D00002010BD08B50022C4F201020168D8
:102DD000914215D100BF0021009143F64401C4F295
:102DE0000201096841F0010143F64402C4F2020203
:102DF00011601146096801F00101009100BF00BF98
:102E000008BD70B50446002594F83C00012818D090
:102E1000012684F83C60022084F83D002068826826
:102E200022F0770222F47F4282600868502839D06D
:102E30000EDC202854D006DC002851D0102811D1F7
:102E40004EE0022070BD30284AD040280AD13DE033
:102E5000602831D070280DD0B0F5805F03D0B0F578
:102E6000005F13D0012584F83D60002084F83C0009
:102E7000284670BDCB684A688968206802F050FA1D
:102E80002068816841F077018160ECE7CB684A688F
:102E90008968206802F044FA2068816841F4804122
:102EA0008160E0E7CA684968206802F02BFB502186
:102EB000206802F040FAD6E7CA684968206802F044
:102EC00034FB6021206802F036FACCE7CA68496812
:102ED000206802F017FB4021206802F02CFAC2E7BC
:102EE00022680146104602F026FABCE710B586B00B
:102EF0000446142101A8FDF7AFF90021C4F2010135
:102F00002068884227D100BF0020009043F630009F
:102F1000C4F20200006840F0100043F63001C4F231
:102F2000020108600846006800F01000009000BF31
:102F300000BF4FF420600190022002900020039017
:102F4000022004900120059001A94FF48050C4F2A2
:102F50000200FFF713F906B010BD70B504460D4628
:102F6000002694F83C0001280FD0012084F83C0092
:102F70006AB1042A1FD0082A32D00C2A44D0012674
:102F8000002084F83C00304670BD022070BD294608
:102F9000206802F0D8F92068816941F00801816158
:102FA0002068816921F004018161206881692A69B2
:102FB00011438161E4E72946206802F0FDF92068A9
:102FC000816941F4006181612068816921F4806137
:102FD0008161206881692A6941EA02218161CFE724
:102FE0002946206802F025FA2068C16941F00801ED
:102FF000C1612068C16921F00401C1612068C16913
:103000002A691143C161BBE72946206802F04EFAE4
:103010002068C16941F40061C1612068C16921F47F
:103020008061C1612068C1692A6941EA0221C161E8
:10303000A6E710B50446002C03D094F83D0010B16B
:1030400007E0012010BD002084F83C00204600F07D
:103050001EF8022084F83D00211D206802F0E4F8EB
:10306000012084F8460084F83E0084F83F0084F88C
:10307000400084F8410084F8420084F8430084F85A
:10308000440084F8450084F83D00002010BD7047DE
:1030900010B50446002909D004290AD008290BD00C
:1030A00094F8410001280AD0012010BD94F83E0098
:1030B000F8E794F83F00F5E794F84000F2E70220C3
:1030C000F1B304294DD008294ED084F841000122E3
:1030D000206802F016F900222068C4F201024FF4C1
:1030E0008061C4F20101904201D0884203D1436C57
:1030F00043F4004343642068904225D0B0F1804FF0
:1031000022D0A0F18042B2F580621DD0A0F18042B1
:10311000B2F5006218D0A0F18042B2F5406213D03F
:10312000884211D0A0F18041B1F5A0310CD0A0F1BE
:103130008041B1F5C05107D0016841F0010100E0C4
:103140000CE00160002010BD816801F00701062934
:10315000F8D0016841F001010160F3E784F83E0016
:10316000B5E784F83F00B2E784F84000AFE7704766
:103170007047F8B5044622681068D168536900F0BA
:103180000F0CBCF1000F0AD110F0200F07D011F086
:10319000200F04D02046BDE8F84002F01DBA0025FB
:1031A000BCF1000F78D003F0010C01F490765CEADA
:1031B000060671D010F0010F06D011F4807F03D005
:1031C000626C42F00102626410F0040F06D013F04A
:1031D000010F03D0626C42F00202626410F0020F31
:1031E00006D013F0010F03D0626C42F00402626457
:1031F00010F0080F08D001F0200252EA0C0203D0B0
:10320000626C42F008026264626C002A38D010F0EE
:10321000200F05D011F0200F02D0204602F0DCF97B
:1032200020684069C0F38010616C11F0080F00D174
:1032300060B3204602F09CF92068406910F0400F0E
:103240001FD02068143050E8001F21F0400140E8F2
:103250000012002AF5D1E06B78B145F26351C0F657
:1032600000010165E06BFEF7F6FD002808D0E06B79
:10327000016D01B0BDE8F04008472046FFF778FF38
:10328000F8BD2046FFF774FFF8BD05E0FFE72046D4
:10329000FFF76EFF6564F8BD236B012B7DD110F045
:1032A000100F7AD011F0100F77D01068506800908E
:1032B00050694FF0200310F0400F4FF0020651D03C
:1032C000E26B1068406880B2E0B3A18D81423DD9C5
:1032D000E085D069B0F5807F2DD020680C3050E8B3
:1032E000001F21F4807140E80012002AF5D1206807
:1032F000143050E8001F21F0010140E80012002ABC
:10330000F5D12068143050E8001F21F0400140E85A
:103310000012002AF5D184F84230256320680C3071
:1033200050E8001F21F0100140E80012002AF5D1FA
:10333000E06BFEF73FFD6663A08DE18D401A81B220
:10334000204600E002E0FFF712FFF8BDA18D8142A8
:10335000FBD1D069B0F5807FF7D166632046FFF7D7
:1033600006FFF8BDA08DE18D401A81B2E08D0028E6
:10337000F7D00029F5D020680C3050E8002F22F457
:10338000907240E8002CBCF1000FF4D1206814309A
:1033900050E8002F22F0010200E016E040E8002C87
:1033A000BCF1000FF2D184F84230256320680C3064
:1033B00050E8002F22F0100240E80023002BF5D146
:1033C00066632046FFF7D3FEF8BD10F0800F07D0EC
:1033D00011F0800F04D02046BDE8F84002F0FCB99F
:1033E00010F0400FF0D011F0400FEDD02046BDE8B6
:1033F000F84002F0E4B870B50446002C04D094F80C
:103400004100002510B106E0012070BD84F8405055
:10341000204600F023F8242084F841002068C16889
:1034200021F40051C160204602F03BF92068016997
:1034300021F4904101612068416921F02A01416134
:103440002068C16841F40051C1606564202084F89F
:10345000410084F842006563002070BD10B586B05D
:103460000446142101A8FCF7F7FE4FF49841C4F27A
:1034700000012068884265D100BF002000904FF411
:103480006150C4F20200006840F400204FF4615122
:10349000C4F2020108600846006800F400200090B1
:1034A00000BF00BF00BF0020009043F63000C4F210
:1034B0000200006840F0010043F63001C4F202014E
:1034C00008600846006800F00100009000BF00BFDF
:1034D00000BF002000900846006840F0040008602B
:1034E0000846006800F00400009000BF00BF012003
:1034F00001900220029001200390032004900820F4
:10350000059001A90020C4F20200FEF737FE4FF437
:10351000006001900220029001200390032004909B
:103520000820059001A94FF40060C4F20200FEF7E4
:1035300025FE002211463420FEF7C8FF3420FEF796
:10354000B7FF4AE04FF48051C4F20101206888427D
:1035500043D100BF0020009043F64400C4F20200B3
:10356000006840F0100043F64401C4F20201086014
:103570000846006800F01000009000BF00BF00BFC8
:103580000020009043F63000C4F20200006840F0D2
:10359000010043F63001C4F20201086008460068E9
:1035A00000F00100009000BF00BF4FF4C060019028
:1035B000022002900120039004900720059001A9A9
:1035C0000020C4F20200FEF7D9FD0022114625209A
:1035D000FEF77CFF2520FEF76BFF06B010BD90F8CC
:1035E0004230202B01D00220704721B11AB10023B4
:1035F000036302F0D5B80120704770B505464FF45B
:103600009841C4F20001286888426BD140F28800DA
:10361000C2F20000047840F28B00C2F20000007891
:10362000A8B9402C52D1012040F28B01C2F2000116
:103630000870002040F28A01C2F200010870962151
:1036400041F20810C2F20000FCF706FE3EE00D2C2D
:1036500001D00A2C17D1002141F20810C2F200005B
:1036600040F28A02C2F2000212788154012040F234
:103670008901C2F200010870002040F28B01C2F201
:103680000001087022E040F28A00C2F200000078D7
:10369000952810DA40F28A01C2F200010878411C34
:1036A00040F28A02C2F20002117041F20811C2F225
:1036B00000010C540AE0002040F28B01C2F200012C
:1036C000087040F28A01C2F200010870012240F243
:1036D0008801C2F2000140F22820C2F20000FFF788
:1036E0007EFF00BF70BD2DE9F84304460E46154627
:1036F0001F4694F84100202802D00220BDE8F8833C
:103700007EB175B100206064212084F84100FEF78D
:103710005AFE8146A584E584A068B0F5805F03D099
:1037200004E00120BDE8F883206990B13546002609
:10373000E08C4FF02008C8B14B4600228021204683
:10374000009702F078F830B184F841800320BDE89A
:10375000F8830025ECE7B5B12168287848606D1C36
:10376000E08C401EE084E08C0028E5D14B4600222E
:1037700040212046009702F05EF858B184F841805D
:103780000320BDE8F88330882168C0F30800486052
:10379000B61CE5E784F841800020BDE8F883704757
:1037A00000B587B0142102A8FCF756FD00BF002029
:1037B000019043F63000C4F20200006840F00200BD
:1037C00043F63001C4F2020108600846006800F0C8
:1037D0000200019000BF00BF00224FF488414FF467
:1037E0008060C4F20200FEF7E7FD4FF488400290CB
:1037F0000120039000200490059002A94FF48060FE
:10380000C4F20200FEF7BAFC4FF408400290002018
:103810000390049002A94FF48060C4F20200FEF706
:10382000ADFC07B000BD014611B101290AD104E089
:1038300040F24000C2F20000704740F26400C2F261
:103840000000F9E70020F7E770B506463046FFF7BD
:10385000EAFF04461CB9002000EE100A70BD304695
:1038600000F06DF8054625613DB90020A061E061DA
:1038700084F8200000EE100AF0E76069A84210D238
:103880006069281AA06194ED060AF8EEC00A0020CB
:10389000C4F24F3000EE100A80EE801A84ED071A51
:1038A00002E00020A061E061012084F8200094ED96
:1038B000070AD3E710B5FFF773FF002140F240007D
:1038C000C2F2000000F0C9F8002140F26400C2F228
:1038D000000000F0C2F80A20FEF73CFC0A2100209C
:1038E00000F086F80A21012000F082F8242240F23C
:1038F0004001C2F2000140F21040C2F20000FCF7A9
:1039000092FC10BD70B505462846FFF78CFF0446B3
:103910000CB9002070BD204600F063F808B9012002
:10392000F8E70020F6E770B505462846FFF77BFF6D
:1039300004460CB9002070BD94F82000FBE72DE987
:10394000F04107463846FFF76EFF04460025FEF7B4
:103950003AFD804614B90020BDE8F08109E0FEF789
:1039600032FDA0EB0800642803D3002084F8200077
:10397000F2E7204600F035F80128F0D0012002F0EF
:103980000AFF002616E00121204600F066F801201B
:1039900002F001FF6D000021204600F05EF80120DA
:1039A00002F0F9FE204600F01CF8012800D16D1C41
:1039B000701CC6B2182EE6DB0121204600F04DF83F
:1039C000012002F0E8FE85F400050021204600F009
:1039D00044F8012002F0DFFE012084F82000284690
:1039E000BAE710B50446A189A068FEF7DEFC10BD59
:1039F0002DE9F05F83460E465846FFF714FF8246D6
:103A000000210F4688460024BAF1000F01D1BDE81D
:103A1000F09F06B901264FF0000910E05846FFF765
:103A20008EFF054625B17F1948F10008601CC4B21D
:103A30001420FEF78FFB09F1010000F0FF09B145EA
:103A4000ECDB002C07DD2246002338464146FCF71C
:103A5000B9FBCAF8140000BFD9E770B504460D469B
:103A6000A1882A462068FEF7A7FC70BD00BFFEE7CC
:103A700010B500F0ACF810BD1FB50020009001900B
:103A8000029003904FF40050C4F2010040F29801FC
:103A9000C2F2000108604FF480304860002140F21B
:103AA0009800C2F2000081600161017680F8201068
:103AB000C1620121C0F6007181620021C160012153
:103AC000C161002180F8301001214161FDF77BFCCC
:103AD00008B1FDF7A6FB01200090019000200290A4
:103AE000694640F29800C2F20000FDF7AEFB08B153
:103AF000FDF797FB1FBD10B54FF4D040C4F2000096
:103B000040F25811C2F2000108600E204860002106
:103B100040F25810C2F200008160C1604FF44031A1
:103B20000161002141610176012141760021817608
:103B3000C17601774177FDF7BFFF08B1FDF771FB53
:103B400010BD08B500BF0020009043F63000C4F25D
:103B50000200006840F4800043F63001C4F2020124
:103B600008600846006800F48000009000BF00BFB5
:103B700046F22840C4F2020040F28011C2F2000175
:103B8000086000204860802140F28010C2F20000EE
:103B900081608900C160490001610021416181614A
:103BA000C161016204214162032181620021C1627D
:103BB0000163FEF759FA08B1FDF733FB0022114605
:103BC0003920FEF783FC3920FEF772FC08BD00B5F2
:103BD00087B0142102A8FCF73FFB00BF0020019032
:103BE00043F63000C4F20200006840F0040043F6DF
:103BF0003001C4F2020108600846006800F00400C9
:103C0000019000BF00BF00BF00200190084600687F
:103C100040F0800008600846006800F080000190D5
:103C200000BF00BF00BF002001900846006840F0C0
:103C3000010008600846006800F00100019000BF24
:103C400000BF00BF002001900846006840F010004F
:103C500008600846006800F01000019000BF00BF37
:103C600000BF002001900846006840F00200086094
:103C70000846006800F00200019000BF00BF00BFCE
:103C8000002001900846006840F0080008600846DF
:103C9000006800F00800019000BF00BF0022602112
:103CA0000020C4F20200FEF787FB00224FF48E4191
:103CB0004FF48060C4F20200FEF77EFB60200290A9
:103CC0000120039000200490059002A90020C4F276
:103CD0000200FEF753FA4FF488400290012003904F
:103CE00000200490059002A94FF48060C4F2020005
:103CF000FEF744FA4FF4084002900020039004902D
:103D000002A94FF48060C4F20200FEF737FAF020F7
:103D10000290002003900120049002A94FF440601B
:103D2000C4F20200FEF72AFA4FF44070029011200C
:103D30000390012004900220059002A94FF48060B6
:103D4000C4F20200FEF71AFA07B000BD00B595B044
:103D5000002011901290139014900F9010901C213D
:103D600008A8FCF779FA20216846FCF775FA0020CC
:103D7000C4F2010040F2E011C2F200010860A72085
:103D80004860002140F2E010C2F20000816044F679
:103D90001F61C1600021016141618161FEF7E5FFA2
:103DA00008B1FDF73EFA4FF48050119011A940F28E
:103DB000E010C2F20000FFF724F808B1FDF731FA75
:103DC00040F2E010C2F20000FFF733F908B1FDF74E
:103DD00028FA00200F9010900FA940F2E010C2F2D4
:103DE0000000FEF775FF08B1FDF71BFA6020089090
:103DF00040F2DC50099000200A900B900C900D903E
:103E00000E90002208A940F2E010C2F20000FFF775
:103E1000A4F808B1FDF705FA042208A940F2E01061
:103E2000C2F20000FFF799F808B1FDF7FAF9002097
:103E3000009001900290039004904FF40050059080
:103E400000200790694640F2E010C2F20000FEF741
:103E50000CFF08B1FDF7E5F940F2E010C2F20000F6
:103E6000FFF744F815B000BD10B54FF49840C4F208
:103E7000000040F22821C2F2000108604FF4E13056
:103E80004860002140F22820C2F200008160C16039
:103E900001610C21416100218161C161FFF7ABFA31
:103EA00008B1FDF7BEF910BD10B54FF48050C4F253
:103EB000010040F27021C2F2000108604FF4E130CD
:103EC0004860002140F27020C2F200008160C160B1
:103ED00001610C21416100218161C161FFF78BFA11
:103EE00008B1FDF79EF910BD00BFFEE77047002046
:103EF0000FE0002109E0002240F23443C2F2000347
:103F000003EBC0135A544A1CD1B28029F3DB421C84
:103F1000D0B20828EDDB70472DE9F04304460D468A
:103F200016461F4628463CE0224635E0002A31DB93
:103F30007F2A2FDC00282DDB3F282BDC4FEAE07C9A
:103F400000EB5C7C4FEAEC0C40F23448C2F2000813
:103F500008EBCC1C1CF802C003464FEAE07800EBEB
:103F600058784FEAE808A0EBC8094FF0010808FAB2
:103F700009F82CEA080C01464FEAE07800EB587883
:103F80004FEAE80840F23449C2F2000909EBC818C8
:103F900008F802C0511C0AB2A1199142C6DC411CAA
:103FA00008B2E9198142BFDCBDE8F08330B587B0C3
:103FB000142102A8FCF750F9002406E0002500E0D7
:103FC0006D1CB5F57A7FFBD3641CB4F57A7FF5D30D
:103FD00000BF0020019043F63000C4F202000068E8
:103FE00040F0020043F63001C4F2020108600846C6
:103FF000006800F00200019000BF00BF0122891597
:104000004FF48060C4F20200FEF7D6F9012251029B
:104010004FF48060C4F20200FEF7CEF94FF48070D6
:10402000029011200390012004900220059002A923
:104030004FF48060C4F20200FEF7A0F84FF4007065
:10404000029002A94FF48060C4F20200FEF796F8D5
:10405000012000F038FA012000F041FA07B030BD2D
:1040600070B50546002417E080212141294009B19F
:10407000012100E00021084600F031FA012000F0A3
:1040800022FA042002F087FB002000F01CFA042032
:1040900002F081FB601CC4B2082CE5DB012000F0BB
:1040A00012FA002000F00FFA70BD10B5012000F0E8
:1040B00016FA012000F007FA042002F06CFB002041
:1040C00000F00DFA042002F066FB002000F0FBF97E
:1040D000042002F060FB10BD10B5002000F0FFF9D5
:1040E000012000F0F0F9042002F055FB012000F05F
:1040F000F6F9042002F04FFB10BD10B5FFF756FF94
:10410000AE2000F0F8F9D52000F0F5F9802000F09D
:10411000F2F9A82000F0EFF93F2000F0ECF9D320ED
:1041200000F0E9F9002000F0E6F9402000F0E3F9A2
:10413000A12000F0E0F9C82000F0DDF9DA2000F05D
:10414000DAF9122000F0D7F9812000F0D4F9CF205D
:1041500000F0D1F9D92000F0CEF9F12000F0CBF930
:10416000DB2000F0C8F9302000F0C5F9A42000F0F1
:10417000C2F9A62000F0BFF98D2000F0BCF9142090
:1041800000F0B9F9AF2000F0B6F9FFF7B0FE00F08B
:1041900085F910BD10B50246012000E050430B1E0A
:1041A000A1F10101FAD110BD70B505460C4645F0EC
:1041B000B00000F0A0F9102141EA141000F09BF9C2
:1041C00004F00F0000F097F970BDF8B506460F46F1
:1041D00014461D46082D0FD1A4F1200046F6C471E7
:1041E000C0F6000101EB00101023082239460090B0
:1041F000304600F015F812E0062D10D1A4F1200091
:1042000000EB400047F2B451C0F6000101EB400062
:104210000823062239460090304600F001F8F8BD28
:104220002DE9FF4F80460E469146DDF834B000255B
:1042300000244A4631464046039BFFF76DFE00BF0F
:104240006AE0002564E008EB050000285EDB08EB6F
:1042500005007F285ADC3046F11706EB5171C91072
:104260000FB2F11706EB5171C910A6EBC10A002E6F
:1042700005DA781E07B20AF108000FFA80FA381939
:1042800000281DDB381907281ADC381940F23441A0
:10429000C2F2000101EBC01008EB0501405C04FB19
:1042A00009511BF8011001FA0AF10843391940F2CB
:1042B0003442C2F2000202EBC11108EB050288543D
:1042C0003819401C002821DB3819401C07281DDC48
:1042D0003819401C40F23441C2F2000101EBC01019
:1042E00008EB0501405C04FB09511BF80110CAF101
:1042F0000802114108433919491C40F23442C2F204
:10430000000202EBC11108EB05028854681CC5B21B
:104310004D4598DB601CC4B20399481EC11700EBE1
:104320005171012202EBE101A1428ADCBDE8FF8F5D
:104330002DE9F0470646894617461D46DDF82080E0
:10434000002417E0281B411E0A20FFF723FFB7FBBC
:10435000F0F00A21B0FBF1F201FB120000F1300A8B
:1043600004FB086108B2434652464946FFF72DFF59
:10437000601CC4B2AC42E5DBBDE8F0872DE9FE4F1E
:1043800007468A46144698460025AB4600267EE03E
:10439000605D00F0800058B94FF0010B2846691CA1
:1043A0008DB2205C8DF8040000208DF8050013E02C
:1043B0004FF0020B2846691C8DB2205C8DF804007A
:1043C000605D00B967E02846691C8DB2205C8DF8FD
:1043D000050000208DF80600BBF1010F0BD19DF800
:1043E0000420B91908B243465146FFF7EEFE06EB2A
:1043F000080086B24BE04FF0000911E0C9EBC9019B
:1044000001EB810147F2EE72C0F60002881801A9A3
:10441000FBF734FF00B914E009F101001FFA80F93D
:10442000C9EBC90101EB810147F2EE72C0F600024F
:10443000881848F63C61C0F60001FBF71FFF002812
:10444000DCD100BFB8F1080F15D1C9EBC90000EBF2
:10445000800047F2EE71C0F600010844C01CB91993
:10446000009008B210231A465146FFF7D9FE06F114
:10447000100086B20BE0B8F1060F08D1B91908B2E6
:1044800006233F225146FFF7A0FEB01D86B2605DB5
:1044900000287FF47DAF00BFBDE8FE8F10B500247B
:1044A0000EE000212046FFF77FFE40F23441C2F2C9
:1044B000000101EBC410802100F02DF8601CC4B293
:1044C000082CEEDB10BD10B5044622464FF4807177
:1044D0004FF48060C4F20200FDF76EFF10BD10B50E
:1044E000044622464FF400714FF48060C4F202008B
:1044F000FDF762FF10BD10B50446FFF7D6FD78202A
:10450000FFF7AEFD0020FFF7ABFD2046FFF7A8FD4B
:10451000FFF7E2FD10BD70B505460E46FFF7C5FD7D
:104520007820FFF79DFD4020FFF79AFD002404E06E
:10453000285DFFF795FD601CC4B2B442F8DBFFF7BD
:10454000CBFD70BD10B58221002000F0B7FB10BD7F
:1045500010B50021084600F0B1FB10BD704710B542
:1045600040F28900C2F20000007801287CD141F2BB
:104570000811C2F2000148F6B840C0F60000FCF78E
:1045800032FC032248F6C841C0F6000141F208108F
:10459000C2F20000FBF780FEB0BB48F6CC40C0F68C
:1045A0000000FCF720FCFCF7BEFB012040F20001FC
:1045B000C2F200010870FFF79AFC082348F6E042B7
:1045C000C0F6000210210020FFF7D8FE082348F6AD
:1045D000F042C0F6000220210020FFF7CFFE40F29B
:1045E0000000C2F2000000783030C2B2082320215F
:1045F0003020FFF7EAFDFFF751FF48F6F840C0F61C
:10460000000001F067FAD2E0FFE7032248F6085104
:10461000C0F6000141F20810C2F20000FBF73CFEB8
:1046200090BB48F60C50C0F60000FCF7DCFBFCF732
:1046300059FB012040F20001C2F200010870FFF7AF
:1046400056FC082348F62052C0F600021021002034
:10465000FFF794FE082348F6F042C0F6000220213E
:104660000020FFF78BFE00E0AEE040F20000C2F257
:10467000000000783030C2B2082320213020FFF73C
:10468000A4FDFFF70BFF92E0FFE7032248F630514D
:10469000C0F6000141F20810C2F20000FBF7FCFD79
:1046A000C0BB48F63450C0F60000FCF79CFBFCF79A
:1046B00055FB002040F20001C2F200010870FFF734
:1046C00016FC0021022000F051FB0021012000F027
:1046D0004DFB082348F64C52C0F600021021002082
:1046E000FFF74CFE082348F6F042C0F600022021F6
:1046F0000020FFF743FE40F20000C2F20000007805
:104700003030C2B2082320213020FFF75EFDFFF7D2
:10471000C5FE4CE0FFE7032248F65C51C0F60001FD
:1047200041F20810C2F20000FBF7B6FDC0BB48F62C
:104730006050C0F60000FCF756FBFCF7C7FA0020FB
:1047400040F20001C2F2000108700021022000F0D6
:104750000DFB0021012000F009FBFFF7C8FB082337
:1047600048F67452C0F6000210210020FFF706FE42
:10477000082348F6F042C0F6000220210020FFF78F
:10478000FDFD40F20000C2F2000000783030C2B2FD
:10479000082320213020FFF718FDFFF77FFE06E0F9
:1047A000FFE748F68450C0F60000FCF71CFB002031
:1047B00040F28901C2F200010870962141F208100E
:1047C000C2F20000FBF748FD10BD10B50022202109
:1047D0000020C4F20200FDF7EFFD0022402100207E
:1047E000C4F20200FDF7E8FD10BD10B540F2A030A4
:1047F000C2F2000090F86E0058B10020FCF779FC7E
:10480000FCF7DAFB002040F2A031C2F2000181F88F
:104810006E00012010BD00B52DED068B87B040F273
:10482000B820C2F20000007D18B107B0BDEC068BC5
:1048300000BD40F2B820C2F2000040780F287ED2BE
:1048400048F66061C0F60001D1E800F0FCF7A6FA76
:1048500000F02AFC00F04DFC0120FCF711F948F6AD
:10486000E010C0F6000001F035F948F6E010C0F69F
:104870000000FCF7CAFAF7E1FCF736F8D0B140F2D5
:10488000B820C2F20000D0ED0E0AB0EE600A01209E
:1048900000F08DFA0121022000F068FA48F60020AD
:1048A000C0F6000001F016F948F63020C0F600000E
:1048B000FCF7ABFA40F2B821C2F20001086DFCF738
:1048C00079FAA8B1012000F0D2FB0021022000F00B
:1048D0004DFA48F64C20C0F6000001F0FBF848F60F
:1048E0006820C0F60000FCF790FA0220FCF7C8F838
:1048F000BAE1FBF7F9FFB0B140F2B820C2F2000014
:10490000D0ED0F0AB0EE600A022000F050FA48F62F
:104910008020C0F6000001F0DDF848F6A820C0F6BF
:104920000000FCF772FA40F2B821C2F20001886C74
:10493000FCF740FA10B10320FCF7A2F894E18FE1F4
:10494000FBF7D2FF78B10121084600F00FFA48F6D4
:10495000C820C0F6000001F0BDF848F6EC20C0F613
:104960000000FCF752FA40F2B821C2F20001486D93
:10497000FCF720FAA8B1022000F079FB0021012009
:1049800000F0F4F948F60830C0F6000001F0A2F893
:1049900048F62830C0F60000FCF737FA0420FCF790
:1049A0006FF861E1FBF7A0FF58B100F07DFB00F06C
:1049B000A0FBFCF77BF948F64030C0F60000FCF79E
:1049C00024FA40F2B821C2F20001886DFCF7F2F936
:1049D000002867D0002006900590049004AA05A93D
:1049E00006A8FCF766F880B30698FBF7ECFD41ECEF
:1049F000180B0498FBF7E7FD41EC190B0598FBF742
:104A0000E2FD41EC1A0B8DED028B8DED009B53EC1A
:104A10001A2B48F65C30C0F6000001F05BF80698EF
:104A2000FBF7D1FD41EC180B0498FBF7CCFD41ECF2
:104A3000190B05980AE004E1F0E0E3E0CCE0BFE008
:104A4000AAE09DE075E059E02DE02AE0FBF7BBFD10
:104A500041EC1A0B8DED028B8DED009B53EC1A2B64
:104A600048F65C30C0F60000FCF7BDF9082348F6B4
:104A70009832C0F6000230210020FFF77FFC0820AA
:104A8000052300909DED060ABCEEC00A10EE102A28
:104A900030211020FFF74CFCFFF700FD0520FBF74D
:104AA000EFFF00BFE0E0FBF71FFFC8B140F2B82006
:104AB000C2F2000090ED111AF0EE410A90ED101ACA
:104AC000B0EE410A00F0CDF948F69C30C0F6000087
:104AD00001F000F848F69C30C0F60000FCF795F9AC
:104AE00040F2B821C2F20001886EFCF763F920B1F0
:104AF00000F0DAFA0620FBF7C3FFB5E0FBF7F4FE9F
:104B000038B1FFF71FFD48F6C030C0F60000FCF7D3
:104B10007CF940F2B821C2F20001C86EFCF74AF9F4
:104B200030B100F0E6FAFFF713FD0720FBF7A8FF0E
:104B30009AE0FBF7D9FEA8B140F2B820C2F200001B
:104B4000D0ED100AB0EE600A00F025FA48F6E03029
:104B5000C0F6000000F0BEFF48F6E030C0F60000EE
:104B6000FCF753F940F2B821C2F20001086FFCF7DC
:104B700021F920B100F098FA0820FBF781FF73E0DB
:104B800040F2B821C2F20001486FFCF713F910B1EE
:104B90000120FBF775FF67E0FBF7A6FE78B148F64A
:104BA0000440C0F6000000F095FF012000F05FFA1D
:104BB0000021022000F0DAF80A20FBF761FF53E041
:104BC00040F2B821C2F20001C86CFCF7F3F810B152
:104BD0000B20FBF755FF47E0FBF786FE88B148F650
:104BE0002C40C0F6000000F075FF022000F03FFAF4
:104BF0000021012000F0BAF8FFF7AAFC0C20FBF717
:104C00003FFF31E040F2B821C2F20001C86CFCF76E
:104C1000D1F810B10D20FBF733FF25E0FBF764FE60
:104C200070B148F65440C0F6000000F053FF00F0A9
:104C30003BFA00F05EFAFCF7B1F80E20FBF720FF1C
:104C400012E0FCF7ABF800F02FFA00F052FA002067
:104C500040F2B821C2F200010870FBF711FF03E037
:104C60000020FBF70DFF00BF00BF00BFDDE5704770
:104C7000704710B500F003F8FFF76AFC10BD10B5DF
:104C8000002140F2E010C2F20000FEF701FA40F20B
:104C9000E010C2F200000068406C40F4004040F2B6
:104CA000E011C2F200010968486440F28C00C2F2CF
:104CB00000008188002000F030F810BD70B5064675
:104CC0000B4640F28C00C2F20000C088984204DA21
:104CD00040F28C00C2F20000C38840F28C00C2F2A5
:104CE0000000408840F28C01C2F200010988441A99
:104CF00003FB04F040F28C01C2F20001C988B0FB52
:104D0000F1F040F28C01C2F200010988084485B23A
:104D10002946304600F001F870BD40F28C02C2F224
:104D2000000212888A4204DD40F28C02C2F20002C4
:104D3000118840F28C02C2F2000252888A4204DAE0
:104D400040F28C02C2F20002518810B101280AD14F
:104D500004E00022C4F20102516305E00022C4F223
:104D60000102916300E000BF00BF704770B50446C8
:104D70000D46012D01D1012000E000200646012C46
:104D800002D0022C10D107E0324620210020C4F2CC
:104D90000200FDF711FB08E0324640210020C4F27A
:104DA0000200FDF709FB00E000BF00BF70BDF0B5D9
:104DB0002DED028B81B00746B0EE408A40F2A03064
:104DC000C2F2000090F86E0020B1002001B0BDECEE
:104DD000028BF0BD3846FCF726FA04460CB90020D9
:104DE000F4E76089B0EE480AFCF72AF80546E08A45
:104DF000B0EE480AFCF724F8064600EE105AB8EE6A
:104E0000400A84ED070AE580668201212171217440
:104E1000A078FCF7FCF9A07BFCF7F9F9012040F23F
:104E2000A032C2F20002009092F86C30E178A078D3
:104E30002A46FCF7C5F9FCF7BFF8012040F2A03282
:104E4000C2F20002009092F86C30E17BA07B324607
:104E5000FCF7B6F9FCF7B0F80020FCF798F9012050
:104E6000B4E710B52DED028BB0EE408AF0EE608A0B
:104E7000F0EE680AB0EE480A00F003F8BDEC028BD1
:104E800010BD30B52DED028B83B0B0EE408AF0EE50
:104E9000608A40F2A030C2F2000090F86E0020B1AB
:104EA000002003B0BDEC028B30BD4FF47A70B0EE41
:104EB000480AFBF7C5FF054640F2A031C2F20001E7
:104EC000B1F86800B3EE0E0AFBF7BAFF04462946B4
:104ED000012000F040FD012140F2A030C2F20000AC
:104EE00080F86110A0F8644080F86210014691F8E3
:104EF0004000FCF78CF940F2A031C2F2000191F8B9
:104F00004C00FCF784F940F2A031C2F2000191F8A4
:104F10006000FCF77CF90120002149F62822C0F24C
:104F20000102CDE90021029040F2A031C2F200015D
:104F300091F8400000232A460121FCF7A7F8FCF76E
:104F40003BF80120002149F62822C0F20102CDE9F8
:104F50000021029040F2A031C2F2000191F84C0011
:104F600000232A460121FCF791F8FCF725F80020E0
:104F700040F2A031C2F20001009091F860000523D8
:104F800022460121FCF71CF9FCF716F80020FCF77B
:104F9000FEF8012085E710B52DED028BB0EE408ABA
:104FA000B0EE480A002000F003F8BDEC028B10BD03
:104FB00030B52DED028B83B00446B0EE408A40F24E
:104FC000A030C2F2000090F86E0020B1002003B0C3
:104FD000BDEC028B30BD4FF47A70B0EE480AFBF79F
:104FE0002FFF05462946204600F0B5FC40F2A031CF
:104FF000C2F2000191F84000FCF709F940F2A0313B
:10500000C2F2000191F84C00FCF701F901200021E7
:1050100049F62822C0F20102CDE90021029040F2B7
:10502000A031C2F2000191F8400000232A46214637
:10503000FCF72CF8FBF7C0FF0120002149F62822DD
:10504000C0F20102CDE90021029040F2A031C2F28B
:10505000000191F84C0000232A462146FCF716F87F
:10506000FBF7AAFF0020FCF792F80120AFE770B52C
:1050700005462846FCF7D7F804460CB9002070BD59
:10508000002121712174E18061820020E061A0781B
:10509000FCF761F8FBF790FFA07B0021FCF75BF8C1
:1050A000FBF78AFF0120EAE710B5002140F2A030AB
:1050B000C2F2000080F8421080F84E10A0F84410B0
:1050C000A0F8501080F85E10014691F840000021D1
:1050D000FCF741F8FBF770FF40F2A031C2F200018B
:1050E00091F84C000021FCF736F8FBF765FF012032
:1050F00010BD10B5002140F2A030C2F2000080F8CF
:105100006210A0F86410014691F860000021FCF7DD
:1051100022F8FBF751FF012010BD10B50120FFF769
:10512000A6FF0220FFF7A3FFFFF7BEFFFFF7E1FF97
:1051300010BD10B5FDF74DF910BD00B593B030218D
:1051400007A8FBF789F8142102A8FBF785F800BF30
:10515000002001904FF46150C4F20200006840F05A
:1051600080504FF46151C4F20201086008460068A3
:1051700000F08050019000BF00BF00BF00200190F0
:105180004FF4E040C4F20000006840F480404FF467
:10519000E041C4F2000108600846006800F4804065
:1051A000019000BF00BF0220079001200A9010204C
:1051B0000B9002200D9000210E9108210F91A82143
:1051C0001091022111910421129107A8FDF7E9FA2B
:1051D00008B1FCF726F80F2002900220039000206F
:1051E00004904FF4A05005904FF480500690052194
:1051F00002A8FDF7B1F908B1FCF713F813B000BD30
:105200004EF68850CEF20000006840F470004EF672
:105210008851CEF2000108604FF000604EF6085150
:10522000CEF2000108607047F0B402684FF0000C45
:10523000C4F2010C4FF480644FF400654FF44066F3
:105240004FF48063C4F20004C4F20005C4F2000607
:10525000C4F2010360450AD0B0F1804F07D0A042EC
:1052600005D0A84203D0B04201D0984203D122F029
:1052700070024F683A43604528D0B0F1804F25D086
:10528000A04223D0A84221D0B0421FD098421DD0C6
:10529000A0F18044B4F5A03418D0A0F18044B4F556
:1052A000A23413D0A0F18044B4F5A4340ED0A0F100
:1052B0008044B4F5C05409D0A0F18044B4F5E05462
:1052C00004D0A0F18044B4F5005403D122F440721C
:1052D000CC6822434C6922F0800222438C68C4626D
:1052E0000C688462604501D0984201D1096901636C
:1052F000016841F004010160012141610260F0BCDC
:10530000704701F01F0101238B40D0F820C02CEA28
:1053100003030362036A02FA01F119430162704751
:10532000D0F808C02CF47F4C42EA0322114341EA32
:105330000C0181607047826822F07002114341F0D5
:1053400007018160704770B4026A036A23F00103A9
:1053500003624368D0F818C02CF0700C2CF0030CDA
:105360000C6844EA0C0C22F002028C6822430024F0
:10537000C4F201044FF48065C4F20105A04201D0DB
:10538000A84205D122F00802CE68324322F004027E
:10539000A04201D0A84207D123F4807323F4007304
:1053A0004C6923438C6923434360C0F818C04968A3
:1053B0004163026270BC704770B4026A036A23F0F2
:1053C000100303624368D0F818C02CF4E04C2CF4AE
:1053D000407C0C684CEA042C22F020028C6842EAE3
:1053E00004120024C4F201044FF48065C4F20105E4
:1053F000A04201D0A84206D122F08002CE6842EA43
:10540000061222F04002A04201D0A84209D123F4A2
:10541000806323F400634C6943EA84038C6943EAA4
:1054200084034360C0F818C049688163026270BC9D
:10543000704770B4026A036A23F48073036243689E
:10544000D0F81CC02CF0700C2CF0030C0C6844EA53
:105450000C0C22F400728C6842EA04220024C4F28C
:1054600001044FF48065C4F20105A04201D0A842B6
:1054700006D122F40062CE6842EA062222F480625B
:10548000A04201D0A84209D123F4805323F4005351
:105490004C6943EA04138C6943EA04134360C0F87F
:1054A0001CC04968C163026270BC704710B4036AD3
:1054B000026A22F4805202624268D0F81CC02CF4C6
:1054C000E04C2CF4407C0C684CEA042C23F4005390
:1054D0008C6843EA0433A0F18044B4F5803404D0EE
:1054E000A0F18044B4F5823404D122F480424C69A6
:1054F00042EA84124260C0F81CC049680164036239
:1055000010BC7047036AD0F820C02CF0010CC0F822
:1055100020C0D0F818C02CF0F00C4CEA021223F096
:105520000A031943826101627047036AD0F820C000
:105530002CF0100CC0F820C0D0F818C02CF4704C1F
:105540004CEA023223F0A00343EA011182610162B6
:10555000704710B540F22820C2F20000FDF709FEA6
:1055600010BD10B5806B0021C185FDF701FE10BD97
:1055700001680C3151E8002F22F4907241E80023B9
:10558000002BF5D10168143151E8002F22F00102FF
:1055900041E80023002BF5D1016B012909D10168F5
:1055A0000C3151E8002F22F0100241E80023002BBB
:1055B000F5D1202180F8421000210163704710B519
:1055C0000168CA6822F04002CA60202180F84110B8
:1055D000FEF7E5F8002010BD08B590F8421022292A
:1055E00001D0022008BD8268B2F5805F01D1016957
:1055F00029B1816AB2F5805F1DD052B10BE0816A9A
:1056000002685268C2F308020A80816A891C8162BA
:1056100009E002697AB10268526802F07F020A70FA
:10562000816A491C8162C18D491E0904090CC1852A
:1056300005D0002008BD026852680A70F0E70168D2
:10564000CA6822F02002CA600168CA6822F4807227
:10565000CA6001684A6922F001024A61202180F88B
:10566000421000214163026B012A03D0FDF7C5FF00
:10567000002008BD016301680C3151E8002F22F0C1
:10568000100241E80023002BF5D101680A6812F0EE
:10569000100F02D00A6849680091818DFDF767FDFF
:1056A000E6E72DE9F041044620680169E26821F44B
:1056B0004051114301612169A068E26908436169B1
:1056C000114301432068C26822F4037222F4144299
:1056D0001143C16020684169A26921F440711143FE
:1056E00041612068A0F18041B1F5883131D0A0F14D
:1056F0008041B1F58A312CD0FCF7F6FF8446E16990
:105700000020192748F21F553226C5F2EB15B1F5D6
:10571000004F22D06068830F8200ACFB0701FAF7CC
:1057200051FD0146A5FB002040097A42424301EBAE
:10573000820106EB0111A5FB0121490901F0F002EC
:1057400002EB001001F00F01084421688860BDE8F9
:10575000F081FCF7DAFF8446D1E761684A1840EB34
:105760000003ACFB0701FAF72DFD0346A5FB001073
:10577000410918460A016FF01803594300EB8100F4
:1057800006EBC000A5FB0010400900F0F80102EB99
:10579000410100F00700084421688860BDE8F081FD
:1057A00081628285C28500214164222180F84210F5
:1057B0000169002904D00168CA6842F48072CA6095
:1057C00001684A6942F001024A610068C16841F01B
:1057D0002001C1600020704790F84110212901D0BC
:1057E000022070478168B1F5805F01D1016961B124
:1057F000016A4A1C0262026809785160C18C491E24
:105800000904090CC1840AD013E0016A02680988FE
:10581000C1F308015160016A891C0162EEE7016869
:10582000CA6822F08002CA600068C16841F0400185
:10583000C160002070472DE9F8430446089E0D46DC
:10584000174698462068006835EA000028D00020F6
:10585000B84232D1B6F1FF3F27D0FCF7B4FDA0EB40
:105860000800B0421ED8EEB12068C16811F0040FE4
:105870001BD0802D19D0402D17D0016811F0080FD2
:1058800013D0002521680968406800902046FFF782
:105890006FFE0820606484F840500120BDE8F88362
:1058A0000120D5E70320BDE8F8832068006835EAC9
:1058B000000005D00020B842CCD00020BDE8F8831D
:1058C0000120F8E710B540F27020C2F20000FDF7A9
:1058D00050FC10BD00B591B0002006909DF8180056
:1058E000401103909DF818004FF6FF7101EAC020A7
:1058F000001D0490002005909DF8140040110190B7
:105900009DF8140001EAC020001D02900E200C90AA
:1059100000200D9001200E90BDF80C000790BDF8FE
:1059200010000890BDF804000990BDF808000A9026
:1059300000200B9001200F900E20109007A940F23C
:105940005810C2F20000FBF73BFE10B1002011B06E
:1059500000BD0120FBE740F2A032C2F2000282F853
:10596000410082F84D00A2F84410A2F85010012323
:1059700082F8423082F84E30A2F85C1049F62823B3
:10598000C0F201039365012382F85E30704700BFC7
:10599000FEE77CB548F69851C0F6000103C9CDE991
:1059A0000001702140F2A030C2F20000FAF754FC6E
:1059B000142040F2A031C2F2000181F86C000120F5
:1059C0000870022081F8200000234FF4FA620121C0
:1059D00040F2A230C2F20000FBF750FA00234FF46D
:1059E000FA62022140F2AE30C2F20000FBF746FA42
:1059F00001234FF4FA62032140F2C230C2F20000E8
:105A0000FBF73CFA00234FF4FA62042140F2CE3057
:105A1000C2F20000FBF732FA01234FF47A7205213B
:105A200040F2E030C2F20000FBF728FA01234FF405
:105A30007A72062140F2EC30C2F20000FBF71EFA47
:105A400049F62821C0F2010140F2A030C2F2000064
:105A5000816501234FF47A7207216030FBF70EFA5B
:105A60004FF47A70FCF776FB002419E01DF804501F
:105A70002846FBF73EFB9620FCF76CFB0122002139
:105A80002846FBF7E5FA9620FCF764FB002201218B
:105A90002846FBF7BFFA9620FCF75CFB601CC4B2FB
:105AA000072CE3DB002407E01DF80400FBF73AFBBA
:105AB000FBF782FA601CC4B2072CF5DB012040F230
:105AC000A031C2F2000181F86D00002081F86E0063
:105AD0007CBD00000FB4054B10B503A9044A029821
