:020000040800F2
:1000000098200020A1010008CB3E000827370008F7
:100010009F3E0008E70A0008C35A000800000000DD
:10002000000000000000000000000000514C00082B
:10003000190C0008000000009B440008FD4F000858
:10004000BB010008BB010008BB010008BB010008A0
:10005000BB010008BB010008BB010008BB01000890
:10006000BB010008BB010008BB010008BB01000880
:10007000BB010008BB010008BB010008BB01000870
:10008000BB010008BB010008BB010008BB01000860
:10009000EB0A0008BB010008BB010008BB01000817
:1000A000BB010008BB010008BB010008BB01000840
:1000B000BB010008BB010008BB010008BB01000830
:1000C000BB010008BB010008BB010008BB01000820
:1000D000BB0100083B5900084B590008BB01000850
:1000E000BB010008BB010008BB010008BB01000800
:1000F000BB010008BB010008BB010008BB010008F0
:10010000BB010008BB010008BB010008BB010008DF
:10011000FF530008BB010008BB010008BB01000839
:10012000BB010008FB0A00080B0B0008BB0100081C
:10013000BB010008BB010008BB010008BB010008AF
:10014000BB010008BB010008BB010008BB0100089F
:10015000BB0100081B0B0008BB010008315A000856
:10016000BB010008BB010008BB010008BB0100087F
:10017000BB010008BB010008BB0100080000000033
:10018000BB010008BB010008DFF810D000F0F0FA56
:1001900000480047636E0008AFF3008098200020FD
:1001A0000648804706480047FEE7FEE7FEE7FEE711
:1001B000FEE7FEE7FEE7FEE7FEE7FEE7CB500008BE
:1001C000890100082DE9F05F0546002092469B4614
:1001D00088460646814640241BE02846414647465D
:1001E000224600F02EFA53465A46C01A914110D3C7
:1001F00011461846224600F015FA2D1A67EB010841
:100200004F4622460120002100F00CFA17EB0009AE
:100210004E41201EA4F10104DFDC484631462A4647
:100220004346BDE8F09FD2B201E000F8012B491E21
:10023000FBD270470022F6E710B513460A46044683
:100240001946FFF7F0FF204610BD421C10F8011BB5
:100250000029FBD1801A704710B5002200E0521C23
:10026000835C8C5CA34201D1002BF8D1D8B2E1B2FF
:10027000401A10BD30B505460020034600E05B1C67
:10028000934205D2EC5CC85C201A01D1002CF6D157
:1002900030BD2DE9FE4F804681EA0300C00F0C46B9
:1002A000009021F0004123F00045B8EB0200A94185
:1002B00005D24046214690461C460B46024623F096
:1002C0000040104347D0270DC7F30A00C3F30A517B
:1002D0000290401A019040286BDAC3F3130040F4F7
:1002E000801B0098924620B10023D2EB030A63EBF7
:1002F0000B0B01985946C0F14002504600F092F9AC
:1003000006460D4650465946019A00F0AAF910EBF0
:1003100008006141002487EA115284EAE7731A4316
:1003200040D0009A62B3019A012A4FEA075215DCC5
:10033000001B61EB02014FF0004202EA0752CDE9D7
:100340000042001C41F5801132462B4600F0AAF90C
:1003500003B0BDE8F08F40462146F9E7001B61EB92
:100360000201001C41F5801300185B412018A2F522
:10037000001747EB030140EAD570B6196D4111E053
:100380006D084FEA360645EAC0754FEA0752001B72
:1003900061EB0201001C41F5801149084FEA300071
:1003A0000019514132462B4603B0BDE8F04F00F032
:1003B0006AB90098012240000023D0EB020263EBEF
:1003C000E073009821464FEAE074B8EB000061EB5F
:1003D0000401E9E783F000435BE781F0004158E75F
:1003E0002DE9FE4F81EA030404F0004421F00041AE
:1003F00000944FF0000B23F0004350EA01045ED05C
:1004000052EA03045BD0C3F30A54C1F30A552C44E7
:10041000A4F2F3340194A0FB0254C1F3130141F49C
:100420008011C3F3130343F4801301FB024400FB68
:10043000034E840A970A44EA815447EA8357A4FB8F
:10044000076802958D0A05FB07854FEA932C04FB8C
:100450000C542705029D4FEA065847EA1637B5EBBC
:1004600008056EEB070C870E920E47EA811742EAE9
:100470008312A7FB0201B6EB0B0164EB00042B0D0A
:1004800043EA0C335E1844EB1C50DA465146E7FB56
:100490000201C5F313044FEA0B3343EA14534FEA46
:1004A0000432019C43EA0603A4F10C040294009C6C
:1004B000CDE900B400F0F6F803B0BDE8F08F0020FD
:1004C0000146F9E72DE9F04D81EA030404F0004B01
:1004D00021F0004514464FF0000A23F0004150EA95
:1004E000050220D054EA01021DD0C5F30A57024686
:1004F000C5F31303C1F31300C1F30A5640F480158A
:1005000043F48013A7EB0608101BD64608F2FD380B
:1005100073EB050002D308F1010801E092185B417A
:10052000B8F1000F03DA00200146BDE8F08D00208D
:100530004FF48011064684460EE0171B73EB050747
:1005400005D3121B63EB050306434CEA010C490873
:100550004FEA300092185B4150EA0107EDD152EAB0
:10056000030012D082EA040083EA0501084305D0A3
:10057000101BAB4106D20122002306E000224FF0FF
:10058000004302E06FF0010253101AEB06004CEB3F
:10059000085110EB0A0041EB0B01BDE8F04D00F0F3
:1005A00072B800F0004230F000400AD0C10D01F5F1
:1005B0006071C0F3160042EA0151C20840071143BE
:1005C000704700200146704730B5041E71F10004E9
:1005D00004DB4FF00044404264EB0101141E73F150
:1005E000000405DB1C464FF00043524263EB04035A
:1005F000994208BF904230BD30B50B4601460020FD
:100600002022012409E021FA02F59D4205D303FAD4
:1006100002F5491B04FA02F52844151EA2F1010255
:10062000F1DC30BD202A04DB203A00FA02F1002080
:1006300070479140C2F1200320FA03F31943904020
:100640007047202A04DB203A21FA02F0002170478B
:1006500021FA02F3D040C2F120029140084319462A
:100660007047202A06DBCB17203A41FA02F043EA12
:10067000E07306E041FA02F3D040C2F1200291405B
:1006800008431946704710B5141E73F1000408DAC8
:10069000401C41F1000192185B411A4301D120F046
:1006A000010010BD2DE9F04D92469B4611B1B1FA03
:1006B00081F202E0B0FA80F220329046FFF7B2FFFA
:1006C00004460F4640EA0A0041EA0B0153465A46E7
:1006D000084313D0114653EA010019D0C8F1400273
:1006E0005046FFF7AEFF05460E4650465946424675
:1006F000FFF798FF084305D0012004E02046394663
:10070000BDE8F08D0020054346EAE0762C433743F0
:100710000A986305E40AA0EB08000022FD0A44EAF7
:1007200047540A3002D500200146E9E701051019B7
:100730006941DDE9084500196941BDE8F04DA2E7CE
:10074000C1F30A52C1F3130140F2FF3341F48011A7
:100750009A4202DA00200146704740F233439A423F
:10076000A2F2334202DC5242FFF76BBFFFF75ABFDF
:10077000064C074D06E0E06840F0010394E80700EE
:1007800098471034AC42F6D3FFF702FD1C900008E6
:100790003C9000084FF40C51C4F201014A6822F465
:1007A00040324A604A6843681A434A6001684A68AE
:1007B00022F480724A6001684A68036942EA0322AF
:1007C0004A6001684A6822F040724A6001684A68DB
:1007D00083681A434A6001688A6822F400628A606A
:1007E00001688A68C3681A438A60816A6FF0706220
:1007F000D14214D001688A6822F070628A60016870
:100800008A68836A1A438A6001688A6822F04052C3
:100810008A6001688A68C36A1A438A6009E00168CD
:100820008A6822F070628A6001688A6822F0405209
:100830008A6001688A6822F002028A6001688A6818
:10084000037E42EA43028A6090F8201089B1016871
:100850004A6842F400624A6001684A6822F46042D1
:100860004A6001684A68436A5B1E42EA43324A6052
:1008700004E001684A6822F400624A600168CA6ABA
:1008800022F47002CA620168CA6A838B5B1E42EA64
:100890000352CA6201688A6822F400728A600168A1
:1008A0008A6890F8303042EA43228A6001688A6898
:1008B00022F480628A6001688A68406942EA802086
:1008C0008860704710B505F0FEF84C2141F64800ED
:1008D000C2F20000FFF7AEFC002041F64801C2F270
:1008E0000001087048700020C4F2023008614861BD
:1008F00088610020C4F2C820C861086241F28831D2
:1009000041F64800C2F20000C16240F6B83101630E
:100910004FF47A61416342F228318163642141647A
:10092000C821C1630164816448F63040C0F600000C
:1009300005F06CF948F63040C0F6000000F0C2F84F
:1009400010BD10B541F64800C2F2000040680A3000
:1009500041F64801C2F20001486041F2BC70C2F2A7
:10096000000090F87A0090B10846007803280DD076
:100970000320087048F60070C0F6000005F046F944
:1009800048F60070C0F6000000F09CF810BD41F67B
:100990004800C2F20000007830B1012805D00228DA
:1009A00006D0032808D106E007E003F0D4FE04E0F7
:1009B00004F04DF901E000E000BF00BF00BFE5E733
:1009C00041F64800C2F200000078704710B500F010
:1009D00054F9032041F64801C2F20001087010BD2D
:1009E00010B541F64800C2F200000078032813D188
:1009F00003F09AFE002041F64801C2F2000108709F
:100A000048F62470C0F6000005F000F948F624709E
:100A1000C0F6000000F056F810BD41F64800C2F2E2
:100A20000000007840B9012041F64801C2F20001FF
:100A30000870002048700873704710B541F64800F0
:100A4000C2F200000078012814D141F64800C2F239
:100A500000004078082806D041F64800C2F20000A5
:100A6000407808280EDA092041F64801C2F2000158
:100A7000487007E004F09EFA002041F64801C2F2F7
:100A80000001087010BD10B5012240F23801C2F219
:100A9000000140F68400C2F2000002F0ECFC10BD40
:100AA0000FB400B59BB01DA8019002A8019A1C9933
:100AB00005F0BCF80020019002A800F003F81BB07C
:100AC0005DF814FB70B504462046FFF7BEFB85B207
:100AD0004FF47A732A46214640F68400C2F20000A1
:100AE00002F060FD70BD00BFFEE710B540F224606B
:100AF000C2F2000000F03FFD10BD10B540F24C60A6
:100B0000C2F2000001F023F810BD10B540F6141039
:100B1000C2F2000001F01BF810BD10B540F67410D1
:100B2000C2F2000001F013F810BD01684AF6AB23D1
:100B3000CAB2103ACAF6AA23A3FB0232120947F23C
:100B4000A413C0F600039B5CC365032A04D96FF3AA
:100B50000901091D816502E06FF309018165806D5E
:100B60007047014600208A6A8B69002B0FD0B3F5CD
:100B7000005F1DD08AB3012A30D0022A2ED0032A6A
:100B800004D1C96A11F0807F00D0012070471AB1EA
:100B9000012A07D0022AF9D1C96A11F0807FF5D065
:100BA00001207047C96AB1F1C07FFAD101207047B6
:100BB0005AB1012A0BD0022A07D0032AF7D1C96AF9
:100BC000B1F1C07FF3D10120704701207047C96A9D
:100BD00011F0807FFAD001207047FFE701207047B5
:100BE00010B4D0F800C0DCF8004024F48024CCF825
:100BF0000040D0F800C0CCF804308368402B05D00A
:100C0000036899600068C26010BC704703689A600E
:100C10000068C16010BC7047704710B540F63C00DA
:100C2000C2F2000090F84100202806D048F6FC20CF
:100C3000C0F6000004F0EAFF10BD48F62030C0F610
:100C4000000004F0E3FF48F62430C0F6000004F092
:100C5000DDFF48F65430C0F6000004F0D7FF48F638
:100C60007C30C0F6000004F0D1FF48F62430C0F616
:100C7000000004F0CBFF00BFDEE710B5012041F219
:100C8000BC71C2F2000181F87A000021084600F030
:100C90008DF8322001F000F900221146104600F0D4
:100CA00017F8322001F0F8F8002141F2BC70C2F2CE
:100CB00000000171017480F8241080F8301080F871
:100CC000441080F8501080F8621080F86E1010BD4B
:100CD00070B506460C46154641F22440C2F20000AB
:100CE0000670F32041F22441C2F200014870AB20AB
:100CF00088700846C47005716B204871062141F266
:100D00002440C2F2000005F036FD70BD70B5064605
:100D10000C46154641F25450C2F2000006704620BF
:100D200041F25451C2F200014870692088700846AF
:100D3000C47005716B204871062141F25450C2F213
:100D4000000005F018FD70BD10B5044641F2042006
:100D5000C2F2000004700E2041F20421C2F2000130
:100D60004870522088706B20C870042141F2042022
:100D7000C2F2000005F0FFFC10BD10B5044641F2C0
:100D8000F410C2F2000004700A2041F2F411C2F221
:100D9000000148706D2088706B20C870042141F2FA
:100DA000F410C2F2000005F0E6FC10BD70B5054677
:100DB0000C4641F25440C2F200000570FE2041F2A0
:100DC0005441C2F200014870982088700846C470EF
:100DD0006B200871052141F25440C2F2000005F079
:100DE000CAFC70BD10B5044641F26440C2F2000076
:100DF0000470FF2041F26441C2F200014870662095
:100E000088706B20C870042141F26440C2F2000077
:100E100005F0B1FC10BD2DE9F04105460F46144622
:100E20001E46DDF8188041F23440C2F20000057021
:100E3000F62041F23441C2F2000148700846877042
:100E40002012C8700C710846467180F806806B202D
:100E5000C871082141F23440C2F2000005F08BFC59
:100E6000BDE8F08100BFFEE70146012904D0022958
:100E700007D003290FD109E041F2BC70C2F2000093
:100E8000704741F2DC70C2F20000F9E741F2FC70F9
:100E9000C2F20000F4E70020F2E710B502F0EFFB29
:100EA00041F63801C2F20001486010BD10B502F0F1
:100EB000E6FB41F63801C2F200010860084600680E
:100EC00018B9084690ED030A10BD41F63800C2F289
:100ED0000000006841F63801C2F20001496888420A
:100EE0001FD941F63800C2F20000006841F638010F
:100EF000C2F200014968401A41F63801C2F200010D
:100F00008860084690ED020AF8EEC00A0020C4F29C
:100F10004F3000EE100A80EE801A084680ED031A6A
:100F200005E0002041F63801C2F20001C86041F638
:100F30003800C2F2000090ED030AC5E738B44FF064
:100F4000000CCDF800C090F83C20012A1BD00122F3
:100F500080F83C200A680724092A17D90368DD684D
:100F60000A3A02EB420204FA02F225EA0202DA60CD
:100F70000A788B680A3A02EB420293400268D4680E
:100F80002343D36014E038BC0220704703681D6916
:100F900002EB420204FA02F225EA02021A610A781E
:100FA0008B6802EB42029340026814692343136189
:100FB0004A681F24072A15D203685D6B521E02EB94
:100FC000820204FA02F225EA02025A630A8893B204
:100FD0000A79521E02EB820293400268546B23434B
:100FE00053632CE00D2A15D203681D6BD21F02EB50
:100FF000820204FA02F225EA02021A630A8893B214
:101000000A79D21F02EB820293400268146B2343D9
:10101000136314E00368DD6A0D3A02EB820204FAFE
:1010200002F225EA0202DA620A8893B20A790D3ADC
:1010300002EB820293400268D46A2343D3624FF4E6
:101040000C52C4F201024FF400530468C4F20103CD
:101050009C4206D10C68122C03D1546844F48004DD
:10106000546004689C4222D10B68102B01D0112BD4
:101070001DD1536843F4000353600968102916D149
:1010800040F22801C2F20001096844F24022C0F295
:101090000F02B1FBF2F101EB8101490000910099CF
:1010A00029B10099491E009100990029F9D180F8D1
:1010B0003CC038BC0020704770B504460025002CA9
:1010C00003D0206C002610B107E0012070BD20463F
:1010D00000F01DF8666484F83C60206C10F0100F7E
:1010E00004D0012584F83C60284670BD206C20F4B3
:1010F000885040F0020020642046FFF74BFB6664F6
:10110000206C20F0020040F001002064EAE710B5F6
:1011100086B00446142101A8FFF78CF84FF4005163
:10112000C4F201012068884237D100BF002000903E
:1011300043F64400C4F20200006840F4807043F6B5
:101140004401C4F2020108600846006800F480709F
:10115000009000BF00BF00BF0020009043F63000A9
:10116000C4F20200006840F0010043F63001C4F20E
:10117000020108600846006800F00100009000BF0E
:1011800000BF01200190032002900020039001A9DC
:101190000020C4F2020000F093FE06B010BD90F8EB
:1011A0002020012A07D0022A05D0416A41F480217B
:1011B000416201207047006842691143416100208B
:1011C000704770B490F82040D0F800C0DCF808C038
:1011D000012C08D0022C06D0416A41F480214162E2
:1011E00070BC012070470CF080640CF000652C434B
:1011F00002D11CF0805F55D0CCF3016C012404FABD
:101200000CF41C608B684FF4C0749BB1CD6804EB88
:101210000C162B434D6843EAC5030568AB514FF4E8
:10122000C273066803EB0C130D69F550097D0129A3
:1012300009D00DE00D88CB6804EB0C1643EA45534A
:101240000568AB51EBE70168CD5845F48075CD508A
:101250001179D379557941EA036193791B0443EA03
:10126000052319434FF4C675036805EB0C15595156
:101270001178D37841EA0361937852781B0443EAEA
:10128000022211434FF4C473026803EB0C13D150D4
:10129000016804EB0C100A5842F001020A5070BCBD
:1012A00000207047416A41F40011416270BC012086
:1012B000704790F82020012A07D0022A05D0416A01
:1012C00041F480214162012070474FF4C840C4F2CC
:1012D0000000D0F8002242F00102C0F80022D0F84D
:1012E000002222F47C52C0F80022D0F800224B6A7F
:1012F00042EA0322C0F800220A7D012302F01F0205
:1013000003FA02F2D0F81C329343C0F81C32CB69C6
:10131000D3B9D0F80C329343C0F80C32B1F80CC0FA
:101320004B686CF31F43D1F814C000EBCC0CCCF825
:101330004032B1F808C00B686CF31F43D1F814C0F9
:1013400000EBCC0CCCF84432CB69012B1AD1D0F88D
:101350000C321343C0F80C32B1F800C04B686CF388
:101360001F43D1F814C000EBCC0CCCF84032B1F8DC
:1013700008C0CB686CF31F43D1F814C000EBCC0C51
:10138000CCF844328B697BB1D0F804321343C0F8F7
:1013900004320B6973B1D0F814321343C0F814321D
:1013A000096A01290CD010E0D0F804329343C0F848
:1013B0000432EEE7D0F814329343C0F81432EFE76A
:1013C000D0F81C121143C0F81C12D0F8001221F002
:1013D0000101C0F80012002070477047002290F809
:1013E0002030012B01D0022B04D129B10068006903
:1013F00000F00302104670470068C06800F0030266
:10140000F8E730B490F820C0BCF1010F09D0BCF16E
:10141000020F06D0416A41F48021416230BC0120B4
:10142000704739B1D0F800C0DCF810C01CF0030FD1
:1014300033D006E0D0F800C0DCF80CC01CF0030F7D
:1014400024D04FF4D87C04680CEB011C54F80C40F9
:1014500004F0040494603CB3046854F80C40E408BD
:101460005460046854F80CC00CF0020CC2F80CC0B4
:101470004FF4DA7C04680CEB011C54F80C5005F0B6
:101480000F05082D16D30824146118E0416A41F4B1
:101490000011416230BC01207047416A41F40011E3
:1014A000416230BC01207047046854F80C40640D60
:1014B0001460D6E754F80C4004F00F04146104687B
:1014C00054F80C40C4F307249461046854F80CC029
:1014D0004FEA1C4CC2F814C04FF4DC72D0F800C0C4
:1014E00002EB01125CF802C083F800C0D0F800C023
:1014F0005CF802C04FEA1C2C83F801C0D0F800C091
:101500005CF802C04FEA1C4C83F802C0D0F800C05F
:101510005CF80220120EDA704FF4DE72D0F800C0D0
:1015200002EB01125CF802C083F804C0D0F800C0DE
:101530005CF802C04FEA1C2C83F805C0D0F800C04C
:101540005CF802C04FEA1C4C83F806C0D0F800C01B
:101550005CF80220120EDA7139B10068016941F0BD
:101560002001016130BC002070470068C16841F073
:101570002001C160F6E72DE9F05F054600242868E8
:101580004669D0F804908768D0F80CA0D0F810B065
:10159000D0F8188016F0010F54D017F0010F17D0B3
:1015A0000121816017F0020F03D0284600F066FA8F
:1015B0000EE017F0040F02D04FF4006408E017F0BB
:1015C000080F02D04FF4805402E0284600F055FA8C
:1015D00017F4807F19D029684FF48070886017F461
:1015E000007F03D0284600F04BFA0EE017F4806F1E
:1015F00002D044F4005408E017F4006F02D044F421
:10160000804402E0284600F03AFA17F4803F19D0EF
:1016100029684FF48030886017F4003F03D02846D3
:1016200000F030FA0EE017F4802F02D044F40044AA
:1016300008E017F4002F02D044F4803402E028467A
:1016400000F01FFA16F0080F07D01AF0100F04D0A0
:1016500044F4007429681020C86016F0040F4FF09D
:10166000080707D01AF0080F04D02868C76028467A
:1016700000F0A5F916F0020F07D02868C06810F036
:10168000030F02D0284600F09BF916F0400F07D058
:101690001BF0100F04D044F4806429681020086106
:1016A00016F0200F07D01BF0080F04D02868076140
:1016B000284600F0ADF916F0100F07D02868006931
:1016C00010F0030F02D0284600F0A3F916F4003FF3
:1016D00008D019F0100F05D029681020486028465E
:1016E00000F098F916F4803F07D019F0080F04D0E5
:1016F00028684760284600F0C6F916F4004F4AD023
:1017000019F0040F44D016F4807F04D018F0010FB4
:1017100001D044F0010416F4007F04D018F0020F49
:1017200001D044F0020416F4806F04D018F0040FC6
:1017300001D044F0040416F4006F29D018F0700FA3
:1017400026D008F07000402815D006DC102809D0FB
:1017500020280AD0302816D10AE050280ED0602860
:1017600011D10EE044F008040DE044F010040AE04A
:1017700044F0200407E044F0400404E044F0800416
:1017800001E044F480742868816921F0700181616E
:10179000296804204860002C05D0686A20436862EC
:1017A0002846FFF71AFEBDE8F09F70B50446002CEE
:1017B00003D094F8200010B104E0012070BD204651
:1017C00000F0A7F82068016841F00101016000F015
:1017D0009CFC0546206840684FF0050610F0010F9C
:1017E00011D100F092FC401B0A2807D9606A40F42E
:1017F0000030606284F82060012070BD206840687D
:1018000010F0010FEDD02068016821F002010160A5
:1018100000F07BFC05462068406810F0020F11D0F4
:1018200000F073FC401B0A2807D9606A40F40030BE
:10183000606284F82060012070BD2068406810F06C
:10184000020FEDD1207E01283FD02068016821F0F1
:1018500080010160607E01283DD02068016821F090
:1018600040010160A07E01283BD02068016821F082
:1018700020010160E07E012839D02068016841F034
:1018800010010160207F012837D02068016821F015
:1018900008010160607F012835D02068016821F0CF
:1018A00004010160E168A06862690843216911438D
:1018B00008436168491E08432168C86100206062CE
:1018C000012084F82000002070BD2068016841F0EC
:1018D00080010160BEE72068016841F040010160BD
:1018E000C0E72068016841F020010160C2E720687C
:1018F000016821F010010160C4E72068016841F02F
:1019000008010160C6E72068016841F00401016038
:10191000C8E710B586B00446142101A8FEF78AFC7A
:101920004FF4C841C4F200012068884245D100BF8D
:10193000002000904FF46150C4F20200006840F0B3
:1019400000704FF46151C4F202010860084600685B
:1019500000F00070009000BF00BF00BF00200090AA
:1019600043F63000C4F20200006840F0020043F683
:101970003001C4F2020108600846006800F002006D
:10198000009000BF00BF4FF4407001900220029011
:1019900000200390032004900920059001A94FF432
:1019A0008060C4F2020000F08BFA0022114614207D
:1019B00000F02EFC142000F01DFC06B010BD704796
:1019C00010B504464FF4C841C4F2000120688842B3
:1019D00000D010BD13E040F2C853C2F20003A3F1DF
:1019E0001C0200212046FFF70CFD38B9012040F20F
:1019F000AC51C2F2000181F8740000E005E0002162
:101A00002046FFF7EBFC0028E5D100BF00BFE0E770
:101A100070477047704770B5044694F8200001285D
:101A200005D0606A40F400206062012070BD022091
:101A300084F820002068016821F00101016000F0B5
:101A400064FB05462068406810F0010F12D000F0DA
:101A50005CFB401B0A2808D9606A40F400306062D1
:101A6000052084F82000012070BD2068406810F037
:101A7000010FECD10020606270BD70477047704765
:101A800070477047704770472DE9F0410446A66DD6
:101A900000F03BFB054694F835000027022806D0ED
:101AA0008020606584F834700120BDE8F0812068F2
:101AB000016821F0160101602068416921F0800170
:101AC0004161206C08B9A06C20B12068016821F048
:101AD000080101602068016821F0010101602068AF
:101AE000006810F0010F12D000F00FFB401B05281A
:101AF00008D920206065032084F8350084F834700C
:101B0000BDE8F0812068006810F0010FECD194F876
:101B10005C003F2101FA00F0B060012084F835003C
:101B200084F834700020BDE8F08190F83510022967
:101B300003D08021416501207047052180F83510D0
:101B40000068016821F001010160002070472DE963
:101B5000F84304464FF00008CDF8008040F228001A
:101B6000C2F2000000684FF41651B0FBF1F7A56D0A
:101B70002E6894F85C00082101FA00F0304211D080
:101B80002068026812F0040F0CD0026822F00402F0
:101B9000026094F85C0001FA00F0A860606D40F00B
:101BA0000100606594F85C004FF0010909FA00F04B
:101BB000304209D02168496911F0800F04D0A86033
:101BC000606D40F00200606594F85C10042088406D
:101BD000304209D02168096811F0020F04D0A860D2
:101BE000606D40F00400606594F85C10102088403F
:101BF000304224D02168096811F0080F1FD0A86076
:101C00002068016811F4802F0DD0006810F4002FB7
:101C100004D0A16C99B12046884710E0216C71B1C5
:101C2000204688470BE0016811F4807F03D10168EA
:101C300021F008010160216C09B12046884794F821
:101C40005C1020208840304251D02168096811F092
:101C5000100F4CD0A86094F8350005280DD02068EE
:101C6000016811F4802F32D0006810F4002F29D0C1
:101C7000E16B59B32046884739E02068016821F0BC
:101C8000160101602068416921F080014161206CEA
:101C900008B9A06C20B12068016821F0080101603A
:101CA00094F85C003F2101FA00F0A86084F83590B8
:101CB00084F83480216D00293ED001B02046BDE873
:101CC000F0430847616C09B1204688470FE001687E
:101CD00011F4807F07D1016821F01001016084F8C0
:101CE000359084F83480E16B09B120468847606DF7
:101CF000002821D0606D10F0010F15D0052084F868
:101D000035002068016821F0010101600098401C45
:101D10000090B84204D82068006810F0010FF5D197
:101D200084F8359084F83480E16C002904D001B047
:101D30002046BDE8F0430847BDE8F8832DE9F041AF
:101D4000044600F0E2F90546DCB1022084F83500D3
:101D5000002684F834602068016821F001010160E8
:101D60002068006810F0010F13D000F0CEF9401B7E
:101D7000052809D920206065032084F83500BDE8D6
:101D8000F0810120BDE8F0812068006810F0010FAB
:101D9000EBD12168086848F23F02CFF210021040F0
:101DA000A3686268D4F810C01A43E36843EA0C03DE
:101DB0001A4363691A43A3691A43E3691A43236AFE
:101DC0001A431043626A042A03D1236BE26A1A435E
:101DD000104308602068406920F00701606A40EA0B
:101DE0000105012704280ED1A06A0543E06A50B11D
:101DF0002046FEF7B6FE30B14020606584F83570AD
:101E00000120BDE8F081206845612046FEF78DFE87
:101E100094F85C103F2202FA01F18160666584F853
:101E200035700020BDE8F08170B504460025A66D30
:101E300094F8340001280DD0012084F8340094F87F
:101E400035C00020BCF1010F06D084F83400022513
:101E5000284670BD022070BD4FF0020C84F835C0DA
:101E600060652046FEF7BCFE94F85C003F2101FA55
:101E700000F0B0602068016841F016010160206C3C
:101E800020B12068016841F0080101602068016804
:101E900041F001010160DBE770B5044600F035F95F
:101EA0000546B4F1FF3F05D040F22C00C2F200001D
:101EB0000078044400F029F9401BA042FAD370BD19
:101EC0002DE9F84F002243F6084A43F64409C4F2CC
:101ED000010A4FF0010E03274FF00F08C4F2020968
:101EE000AAF1040B0EFA02FC0B6803EA0C0363452B
:101EF0007DD10C7904F00304012C01D0022C14D103
:101F00008568540007FA04F6B543CE6806FA04F46F
:101F10002C438460446824EA0C0C0C79C4F300144C
:101F2000944044EA0C0CC0F804C0D1F804C037EA6D
:101F30000C0C0CD0C4684FEA420C07FA0CF5AC4309
:101F40008D6805FA0CFC4CEA040CC0F80CC091F842
:101F500004C00CF0030CBCF1020F12D14FEAD20CFA
:101F600000EB8C04256A4FEA427C4FEADC6C08FAED
:101F70000CF6B5430E6906FA0CFC4CEA050CC4F8E5
:101F800020C004684FEA420C07FA0CF5AC430D7907
:101F900005F0030505FA0CFC4CEA040CC0F800C07F
:101FA000D1F804C01CF4403F21D0D9F800C04CF453
:101FB000804CC9F800C0D9F800C00CF4804CCDF8B2
:101FC00000C022F0030C0CF1804505F59835D5F8DA
:101FD00008C89407240F08FA04F62CEA0606A0F1B4
:101FE000804CBCF5003C6AD0A0F1804C00E060E081
:101FF000BCF5013C66D0A0F1804CBCF5023C64D03D
:10200000A0F1804CBCF5033C62D0A0F1804CBCF543
:10201000043C60D0A0F1804CBCF5053C5ED0A0F142
:10202000804CBCF5063C5CD0A0F1804CBCF5073C74
:102030005AD04FF0080C0CFA04FC4CEA060CC5F818
:1020400008C8DAF800C02CEA030C4C6814F4801FAE
:1020500001D04CEA030CCAF800C043F60C44C4F2A9
:102060000104D4F800C02CEA030C4D6815F4001FDD
:1020700001D04CEA030CC4F800C0DBF800C02CEA25
:10208000030C4C6814F4003F01D04CEA030CCBF86D
:1020900000C04FF47054C4F20104D4F800C02CEA1C
:1020A000030C4D6815F4803F01D04CEA030CC4F8D2
:1020B00000C0521C102AFFF415AFBDE8F88F4FF096
:1020C000000CB8E74FF0010CB5E74FF0020CB2E797
:1020D0004FF0030CAFE74FF0040CACE74FF0050CEA
:1020E000A9E74FF0060CA6E74FF0070CA3E700693D
:1020F000084201D00120704700207047002A01D01B
:102100008161704709048161704740F22C00C2F27E
:1021100000008068704740F22C00C2F20000816825
:10212000027811448160704710B54FF47050C4F2CA
:102130000200016841F400710160016841F48061AE
:102140000160016841F480710160032000F094F89F
:10215000002000F004F800F025F8002010BD70B554
:10216000044640F22C05C2F2000528784FF47A713B
:10217000B1FBF0F040F22801C2F200010968B1FBA6
:10218000F0F000F0FFFB08B1012070BD102C07D269
:1021900000222146501E00F03BF86C60002070BD0C
:1021A000012070BD08B500BF0020009043F6440038
:1021B000C4F20200006840F4804043F64401C4F2D7
:1021C000020108600846006800F48040009000BFEB
:1021D00000BF00BF00200090081F006840F0805042
:1021E000091F08600846006800F08050009000BF9A
:1021F00000BF08BD00280ADB00F01F01012202FA1F
:1022000001F14009800000F1E020C0F800117047A2
:1022100010B44EF60C53CEF200031B68C3F3022336
:10222000C3F1070CBCF1040F01D94FF0040C1C1DC5
:10223000072C01D2002300E0DB1E012404FA0CFC71
:10224000ACF1010C0CEA0101994004FA03F35B1EA6
:102250001A401143002806DB00F1E020090180F854
:10226000001410BC704700F00F0000F1E0200901DD
:1022700080F8141D10BC704700F007004EF60C5299
:10228000CEF2000211684FF6FF03194041EA002028
:1022900040F0FD7040F08060106070472DE9F0471D
:1022A00004460D46002C15D04FF47059C4F20209B3
:1022B000D9F80000EFB200F00700A8420DD289F86B
:1022C0000070D9F8000000F00700A84205D00120F6
:1022D000BDE8F0870120BDE8F087206843F60806D6
:1022E00010F0020FC4F2020614D010F0040F03D055
:1022F000306840F4E0503060207810F0080F03D0D0
:10230000306840F4604030603068A16820F0F00030
:1023100008433060207810F0010F41D060684FF41E
:102320006051C4F20201012808D002280DD0032810
:102330000BD0096811F0020F28D00AE0096811F4E7
:10234000003F06D10120BDE8F087096811F0007F49
:1023500019D0316821F0030108433060FFF7D5FE42
:1023600080463068616800F00C00B0EB810F17D038
:1023700041F2883AFFF7C9FEA0EB0800504508D9A2
:102380000320BDE8F0870120BDE8F0870120BDE80B
:10239000F0873068616800F00C00B0EB810FE9D184
:1023A000D9F8000000F00700A8420AD989F80070A7
:1023B000D9F8000000F00700A84202D00120BDE8D3
:1023C000F087207810F0040F05D03068E16820F421
:1023D000E05008433060207810F0080F06D03068D5
:1023E000216920F4604040EAC100306000F040F80C
:1023F0003168C1F3031147F28C12C0F60002515C40
:10240000C84040F22801C2F20001086040F23000EA
:10241000C2F200000068FFF7A2FE0020BDE8F087CE
:1024200040F22800C2F200000068704700B5FFF7D4
:10243000F7FF43F60801C4F202010968C1F38221E3
:1024400047F29C12C0F60002515CC84000BD00B5C6
:10245000FFF7E6FF43F60801C4F202010968C1F381
:10246000423147F29C12C0F60002515CC84000BDE8
:1024700010B543F60800C4F20200006810F00C0129
:102480004FF41050C0F2F4001CD047F64003C0F2E5
:102490007D13042915D0082914D143F60404C4F28D
:1024A0000204216801F03F02216811F4800F0AD074
:1024B0002068C0F38810A0FB03010023FDF782FE13
:1024C00009E0184610BD21680023C1F38811A1FB63
:1024D0000001FDF777FE2168C1F30141491C490065
:1024E000B0FBF1F010BD2DE9F84F0446002C15D0DB
:1024F000207843F60406C4F2020610F0010FA6F19C
:10250000040563D0301D016801F00C0104290CD0D2
:10251000006800F00C00082803D010E00120BDE89E
:10252000F88F306810F4800F09D0286810F4003F4D
:102530004CD06068002849D10120BDE8F88F606860
:10254000B0F5803F14D0B0F5A02F16D0286820F445
:1025500080302860286820F480202860606810B3EC
:10256000FFF7D3FD0746286810F4003F0ED02DE09A
:10257000286840F480302860F0E7286840F4802024
:102580002860286840F480302860E7E7FFF7BDFD49
:10259000C01B642802D90320BDE8F88F286810F416
:1025A000003FF3D012E0FFF7B0FD0746286810F4B3
:1025B000003F0BD0FFF7A9FDC01B642802D9032000
:1025C000BDE8F88F286810F4003FF3D120784FF071
:1025D000000710F0020F4FF00009C4F247275AD04D
:1025E00043F60800C4F20200016811F00C0F14D089
:1025F000006800F00C00082803D1306810F4800F48
:102600000BD0E06880B301203860FFF77EFD804684
:10261000286810F0020F12D01EE0286810F0020F98
:1026200005D0E068012802D00120BDE8F88F2868B5
:10263000216920F0F80040EAC10028602BE0FFF794
:1026400064FDA0EB0800022802D90320BDE8F88F42
:10265000286810F0020FF2D02868216920F0F800F5
:1026600040EAC100286016E0FFE7C7F80090FFF7D6
:102670004CFD8046286810F0020F0CD0FFF745FD96
:10268000A0EB0800022802D90320BDE8F88F2868D3
:1026900010F0020FF2D1207810F0080F3AD04FF46A
:1026A000686043F6740A6169C4F24720C4F2020A02
:1026B000C1B101210160FFF728FD8046DAF8000072
:1026C00010F0020F26D1FFF720FDA0EB0800022832
:1026D00002D90320BDE8F88FDAF8000010F0020FED
:1026E000F1D017E0C0F80090FFF70FFD8046DAF850
:1026F000000010F0020F0DD0FFF707FDA0EB08005F
:10270000022802D90320BDE8F88FDAF8000010F0A3
:10271000020FF1D1207810F0040F70D04FF00008B4
:102720004FF46150C4F20200006810F0805F0DD1D8
:102730004FF46150C4F20200016841F08051016021
:10274000006800F0805000904FF001084FF4E04B1B
:10275000C4F2000BDBF8000010F4807F1BD1DBF823
:10276000000040F48070CBF80000FFF7CEFC8246FA
:10277000DBF8000010F4807F0DD1FFF7C6FCA0EB62
:102780000A00022802D90320BDE8F88FDBF8000018
:1027900010F4807FF1D0A06843F6700BC4F2020BF6
:1027A000012818D005281DD0DBF8000020F001001A
:1027B000CBF80000DBF8000020F00400CBF80000AC
:1027C000A06870B3FFF7A1FC8246DBF8000010F0B0
:1027D000020F15D03DE0DBF8000040F00100CBF81F
:1027E0000000EDE7DBF8000040F00400CBF800004B
:1027F000DBF8000040F00100CBF80000E0E733E038
:10280000FFF783FCA0EB0A0141F28830814202D934
:102810000320BDE8F88FDBF8000010F0020FEFD0C6
:1028200017E0FFF772FC8246DBF8000010F0020FA1
:102830000FD0FFF76AFCA0EB0A0141F28830814219
:1028400002D90320BDE8F88FDBF8000010F0020F7A
:10285000EFD1B8F1010F07D14FF46150C4F202007B
:10286000016821F080510160A06978B343F6080146
:10287000C4F2020109684FF0FF3801F00C01082989
:1028800054D0022810D0C7F86090FFF73EFC0446F1
:10289000286810F0007F72D0FFF737FC001B022879
:1028A0003FD90320BDE8F88FC7F86090FFF72DFCF3
:1028B0008146286810F0007F0DD0FFF726FCA0EBC2
:1028C0000900022803D90320BDE8F88F57E02868E3
:1028D00010F0007FF1D1216AE069A26A0843616AC1
:1028E00008EB5202890141EA0241084394F82C1096
:1028F00040EA0160306001203866FFF706FC0446BC
:10290000286810F0007F3AD1FFF7FFFB001B022878
:1029100002D90320BDE8F88F286810F0007FF3D0BB
:102920002DE0286810F0007FB6D128E0012823D0E0
:102930003068E26900F4800191421AD1226A00F005
:102940003F01914215D147F6C071626A0140B1EB77
:10295000821F0ED1A26A00F4403108EB5202B1EBA3
:10296000024F06D194F82C1000F07060B0EB016FAC
:1029700005D00120BDE8F88F0120BDE8F88F0020C8
:10298000BDE8F88F401EB0F1807F01D30120704771
:102990004FF0E02148614EF62352CEF20002F020C3
:1029A000107000208861072008610020704790F8AF
:1029B0003C20012A2CD0012280F83C20CA68002348
:1029C000D1F808C022F4407242EA0C02D1F804C0E7
:1029D00022F4806242EA0C02D1F800C022F40062C4
:1029E00042EA0C02D1F810C022F4805242EA0C02F2
:1029F000D1F814C022F4005242EA0C02C96922F450
:102A0000804211430268516480F83C3000207047D6
:102A10000220704730B490F83C20012A44D00124B1
:102A200080F83C40022280F83D200268D2F804C0C1
:102A300093682CF0700C0D6845EA0C0CC2F804C0C9
:102A40000268A2F1804CBCF5803C20D0B2F1804FEE
:102A50001DD0A2F1804CBCF5806C18D0A2F1804C46
:102A6000BCF5006C13D0A2F1804CBCF5406C0ED0CC
:102A7000A2F1804CBCF5823C09D0A2F1804CBCF59F
:102A8000A03C04D0A2F1804CBCF5C05C04D123F082
:102A9000800349681943916080F83D40002180F827
:102AA0003C1030BC0020704730BC0220704710B58D
:102AB0000446002C03D094F83D0010B107E001203B
:102AC00010BD002084F83C00204600F01EF80220D3
:102AD00084F83D00211D206802F00BFB012084F8E2
:102AE000460084F83E0084F83F0084F8400084F8F3
:102AF000410084F8420084F8430084F8440084F8DC
:102B0000450084F83D00002010BD08B50022C4F245
:102B100001020168914215D100BF0021009143F6E6
:102B20004401C4F20201096841F0010143F6440284
:102B3000C4F2020211601146096801F0010100911E
:102B400000BF00BF08BD70B50446002594F83C00E6
:102B5000012818D0012684F83C60022084F83D004A
:102B60002068826822F0770222F47F42826008683F
:102B7000502839D00EDC202854D006DC002851D053
:102B8000102811D14EE0022070BD30284AD04028D4
:102B90000AD13DE0602831D070280DD0B0F5805FBB
:102BA00003D0B0F5005F13D0012584F83D6000200C
:102BB00084F83C00284670BDCB684A688968206864
:102BC00002F004FB2068816841F077018160ECE746
:102BD000CB684A688968206802F0F8FA2068816842
:102BE00041F480418160E0E7CA684968206802F0EA
:102BF000DFFB5021206802F0F4FAD6E7CA68496882
:102C0000206802F0E8FB6021206802F0EAFACCE7D5
:102C1000CA684968206802F0CBFB4021206802F0B6
:102C2000E0FAC2E722680146104602F0DAFABCE791
:102C300010B586B00446142101A8FDF7FBFA002167
:102C4000C4F201012068884227D100BF0020009013
:102C500043F63000C4F20200006840F0100043F672
:102C60003001C4F2020108600846006800F010005C
:102C7000009000BF00BF4FF4D440019002200290AA
:102C800000200390022004900120059001A94FF438
:102C90008050C4F20200FFF713F906B010BD70B502
:102CA00004460D46002694F83C0001280FD0012070
:102CB00084F83C006AB1042A1FD0082A32D00C2ABA
:102CC00044D00126002084F83C00304670BD02202C
:102CD00070BD2946206802F08CFA2068816941F0B5
:102CE000080181612068816921F004018161206807
:102CF00081692A6911438161E4E72946206802F06D
:102D0000B1FA2068816941F40061816120688169BC
:102D100021F480618161206881692A6941EA022188
:102D20008161CFE72946206802F0D9FA2068C1699D
:102D300041F00801C1612068C16921F00401C1614D
:102D40002068C1692A691143C161BBE7294620682F
:102D500002F002FB2068C16941F40061C161206892
:102D6000C16921F48061C1612068C1692A6941EAB1
:102D70000221C161A6E710B50446002C03D094F8E7
:102D80003D0010B107E0012010BD002084F83C0098
:102D9000204600F01EF8022084F83D00211D206826
:102DA00002F0A7F9012084F8460084F83E0084F878
:102DB0003F0084F8400084F8410084F8420084F821
:102DC000430084F8440084F8450084F83D00002066
:102DD00010BD7047704710B5044620684069C0F3C5
:102DE000C01094F84110212911D180B1206814300D
:102DF00050E8001F21F0800140E80012002AF5D1C0
:102E0000A06B08B1FEF740FE204602F0B7FB206839
:102E10004069C0F3801094F84210222911D180B18A
:102E20002068143050E8001F21F0400140E80012F3
:102E3000002AF5D1E06B08B1FEF726FE204602F02D
:102E400069FB002010BD7047F8B504462268106881
:102E5000D168536900F00F0CBCF1000F0AD110F0DB
:102E6000200F07D011F0200F04D02046BDE8F84015
:102E700002F092BB0025BCF1000F78D003F0010CEA
:102E800001F490765CEA060671D010F0010F06D0CE
:102E900011F4807F03D0626C42F00102626410F092
:102EA000040F06D013F0010F03D0626C42F002024F
:102EB000626410F0020F06D013F0010F03D0626CB1
:102EC00042F00402626410F0080F08D001F0200202
:102ED00052EA0C0203D0626C42F008026264626C37
:102EE000002A38D010F0200F05D011F0200F02D0AA
:102EF000204602F051FB20684069C0F38010616CED
:102F000011F0080F00D160B3204602F003FB2068E7
:102F1000406910F0400F1FD02068143050E8001FA7
:102F200021F0400140E80012002AF5D1E06B78B1B1
:102F300045F20F41C0F600010165E06BFEF7F5FDBB
:102F4000002808D0E06B016D01B0BDE8F0400847F3
:102F50002046FFF778FFF8BD2046FFF774FFF8BD65
:102F600005E0FFE72046FFF76EFF6564F8BD236BC1
:102F7000012B7DD110F0100F7AD011F0100F77D007
:102F800010685068009050694FF0200310F0400F17
:102F90004FF0020651D0E26B1068406880B2E0B397
:102FA000A18D81423DD9E085D069B0F5807F2DD0DB
:102FB00020680C3050E8001F21F4807140E80012B6
:102FC000002AF5D12068143050E8001F21F00101DB
:102FD00040E80012002AF5D12068143050E8001FA4
:102FE00021F0400140E80012002AF5D184F8423077
:102FF000256320680C3050E8001F21F0100140E8E4
:103000000012002AF5D1E06BFEF73EFD6663A08D4D
:10301000E18D401A81B2204600E002E0FFF7DAFEBF
:10302000F8BDA18D8142FBD1D069B0F5807FF7D189
:1030300066632046FFF7CEFEF8BDA08DE18D401AF5
:1030400081B2E08D0028F7D00029F5D020680C303F
:1030500050E8002F22F4907240E8002CBCF1000FE1
:10306000F4D12068143050E8002F22F0010200E073
:1030700016E040E8002CBCF1000FF2D184F8423099
:10308000256320680C3050E8002F22F0100240E841
:103090000023002BF5D166632046FFF79BFEF8BDA9
:1030A00010F0800F07D011F0800F04D02046BDE84B
:1030B000F84002F0CCBB10F0400FF0D011F0400F00
:1030C000EDD02046BDE8F84002F04BBA70B504469A
:1030D000002C04D094F84100002510B106E0012036
:1030E00070BD84F84050204600F023F8242084F876
:1030F00041002068C16821F40051C160204602F0FF
:10310000B0FA2068016921F49041016120684169A9
:1031100021F02A0141612068C16841F40051C16079
:103120006564202084F8410084F842006563002033
:1031300070BD10B586B00446142101A8FDF77AF8D9
:103140004FF49841C4F200012068884246D100BF84
:10315000002000904FF46150C4F20200006840F477
:1031600000204FF46151C4F2020108600846006873
:1031700000F40020009000BF00BF00BF00200090BE
:1031800043F63000C4F20200006840F0040043F649
:103190003001C4F2020108600846006800F0040033
:1031A000009000BF00BF4FF44060019002200290E9
:1031B00000200390032004900820059001A94FF4FB
:1031C0000060C4F20200FEF77BFE002211463420AC
:1031D000FFF71EF83420FFF70DF83CE14FF4805163
:1031E000C4F201012068884244D100BF0020009051
:1031F00043F64400C4F20200006840F0100043F6B9
:103200004401C4F2020108600846006800F01000A2
:10321000009000BF00BF00BF0020009043F63000C8
:10322000C4F20200006840F0010043F63001C4F22D
:10323000020108600846006800F00100009000BF2D
:1032400000BF4FF4C0600190022002900120039063
:1032500004900720059001A90020C4F20200FEF7A7
:103260002FFE002211462520FEF7D2FF2520FEF773
:10327000C1FFF0E04FF48841C4F2000120688842A9
:1032800044D100BF002000904FF46150C4F202000E
:10329000006840F400304FF46151C4F2020108604C
:1032A0000846006800F40030009000BF00BF00BF77
:1032B0000020009043F63000C4F20200006840F0A5
:1032C000010043F63001C4F20201086008460068BC
:1032D00000F00100009000BF00BF0C200190022010
:1032E000029001200390022004900720059001A97C
:1032F0000020C4F20200FEF7E3FD00221146262062
:10330000FEF786FF2620FEF775FFA4E04FF4A051DC
:10331000C4F2010120688842ABD100BF00200090B8
:1033200043F64400C4F20200006840F0200043F677
:103330004401C4F2020108600846006800F0200061
:10334000009000BF00BF00BF0020009043F6300097
:10335000C4F20200006840F0040043F63001C4F2F9
:10336000020108600846006800F00400009000BFF9
:1033700000BFC02001900220029001200390032092
:1033800004900820059001A94FF40060C4F20200E7
:10339000FEF796FD46F24040C4F2020040F61411DA
:1033A000C2F2000108604FF020604860002140F642
:1033B0001410C2F200008160C1604FF480610161AD
:1033C000002141618161C1614FF40031016200213E
:1033D0004162FEF7B3FC08B1FDF744FD00BF40F6C3
:1033E0001410C2F20000E063846300BF46F2A04004
:1033F000C4F2020040F67411C2F2000108604FF0FE
:1034000020604860402140F67410C2F200008160E4
:103410000021C1604FF4806101610021416181613F
:10342000C1614FF40031016200214162FEF786FC68
:1034300008B1FDF717FD00BF40F67410C2F200009E
:10344000A063846300BF002211464720FEF7E0FE20
:103450004720FEF7CFFE06B010BD90F84230202B7B
:1034600001D00220704721B11AB10023036302F09A
:1034700077B90120704790F84230202B01D002200C
:10348000704721B11AB10023036302F0C4B90120CF
:10349000704770B505464FF48841C4F200012868B2
:1034A000884273D140F23800C2F20000047840F242
:1034B0003B00C2F200000078A8B9402C59D101208D
:1034C00040F23B01C2F200010870002040F23A01D4
:1034D000C2F200010870962141F2A860C2F2000019
:1034E000FCF7A8FE45E040F23B00C2F20000007885
:1034F00001283ED10D2C01D00A2C17D1002041F219
:10350000A861C2F2000140F23A02C2F2000212784F
:103510008854012040F23901C2F2000108700020F5
:1035200040F23B01C2F20001087022E040F23A0092
:10353000C2F200000078952810DA40F23A01C2F297
:1035400000010878411C40F23A02C2F200021170F8
:1035500041F2A861C2F200010C540AE0002040F2DE
:103560003B01C2F20001087040F23A01C2F20001D0
:103570000870012240F23801C2F2000140F68400D6
:10358000C2F20000FFF777FF0AE0FFE74FF498412F
:10359000C4F200012868884202D1284600F0C5F82C
:1035A00070BD70472DE9F84304460E4615461F4688
:1035B00094F84100202802D00220BDE8F8837EB1B3
:1035C00075B100206064212084F84100FEF79DFD64
:1035D0008146A584E584A068B0F5805F03D004E04F
:1035E0000120BDE8F883206990B135460026E08CC3
:1035F0004FF02008C8B14B4600228021204600979A
:1036000002F054F930B184F841800320BDE8F8831A
:103610000025ECE7B5B12168287848606D1CE08C86
:10362000401EE084E08C0028E5D14B46002240217A
:103630002046009702F03AF958B184F841800320FF
:10364000BDE8F88330882168C0F308004860B61CE4
:10365000E5E784F841800020BDE8F883704710B5A5
:1036600000224FF480614FF48060C4F20200FEF744
:1036700045FD0A20FEF710FCFDF70FFC10BD70B5EC
:1036800000244FF400614FF48060C4F20200FEF7A2
:103690002EFD012801D1002070BD012003F055F955
:1036A000002523E0012291024FF48060C4F2020061
:1036B000FEF724FD012003F048F9640000224FF4D6
:1036C00080614FF48060C4F20200FEF717FD012014
:1036D00003F03BF94FF400614FF48060C4F2020044
:1036E000FEF705FD00B1641C681CC5B2182DD9DBBE
:1036F000012291024FF48060C4F20200FEF7FEFC4A
:10370000012003F022F984F4000400224FF48061C8
:103710004FF48060C4F20200FEF7F0FC012003F0D9
:1037200014F92046B8E700BFFEE770B5054635B18D
:103730004FF49841C4F200012868884200D070BD5F
:1037400040F24E00C2F20000047840F24200C2F2A1
:1037500000000078082874D249F23C01C0F600014C
:10376000D1E800F02C2C05D1012040F24201C2F238
:1037700000010870DEE0122C13D1022040F2420159
:10378000C2F200010870002040F24901C2F20001BB
:10379000087040F24300C2F2000000210160818005
:1037A0000EE02C2C06D1012040F24201C2F20001B1
:1037B000087005E0002040F24201C2F200010870EA
:1037C000B8E040F24900C2F2000001780078401CE5
:1037D00040F24902C2F20002107040F24300C2F20D
:1037E0000000445410460078062805DB032040F210
:1037F0004201C2F2000108709CE040F24A00C2F2AD
:1038000000000470042040F24201C2F2000108707E
:1038100090E040F24B00C2F200000470052040F23C
:103820004201C2F20001087084E040F24C00C2F292
:1038300000000470062040F24201C2F2000108704C
:1038400078E074E040F24D00C2F2000004700720FE
:1038500040F24201C2F2000108706BE05B2C5CD1C7
:1038600040F24B00C2F20000007840F24A01C2F27E
:103870000001097840EA012041F23E71C2F20001E4
:10388000088140F24D00C2F20000007840F24C0185
:10389000C2F20001097840EA012041F23E71C2F211
:1038A0000001488108460089B0F5487F02D94FF4ED
:1038B000487004E041F23E70C2F20000008941F21B
:1038C0003E71C2F20001088108464089B0F5F07FE0
:1038D00002D94FF4F07004E041F23E70C2F20000F1
:1038E000408941F23E71C2F200014881084640F22F
:1038F0004301C2F200010A6802608988818040F2B7
:103900004300C2F2000002F0E6FF41F23E71C2F253
:10391000000188710120087306E0002041F23E7129
:10392000C2F200010873887103F035FA02E003F077
:1039300032FA00BF00BF012240F24E01C2F2000184
:1039400040F2F470C2F20000FFF795FD00BFF6E60A
:1039500010B500F0D1F810BD10B50021084601F0F7
:1039600078F90021012001F074F910BD10B5012192
:10397000002001F06EF90121084601F06AF910BD3E
:103980001FB5002000900190029003904FF400506A
:10399000C4F2010040F26451C2F2000108604FF429
:1039A00080304860002140F26450C2F20000816023
:1039B0000161017680F82010C1620121C0F600711A
:1039C00081620021C1600121C161002180F83010B5
:1039D00001214161FDF770FB08B1FDF743FA0020BA
:1039E00000900120019007200290694640F2645047
:1039F000C2F20000FDF7A2FA08B1FDF733FA1FBDCD
:103A000010B54FF4C840C4F2000040F22461C2F285
:103A1000000108600E204860002140F22460C2F2DC
:103A200000008160C1604FF44031016100214161BB
:103A300001760121417600218176C17601774177B7
:103A4000FDF7B3FE08B1FDF70DFA10BD08B500BFD4
:103A50000020009043F63000C4F20200006840F4F9
:103A6000800043F63001C4F2020108600846006895
:103A700000F48000009000BF00BF46F22840C4F26E
:103A8000020040F24C61C2F2000108600020486070
:103A9000802140F24C60C2F2000081608900C16068
:103AA00049000161002141618161C161016204211C
:103AB0004162032181620021C1620163FEF73EF988
:103AC00008B1FDF7CFF9002211463920FEF7A0FB1F
:103AD0003920FEF78FFB002211463A20FEF798FBB3
:103AE0003A20FEF787FB002211464520FEF790FBA7
:103AF0004520FEF77FFB08BD00B587B0142102A862
:103B0000FCF798FB00BF0020019043F63000C4F2A0
:103B10000200006840F0040043F63001C4F20201E4
:103B200008600846006800F00400019000BF00BF74
:103B300000BF002001900846006840F08000086047
:103B40000846006800F08000019000BF00BF00BF81
:103B5000002001900846006840F001000860084617
:103B6000006800F00100019000BF00BF00BF00200E
:103B700001900846006840F01000086008460068A0
:103B800000F01000019000BF00BF00BF00200190B6
:103B90000846006840F0020008600846006800F02F
:103BA0000200019000BF00BF00BF00200190084646
:103BB000006840F0080008600846006800F008004F
:103BC000019000BF00BF002260210020C4F202006B
:103BD000FEF794FA00224FF480614FF48060C4F243
:103BE0000200FEF78BFA6020029001200390002073
:103BF0000490059002A90020C4F20200FEF760F9CB
:103C00004FF4806002900120039000200490059002
:103C100002A94FF48060C4F20200FEF751F94FF49C
:103C20000060029000200390049002A94FF480608D
:103C3000C4F20200FEF744F9F02002900020039045
:103C40000120049002A94FF44060C4F20200FEF784
:103C500037F907B000BD00B595B000201190129063
:103C6000139014900F9010901C2108A8FCF7E2FA12
:103C700020216846FCF7DEFA0020C4F2010040F281
:103C8000AC61C2F20001086000204860002140F2EF
:103C9000AC60C2F2000081604FF6FF71C16000218C
:103CA000016141618161FEF702FF08B1FDF7DAF8B9
:103CB0004FF48050119011A940F2AC60C2F20000A4
:103CC000FEF741FF08B1FDF7CDF840F2AC60C2F25B
:103CD0000000FFF750F808B1FDF7C4F800200F907E
:103CE00010900FA940F2AC60C2F20000FEF792FE05
:103CF00008B1FDF7B7F86020089040F2DC50099059
:103D000000200A900B900C900D900E90002208A9B4
:103D100040F2AC60C2F20000FEF7C1FF08B1FDF74F
:103D2000A1F8042208A940F2AC60C2F20000FEF73C
:103D3000B6FF08B1FDF796F8082208A940F2AC607A
:103D4000C2F20000FEF7ABFF08B1FDF78BF80C22C2
:103D500008A940F2AC60C2F20000FEF7A0FF08B173
:103D6000FDF780F8002000900190029003900490ED
:103D70004FF40050059000200790694640F2AC6077
:103D8000C2F20000FEF713FE08B1FDF76BF840F237
:103D9000AC60C2F20000FEF74BFF15B000BD10B5DD
:103DA0004FF49840C4F2000040F2F471C2F20001F6
:103DB00008604FF4E1304860002140F2F470C2F234
:103DC00000008160C16001610C21416100218161BD
:103DD000C161FFF77BF908B1FDF744F810BD10B5DC
:103DE0004FF48050C4F2010040F63C01C2F20001E1
:103DF00008604FF4E1304860002140F63C00C2F218
:103E000000008160C16001610C214161002181617C
:103E1000C161FFF75BF908B1FDF724F810BD10B5DB
:103E20004FF48840C4F2000040F68401C2F2000161
:103E300008604FF416504860002140F68400C2F23A
:103E400000008160C16001610C214161002181613C
:103E5000C161FFF73BF908B1FDF704F810BD10B5DB
:103E60004FF4A050C4F2010040F6CC01C2F20001B0
:103E700008604FF4E1304860002140F6CC00C2F207
:103E800000008160C16001610C21416100218161FC
:103E9000C161FFF71BF908B1FCF7E4FF10BD00BFDB
:103EA000FEE710B50021022000F0D3FE0021032020
:103EB00000F0CFFE10BD10B50121022000F0C9FEB8
:103EC0000121032000F0C5FE10BD704700200FE067
:103ED000002109E0002240F6D413C2F2000303EBF4
:103EE000C0135A544A1CD1B28029F3DB421CD0B211
:103EF0000828EDDB70472DE9F04304460D461646D1
:103F00001F4628463CE0224635E0002A31DB7F2A66
:103F10002FDC00282DDB3F282BDC4FEAE07C00EB78
:103F20005C7C4FEAEC0C40F6D418C2F2000808EBB7
:103F3000CC1C1CF802C003464FEAE07800EB58782E
:103F40004FEAE808A0EBC8094FF0010808FA09F8A1
:103F50002CEA080C01464FEAE07800EB58784FEA6B
:103F6000E80840F6D419C2F2000909EBC81808F8AD
:103F700002C0511C0AB2A1199142C6DC411C08B210
:103F8000E9198142BFDCBDE8F08370B5002406E08A
:103F9000002500E06D1CB5F57A7FFBD3641CB4F5F9
:103FA0007A7FF5D3FFF7A8FD012000F037FA012052
:103FB00000F040FA70BD70B50546002417E080217E
:103FC0002141294009B1012100E00021084600F00B
:103FD00031FA012000F022FA042002F0B6FC0020A1
:103FE00000F01CFA042002F0B0FC601CC4B2082CE3
:103FF000E5DB012000F012FA002000F00FFA70BD9E
:1040000010B5012000F016FA012000F007FA042094
:1040100002F09BFC002000F00DFA042002F095FC59
:10402000002000F0FBF9042002F08FFC10BD10B559
:10403000002000F0FFF9012000F0F0F9042002F068
:1040400084FC012000F0F6F9042002F07EFC10BD93
:1040500010B5FFF79AFFAE2000F0F8F9D52000F078
:10406000F5F9802000F0F2F9A82000F0EFF93F20E8
:1040700000F0ECF9D32000F0E9F9002000F0E6F9B7
:10408000402000F0E3F9A12000F0E0F9C82000F0A2
:10409000DDF9DA2000F0DAF9122000F0D7F98120FA
:1040A00000F0D4F9CF2000F0D1F9D92000F0CEF9FA
:1040B000F12000F0CBF9DB2000F0C8F9302000F04F
:1040C000C5F9A42000F0C2F9A62000F0BFF98D20A8
:1040D00000F0BCF9142000F0B9F9AF2000F0B6F9F7
:1040E000FFF7F4FE00F085F910BD10B5024601207F
:1040F00000E050430B1EA1F10101FAD110BD70B5D3
:1041000005460C4645F0B00000F0A0F9102141EA48
:10411000141000F09BF904F00F0000F097F970BD47
:10412000F8B506460F4614461D46082D0FD1A4F1DA
:10413000200047F2AC11C0F6000101EB0010102383
:10414000082239460090304600F015F812E0062D9E
:1041500010D1A4F1200000EB400047F29C71C0F6A2
:10416000000101EB4000082306223946009030464A
:1041700000F001F8F8BD2DE9FF4F80460E4691464C
:10418000DDF834B0002500244A4631464046039B02
:10419000FFF7B1FE00BF6AE0002564E008EB050010
:1041A00000285EDB08EB05007F285ADC3046F1175B
:1041B00006EB5171C9100FB2F11706EB5171C9101E
:1041C000A6EBC10A002E05DA781E07B20AF1080034
:1041D0000FFA80FA381900281DDB381907281ADC75
:1041E000381940F6D411C2F2000101EBC01008EBFF
:1041F0000501405C04FB09511BF8011001FA0AF1AA
:104200000843391940F6D412C2F2000202EBC11180
:1042100008EB050288543819401C002821DB3819A6
:10422000401C07281DDC3819401C40F6D411C2F28E
:10423000000101EBC01008EB0501405C04FB0951D3
:104240001BF80110CAF10802114108433919491C31
:1042500040F6D412C2F2000202EBC11108EB0502D3
:104260008854681CC5B24D4598DB601CC4B20399E4
:10427000481EC11700EB5171012202EBE101A1427E
:104280008ADCBDE8FF8F2DE9F047064689461746D0
:104290001D46DDF82080002417E0281B411E0A205F
:1042A000FFF723FFB7FBF0F00A21B0FBF1F201FBAF
:1042B000120000F1300A04FB086108B2434652467E
:1042C0004946FFF72DFF601CC4B2AC42E5DBBDE8F8
:1042D000F0872DE9FE4F07468A461446984600258A
:1042E000AB4600267EE0605D00F0800058B94FF0DC
:1042F000010B2846691C8DB2205C8DF8040000205B
:104300008DF8050013E04FF0020B2846691C8DB2B2
:10431000205C8DF80400605D00B967E02846691CE8
:104320008DB2205C8DF8050000208DF80600BBF1F1
:10433000010F0BD19DF80420B91908B2434651462C
:10434000FFF7EEFE06EB080086B24BE04FF00009E7
:1043500011E0C9EBC90101EB810147F6D612C0F6A5
:104360000002881801A9FBF777FF00B914E009F1F2
:1043700001001FFA80F9C9EBC90101EB810147F681
:10438000D612C0F60002881848F69831C0F600012F
:10439000FBF762FF0028DCD100BFB8F1080F15D190
:1043A000C9EBC90000EB800047F6D611C0F600014A
:1043B0000844C01CB919009008B210231A4651468F
:1043C000FFF7D9FE06F1100086B20BE0B8F1060F38
:1043D00008D1B91908B206233F225146FFF7A0FEC3
:1043E000B01D86B2605D00287FF47DAF00BFBDE8E0
:1043F000FE8F10B500240EE000212046FFF77FFE5F
:1044000040F6D411C2F2000101EBC410802100F08B
:104410002DF8601CC4B2082CEEDB10BD10B50446AC
:1044200022464FF480714FF48060C4F20200FDF721
:1044300065FE10BD10B5044622464FF400714FF4DE
:104440008060C4F20200FDF759FE10BD10B50446AD
:10445000FFF7D6FD7820FFF7AEFD0020FFF7ABFD9C
:104460002046FFF7A8FDFFF7E2FD10BD70B5054639
:104470000E46FFF7C5FD7820FFF79DFD4020FFF7B2
:104480009AFD002404E0285DFFF795FD601CC4B28E
:10449000B442F8DBFFF7CBFD70BD704710B540F2BA
:1044A0003900C2F20000007801287CD141F2A861F5
:1044B000C2F2000148F63C70C0F60000FCF7F0FACA
:1044C000032248F64C71C0F6000141F2A860C2F226
:1044D0000000FBF7CFFEB0BB48F65070C0F60000FE
:1044E000FCF7DEFAFCF799FA012040F20001C2F273
:1044F00000010870FFF7EAFC082348F66472C0F672
:10450000000210210020FFF7E4FE082348F6747231
:10451000C0F6000220210020FFF7DBFE40F2000081
:10452000C2F2000000783030C2B2082320213020CF
:10453000FFF7F6FDFFF75DFF48F67C70C0F6000060
:1045400001F064FBD2E0FFE7032248F68C71C0F66D
:10455000000141F2A860C2F20000FBF78BFE90BBA5
:1045600048F69070C0F60000FCF79AFAFCF738FAAB
:10457000012040F20001C2F200010870FFF7A6FC22
:10458000082348F6A472C0F6000210210020FFF7AD
:10459000A0FE082348F67472C0F600022021002015
:1045A000FFF797FE00E0AEE040F20000C2F200002C
:1045B00000783030C2B2082320213020FFF7B0FD50
:1045C000FFF717FF92E0FFE7032248F6B471C0F649
:1045D000000141F2A860C2F20000FBF74BFEC0BB35
:1045E00048F6B870C0F60000FCF75AFAFCF725FA56
:1045F000002040F20001C2F200010870FFF766FCE3
:104600000021022000F08FFB0021012000F08BFB35
:10461000082348F6D072C0F6000210210020FFF7F0
:1046200058FE082348F67472C0F6000220210020CC
:10463000FFF74FFE40F20000C2F200000078303079
:10464000C2B2082320213020FFF76AFDFFF7D1FE18
:104650004CE0FFE7032248F6E071C0F6000141F2AA
:10466000A860C2F20000FBF705FEC0BB48F6E4708C
:10467000C0F60000FCF714FAFCF7A8F9002040F29D
:104680000001C2F2000108700021022000F04BFB83
:104690000021012000F047FBFFF718FC082348F633
:1046A000F872C0F6000210210020FFF712FE082366
:1046B00048F67472C0F6000220210020FFF709FEC0
:1046C00040F20000C2F2000000783030C2B208238D
:1046D00020213020FFF724FDFFF78BFE06E0FFE7E7
:1046E00049F20800C0F60000FCF7DAF9002040F2B9
:1046F0003901C2F200010870962141F2A860C2F2AD
:104700000000FBF797FD10BD10B50022202100200E
:10471000C4F20200FDF7F2FC002240210020C4F2A6
:104720000200FDF7EBFC10BD10B541F2BC70C2F207
:10473000000090F87A0060B10020FCF705FB322001
:10474000FDF7AAFB002041F2BC71C2F2000181F822
:104750007A00012010BD00B52DED048B81B041F62B
:104760004800C2F20000007B18B101B0BDEC048B20
:1047700000BD41F64800C2F2000040780F2819D26F
:1047800049F24401C0F60001D1E800F0002041F6F2
:104790004801C2F2000148600120487048F65440C8
:1047A000C0F6000001F032FA48F65440C0F60000AE
:1047B000FCF788F948E241F64800C2F20000406880
:1047C0000A281AD841F64800C2F20000D0ED040AC7
:1047D000B0EE600A012000F0C7FA0121022000F0CB
:1047E000A2FA48F67440C0F6000001F00FFA48F64D
:1047F000A440C0F60000FCF765F941F64800C2F29B
:1048000000004168C06A81421AD9012000F0A0FB73
:104810000021022000F087FA48F6C040C0F60000F0
:1048200001F0F4F948F6DC40C0F60000FCF74AF964
:10483000002041F64801C2F20001486002204870A1
:1048400002E241F64800C2F2000040680A2820D87F
:1048500041F64800C2F20000D0ED050AB0EE600A51
:10486000022000F081FAFFF781F84FF4FA70FDF7AB
:1048700013FB0121084600F056FA48F6F440C0F652
:10488000000001F0C3F948F62850C0F60000FCF71C
:1048900019F941F64800C2F200004168C06A81423D
:1048A0001CD9022000F054FB0021012000F03BFA4B
:1048B000FFF752F848F64450C0F6000001F0A6F9A0
:1048C00048F66450C0F60000FCF7FCF8002041F602
:1048D0004801C2F20001486003204870B4E141F68B
:1048E0004800C2F2000040680A2816D841F6480085
:1048F000C2F20000D0ED060AB0EE600A032000F01C
:1049000033FA48F67C50C0F6000001F07FF948F613
:104910007C50C0F60000FCF7D5F841F64800C2F222
:1049200000004168006B81420AD9032000F010FBAF
:10493000002041F64801C2F200014860042048709E
:1049400082E141F64800C2F200004168C06B81423A
:1049500049D9FCF7A2FAFCF7A9FAB0EE408A18EEA2
:10496000100AFBF71EFE41EC190B53EC192B48F60D
:10497000A45009E061E150E140E12DE11DE10AE1CF
:10498000EBE0C2E062E02FE0C0F6000001F03EF98B
:1049900018EE100AFBF705FE41EC190B53EC192B2E
:1049A00048F6A450C0F60000FCF77AF8082348F651
:1049B000CC52C0F6000230210020FFF78AFC08200C
:1049C0000423BCEEC80A10EE102A302100903C20CF
:1049D000FFF759FC002041F64801C2F2000148608F
:1049E0000520487000BF2FE141F64800C2F20000E8
:1049F00040680A2816D841F64800C2F20000D0EDFF
:104A0000060AB0EE600A032000F0AEF948F6D45072
:104A1000C0F6000001F0FAF848F6D450C0F60000E5
:104A2000FCF750F841F64800C2F200004168006B04
:104A300081420AD9032000F08BFA002041F6480198
:104A4000C2F20001486006204870FDE041F64800CF
:104A5000C2F2000040680A2815D841F64800C2F2A8
:104A60000000D0ED070AB0EE600A00F0E5F948F664
:104A7000FC50C0F6000001F0C9F848F6FC50C0F642
:104A80000000FCF71FF841F64800C2F20000416840
:104A9000406B814220D941F64800C2F200004168D3
:104AA000406B0A30814217D800F06FFA41F6480097
:104AB000C2F20000D0ED080AB0EE600A00F002FA7F
:104AC00048F62860C0F6000001F0A0F848F628601B
:104AD000C0F60000FBF7F6FF41F64800C2F2000006
:104AE000416B806B084441F64801C2F200014968FD
:104AF000884209D200F06DFA002041F64801C2F266
:104B000000014860072048709EE041F64800C2F26C
:104B1000000040680A280DD8FFF7CDF948F6546028
:104B2000C0F6000001F072F848F65460C0F60000CC
:104B3000FBF7C8FF41F64800C2F200004168806CF4
:104B4000814209D9FFF7ADF9002041F64801C2F2D0
:104B5000000148600820487076E041F64800C2F243
:104B6000000080680A3041F64801C2F20001886006
:104B700048F67060C0F6000001F048F8002041F6E9
:104B80004801C2F200014860012048704FF41670DD
:104B9000FDF782F958E048F68860C0F6000001F0A1
:104BA00035F8012000F0D4F9002041F64801C2F2A6
:104BB000000148600A20487046E041F64800C2F211
:104BC00000004168806A814205D90B2041F6480106
:104BD000C2F20001487037E048F6B060C0F600004D
:104BE00001F014F8022000F0B3F9002041F648016A
:104BF000C2F2000148600C20487025E041F64800F0
:104C0000C2F200004168806A814205D90D2041F658
:104C10004801C2F20001487016E048F6D860C0F6BC
:104C2000000000F0F3FF032000F092F90E2041F69F
:104C30004801C2F20001487006E0002041F6480138
:104C4000C2F20001087000BF00BF00BF8DE57047D1
:104C5000704770B505460C460026012C01D15A2636
:104C600000E000263146284600F001F870BD70B51E
:104C700006460B46B3F5877F01DD4FF4877340F29C
:104C80003C00C2F20000408840F23C01C2F2000148
:104C90000988441A03FB04F04FF48771B0FBF1F06C
:104CA00040F23C01C2F200010988084485B229465D
:104CB000304600F001F870BD40F23C02C2F2000242
:104CC00012888A4204DD40F23C02C2F200021188DE
:104CD00040F23C02C2F2000252888A4204DA40F2F8
:104CE0003C02C2F20002518830B1012809D00228EA
:104CF0000CD0032814D10EE00022C4F2010251634B
:104D00000FE00022C4F2010291630AE00022C4F223
:104D10000102D16305E00022C4F20102116400E047
:104D200000BF00BF704770B504460D46012D01D18C
:104D3000012000E000200646012C02D0022C10D1F8
:104D400007E0324620210020C4F20200FDF7D6F928
:104D500008E0324640210020C4F20200FDF7CEF9FF
:104D600000E000BF00BF70BDF0B52DED028B81B03B
:104D70000746B0EE408A41F2BC70C2F2000090F8E3
:104D80007A0020B1002001B0BDEC028BF0BD3846A6
:104D9000FCF76AF804460CB90020F4E7B5EEC08AC7
:104DA000F1EE10FA02D2002008EE100A84ED078A14
:104DB000BCEEC80A10EE100A85B2BCEEC80A10EEAE
:104DC000100A86B2E5806682012121712174A078E3
:104DD00001221146FBF77CFF3220FDF75DF8A07B36
:104DE00001221146FBF774FF3220FDF755F8012030
:104DF00041F2BC72C2F20002009092F87830E17881
:104E0000A0782A46FCF707F83220FDF745F8012084
:104E100041F2BC72C2F20002009092F87830E17B5D
:104E2000A07B3246FBF7F7FF3220FDF735F8002074
:104E3000FBF7D8FF0120A6E710B52DED028B82B05D
:104E4000B0EE408A41F2BC70C2F2000090F87A00E5
:104E500020B1002002B0BDEC028B10BDB5EEC08ABF
:104E6000F1EE10FA02D2002008EE100ABCEEC80AD9
:104E700010EE100A84B241F2BC70C2F20000A0F839
:104E80006440012180F86210014691F86000002220
:104E90000121FBF71DFF3220FCF7FEFF002041F24D
:104EA000BC72C2F20002009092F8783092F8611061
:104EB00092F860002246FBF7AEFF3220FCF7ECFFD1
:104EC0000120C7E710B52DED028B82B0B0EE408A0D
:104ED00041F2BC70C2F2000090F87A0020B10020CC
:104EE00002B0BDEC028B10BDB5EEC08AF1EE10FA37
:104EF00002D2002008EE100ABCEEC80A10EE100A1A
:104F000084B241F2BC70C2F20000A0F870400121EE
:104F100080F86E10014691F86C0000220121FBF729
:104F2000D7FE3220FCF7B8FF002041F2BC72C2F27B
:104F30000002009092F8783092F86D1092F86C00B0
:104F40002246FBF768FF3220FCF7A6FF0120C7E7E7
:104F500070B505462846FBF787FF04460CB90020CC
:104F600070BD0021217121740020E061A078FBF761
:104F70001DFF3220FCF790FFA07B0021FBF716FFFE
:104F80003220FCF789FF0120EAE710B5002141F249
:104F9000BC70C2F2000080F86210A0F864100146F4
:104FA00091F860000021FBF701FF3220FCF774FF4D
:104FB000012010BD10B50120FFF7CAFF0220FFF746
:104FC000C7FF0320FFF7C4FFFFF7DFFF00F001F882
:104FD00010BD10B5002141F2BC70C2F2000080F893
:104FE0006E10A0F87010014691F86C000021FBF7DC
:104FF000DDFE3220FCF750FF012010BD10B5FDF79B
:105000008AF810BD00B593B0302107A8FBF712F95C
:10501000142102A8FBF70EF900BF002001904FF405
:105020006150C4F20200006840F080504FF46151BA
:10503000C4F2020108600846006800F08050019048
:1050400000BF00BF00BF002001904FF4E040C4F259
:105050000000006840F480404FF4E041C4F20001D9
:1050600008600846006800F48040019000BF00BF5F
:105070000220079001200A9010200B9002200D9032
:1050800000210E9108210F91A82110910221119168
:105090000421129107A8FDF726FA08B1FBF7E2FEFA
:1050A0000F20029002200390002004904FF4A050A3
:1050B00005904FF480500690052102A8FDF7EEF808
:1050C00008B1FBF7CFFE13B000BD4EF68850CEF20C
:1050D0000000006840F470004EF68851CEF20001E6
:1050E00008604FF000604EF60851CEF200010860F3
:1050F0007047F0B402684FF0000CC4F2010C4FF49A
:1051000080644FF400654FF440664FF48063C4F24E
:105110000004C4F20005C4F20006C4F201036045B5
:105120000AD0B0F1804F07D0A04205D0A84203D0EA
:10513000B04201D0984203D122F070024F683A4346
:10514000604528D0B0F1804F25D0A04223D0A8429E
:1051500021D0B0421FD098421DD0A0F18044B4F5B8
:10516000A03418D0A0F18044B4F5A23413D0A0F13B
:105170008044B4F5A4340ED0A0F18044B4F5C054FA
:1051800009D0A0F18044B4F5E05404D0A0F18044EB
:10519000B4F5005403D122F44072CC6822434C6928
:1051A00022F0800222438C68C4620C6884626045ED
:1051B00001D0984201D109690163016841F00401FD
:1051C0000160012141610260F0BC7047D0F808C065
:1051D0002CF47F4C42EA0322114341EA0C01816026
:1051E0007047826822F07002114341F0070181602C
:1051F000704770B4026A036A23F0010303624368D4
:10520000D0F818C02CF0700C2CF0030C0C6844EA99
:105210000C0C22F002028C6822430024C4F2010428
:105220004FF48065C4F20105A04201D0A84205D127
:1052300022F00802CE68324322F00402A04201D0DC
:10524000A84207D123F4807323F400734C692343ED
:105250008C6923434360C0F818C049684163026207
:1052600070BC704770B4026A036A23F010030362D3
:105270004368D0F818C02CF4E04C2CF4407C0C6847
:105280004CEA042C22F020028C6842EA041200242A
:10529000C4F201044FF48065C4F20105A04201D0BC
:1052A000A84206D122F08002CE6842EA061222F01D
:1052B0004002A04201D0A84209D123F4806323F424
:1052C00000634C6943EA84038C6943EA84034360C6
:1052D000C0F818C049688163026270BC704770B43E
:1052E000026A036A23F4807303624368D0F81CC027
:1052F0002CF0700C2CF0030C0C6844EA0C0C22F41B
:1053000000728C6842EA04220024C4F201044FF4C3
:105310008065C4F20105A04201D0A84206D122F462
:105320000062CE6842EA062222F48062A04201D0E6
:10533000A84209D123F4805323F400534C6943EA73
:1053400004138C6943EA04134360C0F81CC0496825
:10535000C163026270BC704710B4036A026A22F42F
:10536000805202624268D0F81CC02CF4E04C2CF44D
:10537000407C0C684CEA042C23F400538C6843EA0C
:105380000433A0F18044B4F5803404D0A0F180440B
:10539000B4F5823404D122F480424C6942EA84128A
:1053A0004260C0F81CC049680164036210BC7047C9
:1053B000036AD0F820C02CF0010CC0F820C0D0F84F
:1053C00018C02CF0F00C4CEA021223F00A03194327
:1053D000826101627047036AD0F820C02CF0100C83
:1053E000C0F820C0D0F818C02CF4704C4CEA02323F
:1053F00023F0A00343EA011182610162704710B5F6
:1054000040F2F470C2F20000FDF71EFD10BD10B5B1
:10541000806B0021C185FDF716FD10BD70B5846B52
:1054200020684069C0F3C01094F84110002521297C
:1054300004D118B1E584204600F0A0F82068406946
:10544000C0F3801094F84210222904D118B1E585E8
:10545000204600F05FF8606C40F010006064204669
:10546000FDF7F1FC70BD10B50146886B096809684D
:105470004FF0000311F4807F32D1C38501680C31F5
:1054800051E8002F22F4807241E8002CBCF1000F9B
:10549000F4D10168143151E8002F22F0010241E8F3
:1054A000002CBCF1000FF4D10168143151E8002F39
:1054B00022F0400241E8002CBCF1000FF4D1202181
:1054C00080F84210016B01290AD101680C3151E8C2
:1054D000002F22F0100241E8002CBCF1000FF4D1A3
:1054E0004363016B012902D0FDF7D3FF10BD818D0D
:1054F000FDF770FC10BD10B5806B01214163016B9D
:10550000012902D0FEF74DF810BD818D4908FDF745
:1055100061FC10BD01680C3151E8002F22F490723B
:1055200041E80023002BF5D10168143151E8002F28
:1055300022F0010241E80023002BF5D1016B012983
:1055400009D101680C3151E8002F22F0100241E826
:105550000023002BF5D1202180F8421000210163A7
:10556000704710B50168CA6822F04002CA60202165
:1055700080F84110FEF772F8002010BD01680C3170
:1055800051E8002F22F0C00241E80023002BF5D1A2
:10559000202180F84110704708B590F84210222968
:1055A00001D0022008BD8268B2F5805F01D1016997
:1055B00029B1816AB2F5805F1DD052B10BE0816ADA
:1055C00002685268C2F308020A80816A891C8162FB
:1055D00009E002697AB10268526802F07F020A703B
:1055E000816A491C8162C18D491E0904090CC1856B
:1055F00005D0002008BD026852680A70F0E7016813
:10560000CA6822F02002CA600168CA6822F4807267
:10561000CA6001684A6922F001024A61202180F8CB
:10562000421000214163026B012A03D0FDF731FFD4
:10563000002008BD016301680C3151E8002F22F001
:10564000100241E80023002BF5D101680A6812F02E
:10565000100F02D00A6849680091818DFDF7BAFBEE
:10566000E6E72DE9F041044620680169E26821F48B
:105670004051114301612169A068E26908436169F1
:10568000114301432068C26822F4037222F41442D9
:105690001143C16020684169A26921F4407111433E
:1056A00041612068A0F18041B1F5883131D0A0F18D
:1056B0008041B1F58A312CD0FCF7B8FE8446E1690F
:1056C0000020192748F21F553226C5F2EB15B1F517
:1056D000004F22D06068830F8200ACFB0701FAF70D
:1056E00071FD0146A5FB002040097A42424301EBCF
:1056F000820106EB0111A5FB0121490901F0F0022D
:1057000002EB001001F00F01084421688860BDE839
:10571000F081FCF79CFE8446D1E761684A1840EBB3
:105720000003ACFB0701FAF74DFD0346A5FB001093
:10573000410918460A016FF01803594300EB810034
:1057400006EBC000A5FB0010400900F0F80102EBD9
:10575000410100F00700084421688860BDE8F0813D
:1057600017B581B004461346029AA262A3850020B1
:105770006064222184F8421045F26741C0F60001BE
:10578000D4F83CC0CCF83C1045F2F741C0F600011B
:10579000D4F83CC0CCF8401045F21D41C0F60001E1
:1057A000D4F83CC0CCF84C10E16B08652068011DB2
:1057B000E06BFCF739FB38B110206064202084F8DE
:1057C000420004B0012010BD2068016840680090CC
:1057D000206948B120680C3050E8001F41F4807106
:1057E00040E80012002AF5D12068143050E8001F6C
:1057F00041F0010140E80012002AF5D12068143080
:1058000050E8001F41F0400140E80012002AF5D1A5
:1058100004B0002010BD81628285C28500214164F0
:10582000222180F842100169002904D00168CA6869
:1058300042F48072CA6001684A6942F001024A611A
:105840000068C16841F02001C1600020704790F8F5
:105850004110212901D0022070478168B1F5805F95
:1058600001D1016961B1016A4A1C026202680978CA
:105870005160C18C491E0904090CC1840AD013E08F
:10588000016A02680988C1F308015160016A891C34
:105890000162EEE70168CA6822F08002CA6000680F
:1058A000C16841F04001C160002070472DE9F84314
:1058B0000446089E0D46174698462068006835EA5B
:1058C000000028D00020B84232D1B6F1FF3F27D0E7
:1058D000FCF71BFCA0EB0800B0421ED8EEB120681C
:1058E000C16811F0040F1BD0802D19D0402D17D0A6
:1058F000016811F0080F13D000252168096840687D
:1059000000902046FFF706FE0820606484F84050AF
:105910000120BDE8F8830120D5E70320BDE8F88326
:105920002068006835EA000005D00020B842CCD0DD
:105930000020BDE8F8830120F8E710B540F63C00F0
:10594000C2F20000FDF780FA10BD10B540F68400E9
:10595000C2F20000FDF778FA10BD08B540F6CC00A1
:10596000C2F200000068006800F0100010285ED14C
:1059700040F6CC00C2F200000068C06800F01000E1
:10598000E0B300BF0020009040F6CC00C2F200005F
:1059900000680068009040F6CC00C2F20000006889
:1059A0004068009000BF00BF40F6CC00C2F200008B
:1059B000FDF711FA40F6CC00C2F20000C06B00689F
:1059C0004068C0F1FF0040F26401C2F2000140F201
:1059D0002002C2F20002127801EB022181F8FF00DE
:1059E00040F22000C2F200000078401C052190FB2C
:1059F000F1F201FB120040F2200100E017E0C2F2D8
:105A00000001087040F26400C2F200000A461278F9
:105A100000EB0221FF2240F6CC00C2F20000FDF7AD
:105A20001CFD012040F22201C2F20001087008BDF5
:105A300010B5FFF792FF40F6CC00C2F20000FDF770
:105A400003FA10BD00B591B0002006909DF8180033
:105A5000401103909DF818004FF6FF7101EAC02035
:105A6000001D0490002005909DF814004011019045
:105A70009DF8140001EAC020001D029000200C9047
:105A80000D9001200E90BDF80C000790BDF810009D
:105A90000890BDF804000990BDF808000A900020A5
:105AA0000B9001200F900020109007A940F2246075
:105AB000C2F20000FBF7FDFB08B1FBF7D3F911B010
:105AC00000BD00BFFEE77CB57C2141F2BC70C2F294
:105AD0000000FAF7AFFB142041F2BC71C2F20001E2
