:020000040800F2
:10000000880B00209D0100089B1B0008AF19000809
:10001000971B0008A9020008FB2000080000000050
:100020000000000000000000000000009F1B00080E
:10003000DB030008000000009D1B0008A11B000856
:10004000B7010008B7010008B7010008B7010008B0
:10005000B7010008B7010008B7010008B7010008A0
:10006000B7010008B7010008B7010008B701000890
:10007000B7010008B7010008B7010008B701000880
:10008000AD020008BD020008B7010008B701000872
:10009000B7010008B7010008B7010008B701000860
:1000A000B7010008B7010008B7010008B701000850
:1000B000B7010008B7010008B7010008B701000840
:1000C000B7010008B7010008B7010008B701000830
:1000D000B70100085B2000086B200008B70100088A
:1000E000B7010008B7010008B7010008B701000810
:1000F000B7010008B7010008B7010008B701000800
:10010000B7010008B7010008B7010008B7010008EF
:10011000B7010008B7010008B7010008B7010008DF
:10012000B7010008B7010008CD020008B7010008B8
:10013000B7010008B7010008B7010008B7010008BF
:10014000B7010008B7010008B7010008B7010008AF
:10015000B7010008B7010008DD020008B701000878
:10016000B7010008B7010008B7010008B70100088F
:10017000B7010008B7010008B7010008000000003F
:10018000B7010008B7010008DFF80CD000F07AF8DA
:10019000004800471D210008880B002006488047C2
:1001A00006480047FEE7FEE7FEE7FEE7FEE7FEE75C
:1001B000FEE7FEE7FEE7FEE76B1C0008890100088A
:1001C0002DE9F05F0546002092469B46884606468C
:1001D000814640241BE0284641464746224600F01F
:1001E00041F853465A46C01A914110D31146184659
:1001F000224600F028F82D1A67EB01084F462246E8
:100200000120002100F01FF817EB00094E41201ECD
:10021000A4F10104DFDC484631462A464346BDE8E6
:10022000F09FD2B201E000F8012B491EFBD27047CB
:100230000022F6E710B513460A4604461946FFF7B2
:10024000F0FF204610BD202A04DB203A00FA02F11C
:10025000002070479140C2F1200320FA03F31943B4
:1002600090407047202A04DB203A21FA02F0002156
:10027000704721FA02F3D040C2F1200291400843B6
:1002800019467047064C074D06E0E06840F0010350
:1002900094E8070098471034AC42F6D3FFF778FF94
:1002A0002C2300084C23000800BFFEE710B540F2E5
:1002B000C420C2F2000000F049F910BD10B540F2B0
:1002C0002430C2F2000000F041F910BD10B540F238
:1002D0000420C2F2000000F039F910BD10B540F260
:1002E0006420C2F2000000F031F910BD01684AF646
:1002F000AB23CAB2103ACAF6AA23A3FB02321209F0
:1003000042F22233C0F600039B5CC365032A04D982
:100310006FF30901091D816502E06FF30901816531
:10032000806D7047014600208A6A8B69002B0FD0D0
:10033000B3F5005F1DD08AB3012A30D0022A2ED037
:10034000032A04D1C96A11F0807F00D001207047D0
:100350001AB1012A07D0022AF9D1C96A11F0807FA7
:10036000F5D001207047C96AB1F1C07FFAD10120F0
:1003700070475AB1012A0BD0022A07D0032AF7D1BD
:10038000C96AB1F1C07FF3D10120704701207047E5
:10039000C96A11F0807FFAD001207047FFE7012081
:1003A000704710B4D0F800C0DCF8004024F480247A
:1003B000CCF80040D0F800C0CCF804308368402B63
:1003C00005D0036899600068C26010BC704703687C
:1003D0009A600068C16010BC704770472DE9FF4704
:1003E00006460F4615469846DDE90D9A0C9C0020FE
:1003F00000900190029003908DF80060FD208DF830
:1004000001008DF8027028128DF80300E8B28DF813
:1004100004008DF80580200E8DF80600200C8DF864
:100420000700200A8DF80800E0B28DF809008DF869
:100430000A908DF80BA06B208DF80C000D226946F8
:1004400040F2C410C2F2000001F061FABDE8FF877B
:1004500010B5044640F21400C2F200000470FF2000
:1004600040F21401C2F200014870662088706B20CF
:10047000C870042240F2C410C2F2000001F047FA32
:1004800010BD00BFFEE72DE9F0410446A66D00F067
:1004900047FB054694F835000027022806D0802047
:1004A000606584F834700120BDE8F081206801683F
:1004B00021F0160101602068416921F0800141614D
:1004C000206C08B9A06C20B12068016821F00801F7
:1004D00001602068016821F0010101602068006866
:1004E00010F0010F12D000F01BFB401B052808D9AB
:1004F0002020606584F83470032084F83500BDE85E
:10050000F0812068006810F0010FECD194F85C00D5
:100510003F2101FA00F0B06084F83470012084F8C3
:1005200035000020BDE8F08190F83510022903D095
:100530008021416501207047052180F83510006851
:10054000016821F001010160002070472DE9F843A6
:1005500004464FF00008CDF8008040F20400C2F2DB
:10056000000000684FF41651B0FBF1F7A56D2E683E
:1005700094F85C00082101FA00F0304211D02068A4
:10058000026812F0040F0CD0026822F0040202602C
:1005900094F85C0001FA00F0A860606D40F0010082
:1005A000606594F85C004FF0010909FA00F03042F0
:1005B00009D02168496911F0800F04D0A860606DEE
:1005C00040F00200606594F85C10042088403042DE
:1005D00009D02168096811F0020F04D0A860606D8D
:1005E00040F00400606594F85C10102088403042B0
:1005F00024D02168096811F0080F1FD0A860206876
:10060000016811F4802F0DD0006810F4002F04D081
:10061000A16C99B12046884710E0216C71B1204649
:1006200088470BE0016811F4807F03D1016821F055
:1006300008010160216C09B12046884794F85C10DC
:1006400020208840304251D02168096811F0100FF5
:100650004CD0A86094F8350005280DD020680168BA
:1006600011F4802F32D0006810F4002F29D0E16BF4
:1006700059B32046884739E02068016821F0160107
:1006800001602068416921F080014161206C08B956
:10069000A06C20B12068016821F00801016094F885
:1006A0005C003F2101FA00F0A86084F8348084F8EF
:1006B0003590216D00293ED001B02046BDE8F043C1
:1006C0000847616C09B1204688470FE0016811F4C2
:1006D000807F07D1016821F01001016084F8348027
:1006E00084F83590E16B09B120468847606D002899
:1006F00021D0606D10F0010F15D0052084F8350071
:100700002068016821F0010101600098401C009000
:10071000B84204D82068006810F0010FF5D184F8C1
:10072000348084F83590E16C002904D001B0204673
:10073000BDE8F0430847BDE8F8832DE9F0410446E1
:1007400000F0EEF90546DCB1002684F834600220A2
:1007500084F835002068016821F0010101602068FB
:10076000006810F0010F13D000F0DAF9401B0528E3
:1007700009D920206065032084F83500BDE8F081A8
:100780000120BDE8F0812068006810F0010FEBD176
:100790002168086848F23F02CFF210021040A368B7
:1007A0006268D4F810C01A43E36843EA0C031A43A2
:1007B00063691A43A3691A43E3691A43236A1A4314
:1007C0001043626A042A03D1236BE26A1A4310437E
:1007D00008602068406920F00701606A40EA01056E
:1007E000012704280ED1A06A0543E06A50B12046D3
:1007F000FFF798FD30B14020606584F83570012026
:10080000BDE8F081206845612046FFF76FFD94F850
:100810005C103F2202FA01F18160666584F8357050
:100820000020BDE8F08170B504460025A66D94F85F
:10083000340001280DD0012084F8340094F835C02C
:100840000020BCF1010F06D084F8340002252846B0
:1008500070BD022070BD4FF0020C84F835C0606599
:100860002046FFF79EFD94F85C003F2101FA00F05E
:10087000B0602068016841F016010160206C20B171
:100880002068016841F0080101602068016841F0BA
:1008900001010160DBE770B5044600F041F905464F
:1008A000B4F1FF3F05D040F20800C2F2000000782A
:1008B000044400F035F9401BA042FAD370BD2DE985
:1008C000F84F0022032443F6440643F608470F2559
:1008D000C4F20206C4F20107012303FA02F80B680E
:1008E00003EA080343457DD1D1F804C0BCF1010FF0
:1008F00008D0BCF1020F05D0BCF1110F02D0BCF141
:10090000120F1DD1D0F808904FEA420C04FA0CFAED
:1009100029EA0A09D1F80CA00AFA0CFC4CEA090CE5
:10092000C0F808C0D0F804C02CEA080C91F8048084
:10093000C8F3001808FA02F848EA0C0CC0F804C022
:10094000D0F80C904FEA420C04FA0CF829EA080996
:10095000D1F808A00AFA0CFA4AEA0909C0F80C9082
:10096000D1F80490B9F1020F02D0B9F1120F15D1EC
:100970004FEAD20900EB8909D9F820B04FEA427A50
:100980004FEADA6A05FA0AFE2BEA0E0BD1F810E0FC
:100990000EFA0AFA4AEA0B0AC9F820A0D0F8009029
:1009A00029EA080891F8049009F0030909FA0CFCF7
:1009B0004CEA080CC0F800C0D1F804C01CF0805FFD
:1009C00010D0D6F800C04CF4804CC6F800C0D6F861
:1009D00000C00CF4804CCDF800C022F0030C0CF1E8
:1009E000804900E07BE009F59839D9F808C84FEA5A
:1009F00082784FEA187805FA08FA2CEA0A0AA0F178
:100A0000804CBCF5003C73D0A0F1804CBCF5013C9F
:100A100071D0A0F1804CBCF5023C6FD0A0F1804CAD
:100A2000BCF5033C6DD0A0F1804CBCF5043C6BD010
:100A3000A0F1804CBCF5053C69D0A0F1804CBCF520
:100A4000063C67D0A0F1804CBCF5073C65D04FF068
:100A5000080C0CFA08FC4CEA0A0CC9F808C84FF458
:100A60007058C4F20108D8F800C02CEA030CD1F881
:100A7000049019F4803F01D04CEA030CC8F800C080
:100A800043F60448C4F20108D8F800C02CEA030C6D
:100A9000D1F8049019F4003F01D04CEA030CC8F8D7
:100AA00000C0D7F800C02CEA030CD1F8048018F479
:100AB000801F01D04CEA030CC7F800C043F60C4875
:100AC000C4F20108D8F800C02CEA030CD1F8049055
:100AD00019F4001F01D04CEA030CC8F800C0521CE6
:100AE000102AFFF4F9AEBDE8F88F01E003E005E05D
:100AF0004FF0000CADE74FF0010CAAE74FF0020CED
:100B0000A7E74FF0030CA4E74FF0040CA1E74FF068
:100B1000050C9EE74FF0060C9BE74FF0070C98E79B
:100B200040F20800C2F200008068704740F20800FE
:100B3000C2F200008168027811448160704710B5EC
:100B40004FF47050C4F20200016841F4007101607A
:100B5000016841F480610160016841F480710160C5
:100B6000032000F094F8002000F004F800F025F8CD
:100B7000002010BD70B5044640F20805C2F2000521
:100B800028784FF47A71B1FBF0F040F20401C2F220
:100B900000010968B1FBF0F000F0FCFB08B1012096
:100BA00070BD102C07D200222146501E00F03BF8E9
:100BB0006C60002070BD012070BD08B500BF002032
:100BC000009043F64400C4F20200006840F4804004
:100BD00043F64401C4F2020108600846006800F4CC
:100BE0008040009000BF00BF00BF00200090081FA1
:100BF000006840F08050091F08600846006800F057
:100C00008050009000BF00BF08BD00280ADB00F044
:100C10001F01012202FA01F14009800000F1E020E9
:100C2000C0F80011704710B44EF60C53CEF200031A
:100C30001B68C3F30223C3F1070CBCF1040F01D9F5
:100C40004FF0040C1C1D072C01D2002300E0DB1E1A
:100C5000012404FA0CFCACF1010C0CEA01019940EE
:100C600004FA03F35B1E1A401143002806DB00F16F
:100C7000E020090180F8001410BC704700F00F005C
:100C800000F1E020090180F8141D10BC704700F04D
:100C900007004EF60C52CEF2000211684FF6FF0329
:100CA000194041EA002040F0FD7040F08060106083
:100CB00070472DE9F04704460D46002C15D04FF43F
:100CC0007059C4F20209D9F80000EFB200F00F0029
:100CD000A8420DD289F80070D9F8000000F00F008A
:100CE000A84205D00120BDE8F0870120BDE8F087CB
:100CF000206843F6080610F0020FC4F2020614D072
:100D000010F0040F03D0306840F4E05030602078D9
:100D100010F0080F03D0306840F460403060306855
:100D2000A16820F0F00008433060207810F0010F37
:100D300041D060684FF46051C4F20201012808D02C
:100D400002280DD003280BD0096811F0020F28D01B
:100D50000AE0096811F4003F06D10120BDE8F087E0
:100D6000096811F0007F19D0316821F003010843B0
:100D70003060FFF7D5FE80463068616800F00C00F7
:100D8000B0EB810F17D041F2883AFFF7C9FEA0EB14
:100D90000800504508D90320BDE8F0870120BDE8D0
:100DA000F0870120BDE8F0873068616800F00C0032
:100DB000B0EB810FE9D1D9F8000000F00F00A84294
:100DC0000AD989F80070D9F8000000F00F00A84295
:100DD00002D00120BDE8F087207810F0040F05D084
:100DE0003068E16820F4E05008433060207810F06B
:100DF000080F06D03068216920F4604040EAC10045
:100E0000306000F040F83168C1F3031142F20A3259
:100E1000C0F60002515CC84040F20401C2F2000179
:100E2000086040F20C00C2F200000068FFF7A2FE6A
:100E30000020BDE8F08740F20400C2F20000006824
:100E4000704700B5FFF7F7FF43F60801C4F202014F
:100E50000968C1F3822142F21A32C0F60002515CE5
:100E6000C84000BD00B5FFF7E6FF43F60801C4F235
:100E700002010968C1F3423142F21A32C0F600029F
:100E8000515CC84000BD10B543F60800C4F2020032
:100E9000006810F00C014FF41050C0F2F40019D0AB
:100EA0004310042915D0082914D143F60404C4F2D0
:100EB0000204216801F03F02216811F4800F0AD07A
:100EC0002068C0F38810A0FB03010023FFF778F926
:100ED00009E0184610BD21680023C1F38811A1FB69
:100EE0000001FFF76DF92168C1F30141491C490078
:100EF000B0FBF1F010BD2DE9F84F0446002C16D0E0
:100F0000207843F608074FF4605510F0010FC4F243
:100F10000207C4F2020566D0386800F00C0004280D
:100F200010D0386800F00C00082803D014E001202D
:100F3000BDE8F88F43F60400C4F20200006810F424
:100F4000800F09D0286810F4003F4CD0606800285A
:100F500049D10120BDE8F88F6068B0F5803F14D01A
:100F6000B0F5A02F16D0286820F4803028602868BB
:100F700020F480202860606810B3FFF7D1FD06469A
:100F8000286810F4003F0ED02DE0286840F480302F
:100F90002860F0E7286840F480202860286840F442
:100FA00080302860E7E7FFF7BBFD801B642802D98B
:100FB0000320BDE8F88F286810F4003FF3D012E05A
:100FC000FFF7AEFD0646286810F4003F0BD0FFF790
:100FD000A7FD801B642802D90320BDE8F88F28688C
:100FE00010F4003FF3D120784FF0000610F0020F0C
:100FF0004FF00009C4F247265AD0386810F00C0FA1
:1010000018D0386800F00C00082807D143F6040017
:10101000C4F20200006810F4800F0BD0E06880B3C7
:1010200001203060FFF77CFD8046286810F0020F39
:1010300012D01EE0286810F0020F05D0E0680128E9
:1010400002D00120BDE8F88F2868216920F0F8005F
:1010500040EAC10028602BE0FFF762FDA0EB08002A
:10106000022802D90320BDE8F88F286810F0020F8B
:10107000F2D02868216920F0F80040EAC100286019
:1010800016E0FFE7C6F80090FFF74AFD80462868A3
:1010900010F0020F0CD0FFF743FDA0EB0800022870
:1010A00002D90320BDE8F88F286810F0020FF2D1B2
:1010B000207810F0080F3AD04FF4686043F6740AB5
:1010C0006169C4F24720C4F2020AC1B10121016082
:1010D000FFF726FD8046DAF8000010F0020F26D157
:1010E000FFF71EFDA0EB0800022802D90320BDE88F
:1010F000F88FDAF8000010F0020FF1D017E0C0F816
:101100000090FFF70DFD8046DAF8000010F0020FA6
:101110000DD0FFF705FDA0EB0800022802D903203F
:10112000BDE8F88FDAF8000010F0020FF1D1207856
:1011300010F0040F70D04FF000084FF46150C4F26B
:101140000200006810F0805F0DD14FF46150C4F2CE
:101150000200016841F080510160006800F0805099
:1011600000904FF001084FF4E04BC4F2000BDBF8A5
:10117000000010F4807F1BD1DBF8000040F4807089
:10118000CBF80000FFF7CCFC8246DBF8000010F43F
:10119000807F0DD1FFF7C4FCA0EB0A00022802D922
:1011A0000320BDE8F88FDBF8000010F4807FF1D059
:1011B000A06843F6700BC4F2020B012818D0052872
:1011C0001DD0DBF8000020F00100CBF80000DBF8B8
:1011D000000020F00400CBF80000A06870B3FFF717
:1011E0009FFC8246DBF8000010F0020F15D03EE0B5
:1011F000DBF8000040F00100CBF80000EDE7DBF881
:10120000000040F00400CBF80000DBF8000040F0E4
:101210000100CBF80000E0E734E0FFF781FCA0EB31
:101220000A0141F28830814202D90320BDE8F88FDB
:10123000DBF8000010F0020FEFD018E0FFE7FFF737
:101240006FFC8246DBF8000010F0020F0FD0FFF7B2
:1012500067FCA0EB0A0141F28830814202D90320E9
:10126000BDE8F88FDBF8000010F0020FEFD1B8F105
:10127000010F07D14FF46150C4F20200016821F060
:1012800080510160A069F0B3396801F00C010829B0
:101290005AD0022810D0C6F86090FFF741FC0446EF
:1012A000286810F0007F72D0FFF73AFC001B02287C
:1012B00045D90320BDE8F88FC6F86090FFF730FCF1
:1012C0000746286810F0007F0BD0FFF729FCC01BF1
:1012D000022802D90320BDE8F88F286810F0007FAB
:1012E000F3D1216AE069A26A0843616A4FF0FF33D3
:1012F000890103EB520241EA0241084394F82C10A1
:1013000040EA016100E042E043F60400C4F202005A
:10131000016001203066FFF703FC0446286810F0E6
:10132000007F34D1FFF7FCFB001B022802D9032009
:10133000BDE8F88F286810F0007FF3D027E0286818
:1013400010F0007FB0D122E001281DD03868E2699A
:1013500000F48001914214D1226A00F03F019142D1
:101360000FD147F6C071626A0140914209D1A26A69
:1013700000F44031914204D1E16A00F0706088428B
:1013800005D00120BDE8F88F0120BDE8F88F0020CE
:10139000BDE8F88F401EB0F1807F01D30120704777
:1013A0004FF0E02148614EF62352CEF20002F020C9
:1013B000107000208861072008610020704710B578
:1013C000044620684169C1F3C01194F83920212AEC
:1013D0000BD151B1416921F080014161206B08B10D
:1013E000FFF751F8204600F0DDFC20684169C1F3A9
:1013F000801194F83A20222A0BD151B1416921F091
:1014000040014161606B08B1FFF73DF8204600F0F4
:10141000AEFC002010BD704710B50446226810686D
:10142000D168526900F00F03002B0AD110F0200F91
:1014300007D011F0200F04D02046BDE8104000F086
:10144000BABC002B74D002F0010301F4907C53EA83
:101450000C0C6DD010F0010F08D011F4807F05D076
:10146000D4F83CC04CF0010CC4F83CC010F0040FA0
:1014700008D012F0010F05D0D4F83CC04CF0020C9B
:10148000C4F83CC010F0020F06D012F0010F03D0D8
:10149000E26B42F00402E26310F0080F07D001F0A3
:1014A00020021A4303D0E26B42F00802E263E26BCF
:1014B000002A31D010F0200F05D011F0200F02D0FB
:1014C000204600F078FC20684069C0F38010E16B92
:1014D00011F0080F00D120B3204600F048FC20682E
:1014E000416911F0400F18D0416921F0400141617C
:1014F000606B70B141F69341C0F600010165606B0D
:10150000FFF712F8002807D0606B016DBDE81040AE
:1015100008472046FFF77FFF10BD2046FFF77BFFFF
:1015200010BD2046FFF777FF0020E06310BDFFE706
:1015300010F0800F07D011F0800F04D02046BDE8D6
:10154000104000F057BD10F0400FEFD011F0400FE9
:10155000ECD02046BDE8104000F017BC70B5044642
:10156000002C04D094F83900002510B106E00120C9
:1015700070BD84F83850204600F022F8242084F80A
:1015800039002068C16821F40051C160204600F094
:1015900060FC2068016921F4904101612068416983
:1015A00021F02A0141612068C16841F40051C16005
:1015B000E563202084F8390084F83A00002070BDEB
:1015C00010B586B00446142101A8FEF731FE4FF491
:1015D0008051C4F20101206888427DD100BF002003
:1015E000009043F64400C4F20200006840F010008E
:1015F00043F64401C4F2020108600846006800F0A6
:101600001000009000BF00BF00BF0020009043F614
:101610003000C4F20200006840F0010043F63001DF
:10162000C4F2020108600846006800F00100009062
:1016300000BF00BF4FF4C060019002200290012063
:101640000390032004900720059001A90020C4F214
:101650000200FFF734F946F24040C4F2020040F2C3
:101660000421C2F2000108604FF0006048600021D0
:1016700040F20420C2F200008160C1604FF480613A
:1016800001610021416181614FF48071C1614902B2
:10169000016200214162FFF750F808B1FEF7F1FE48
:1016A00000BF40F20420C2F200006063846300BF08
:1016B00046F2B840C4F2020040F26421C2F20001D6
:1016C00008604FF000604860402140F26420C2F2A0
:1016D00000008160002100E022E0C1604FF48061E1
:1016E0000161002141618161C1614FF400310162FA
:1016F00000214162FFF721F808B1FEF7C2FE00BFEA
:1017000040F26420C2F200002063846300BF002224
:1017100011462520FFF787FA2520FFF776FA9EE08D
:101720004FF48841C4F2000120688842F7D100BF1D
:10173000002000904FF46150C4F20200006840F4B1
:1017400000304FF46151C4F202010860084600689D
:1017500000F40030009000BF00BF00BF00200090E8
:1017600043F63000C4F20200006840F0080043F67F
:101770003001C4F2020108600846006800F0080069
:10178000009000BF00BF6020019002200290012065
:101790000390032004900720059001A94FF44060B6
:1017A000C4F20200FFF78BF846F28800C4F2020090
:1017B00040F2C421C2F2000108604FF000604860AE
:1017C000002140F2C420C2F200008160C1604FF4E9
:1017D00080610161002141618161C16101624162F9
:1017E000FEF7ABFF08B1FEF74CFE00BF40F2C4208D
:1017F000C2F200006063846300BF46F2A000C4F23E
:10180000020040F22431C2F2000108604FF0006093
:101810004860402140F22430C2F200008160002183
:10182000C1604FF480610161002141618161C1614A
:1018300001624162FEF781FF08B1FEF722FE00BFA0
:1018400040F22430C2F200002063846300BF002213
:1018500011462620FFF7E7F92620FFF7D6F906B054
:1018600010BD37B582B00446134694F83A002028DC
:1018700002D005B0022030BD039A002A3FD0002BD1
:101880003DD094F8380001283CD0012084F838007D
:10189000A262A3850025E563222084F83A0041F680
:1018A000ED40C0F60000616BC86341F62B50C0F6F6
:1018B0000000616B086441F6A340C0F60000616B54
:1018C000C864606B05652068011D606BFEF7ABFFA7
:1018D000206801684168019184F83850C16841F47A
:1018E0008071C1602068416941F001014161206857
:1018F000416941F04001416105B0002030BD05B0B3
:10190000012030BD05B0022030BD7047704737B5AB
:10191000044694F83900202802D003B0022030BDDC
:10192000019900293BD0002A39D094F838000128C9
:1019300038D0012084F838002162A284E284002596
:10194000E563212084F8390041F63550C0F60000E7
:10195000236BD86341F66550C0F60000236B186412
:1019600041F6A340C0F60000236BD864206B0565E8
:1019700020681346001DD4F830C002466046FEF7CA
:1019800052FF21686FF04000086084F838502068EA
:10199000416941F08001416103B0002030BD03B0D6
:1019A000012030BD03B0022030BD7047704700BF3A
:1019B000FEE708B500BF0020009043F63000C4F2F7
:1019C0000200006840F4800043F63001C4F20201D6
:1019D00008600846006800F48000009000BF00BF67
:1019E00000BF002000900846006840F40010086026
:1019F0000846006800F40010009000BF00BF46F2E7
:101A00002840C4F2020040F22401C2F20001086042
:101A100000204860802140F22400C2F20000816072
:101A20008900C16049000161002141618161C1619A
:101A3000016204214162032181620021C1620163CC
:101A4000FEF77BFE08B1FEF71CFD002211461020B8
:101A5000FFF7E9F81020FFF7D8F80022114611200F
:101A6000FFF7E1F81120FFF7D0F8002211463A20E5
:101A7000FFF7D9F83A20FFF7C8F8002211464620B0
:101A8000FFF7D1F84620FFF7C0F808BD08B500BF42
:101A90000020009043F63000C4F20200006840F0DD
:101AA000040043F63001C4F20201086008460068F1
:101AB00000F00400009000BF00BF00BF00200090B5
:101AC0000846006840F0800008600846006800F0A2
:101AD0008000009000BF00BF00BF002000900846BB
:101AE000006840F0010008600846006800F001004E
:101AF000009000BF00BF00BF0020009008460068B3
:101B000040F0080008600846006800F008000090F7
:101B100000BF00BF08BD10B54FF48050C4F20100F3
:101B200040F28411C2F2000108604FF4E1304860D5
:101B3000002140F28410C2F200008160C1600161A6
:101B40000C21416100218161C161FFF707FD08B1EE
:101B5000FEF797FC10BD10B54FF48840C4F20000AA
:101B600040F2C411C2F2000108604FF4E130486055
:101B7000002140F2C410C2F200008160C160016126
:101B80000C21416100218161C161FFF7E7FC08B1CF
:101B9000FEF777FC10BD00BFFEE770477047704747
:101BA00010B5FEF7C3FF10BD00B593B0302107A8F4
:101BB000FEF73EFB142102A8FEF73AFB00BF00200F
:101BC00001904FF46150C4F20200006840F0805070
:101BD0004FF46151C4F2020108600846006800F049
:101BE0008050019000BF00BF00BF002001904FF463
:101BF000E040C4F20000006840F480404FF4E0414F
:101C0000C4F2000108600846006800F480400190BA
:101C100000BF00BF012007900004089002200D9033
:101C200041050E9104210F91A821109102211191DB
:101C30000421129107A8FFF75EF908B1FEF721FC15
:101C40000F20029002200390002004904FF4A05037
:101C500005904FF480500690052102A8FFF729F85F
:101C600008B1FEF70EFC13B000BD4EF68850CEF260
:101C70000000006840F470004EF68851CEF200017A
:101C800008604FF000604EF60851CEF20001086087
:101C9000704710B5806B0021C185C184FFF7BBFB85
:101CA00010BD70B5846B20684069C0F3C01094F813
:101CB00039100025212904D118B1E584204600F00F
:101CC00071F820684069C0F3801094F83A10222916
:101CD00004D118B1E585204600F049F8E06B40F0EA
:101CE0001000E0632046FFF796FB70BD10B501467B
:101CF000886B0968096811F4807F13D10021C185C0
:101D00000168CA6822F48072CA6001684A6922F0D8
:101D100001024A6101684A6922F040024A612021B9
:101D200080F83A10FFF7F1FD10BD10B5806BFFF79A
:101D3000EDFD10BD10B50146886B0968096811F406
:101D4000807F02D0FFF731FE10BD0021C184016801
:101D50004A6922F080024A610068C16841F040018E
:101D6000C16010BD10B5806BFFF720FE10BD01688B
:101D7000CA6822F49072CA6001684A6922F00102BE
:101D80004A61202180F83A10704710B50168CA688E
:101D900022F04002CA60202180F83910FFF705FECA
:101DA000002010BD0168CA6822F0C002CA6020216C
:101DB00080F83910704710B590F83A10222901D0F8
:101DC000022010BD8168B1F5805F11D0016919B39F
:101DD0000168496801F07F02816A4B1C83620A70C6
:101DE000C18D491E0904090CC1851CD0002010BDFD
:101DF000816A02693AB102685268D2B20A80816A85
:101E0000491C8162ECE702685268C2F308020A804A
:101E1000816A891C8162E3E701684A68816A4B1C18
:101E200083620A70DCE70168CA6822F02002CA6097
:101E30000168CA6822F48072CA6001684A6922F0A7
:101E400001024A61202180F83A10FFF75EFD002070
:101E500010BD2DE9F041044620680169E26821F4D3
:101E60004051114301612169A068E2690843616939
:101E7000114301432068C26822F4037222F4144221
:101E80001143C16020684169A26921F44071114386
:101E90004161E0694FF4A0514FF48052192748F294
:101EA0001F553226C4F201014FF00008C4F20102AE
:101EB000C5F2EB15B0F5004F27D02068904201D055
:101EC000884274D1FEF7CEFF01466068830F82001E
:101ED000A1FB0701FEF774F90146A5FB00204009AC
:101EE0006FF01802424301EB820106EB0111A5FBE2
:101EF0000121490901F0F00202EB001001F00F018D
:101F0000084421688860BDE8F0812068904201D0D3
:101F1000884225D1FEF7A6FF014660680218A1FBA2
:101F2000070148EB0803FEF74BF90346A5FB001039
:101F3000410918460A016FF01803594300EB81006C
:101F400006EBC000A5FB0010400900F0F80102EB11
:101F5000410100F00700084421688860BDE8F08175
:101F6000FEF76FFF014660680218A1FB070148EB0E
:101F70000803FEF725F90346A5FB001041091846A2
:101F80000A016FF01803594300EB810006EBC00013
:101F9000A5FB0010400900F0F80102EB410100F040
:101FA0000700084421688860BDE8F081FFE7FEF77C
:101FB00048FF01466068830F8200A1FB0701FEF71E
:101FC000FFF80146A5FB002040096FF018024243CC
:101FD00001EB820106EB0111A5FB0121490901F08A
:101FE000F00202EB001001F00F0108442168886044
:101FF000BDE8F08190F83910212901D00220704706
:102000008168B1F5805F0CD0016A4A1C02620268E7
:1020100009785160C18C491E0904090CC18410D093
:1020200019E0016A02680988C1F308015160016979
:1020300019B1016A491C0162ECE7016A891C01625D
:10204000E8E70168CA6822F08002CA600068C168D7
:1020500041F04001C1600020704710B540F284108B
:10206000C2F20000FFF7D8F910BD08B540F2C41065
:10207000C2F2000000680068C0F30010B0B300BFF7
:102080000020009040F2C410C2F200000068006816
:10209000009040F2C410C2F2000000684068009056
:1020A00000BF00BF40F2C410C2F20000FFF787F982
:1020B00040F20420C2F2000000684068C0F1FF0056
:1020C00040F20101C2F200010870012040F200015B
:1020D000C2F200010870FF2240F28401C2F2000146
:1020E00040F2C410C2F20000FFF7BBFB40F2C41084
:1020F000C2F20000FFF790F908BD00BFFEE702E062
:1021000008C8121F08C1002AFAD170477047002082
:1021100001E001C1121F002AFBD170470EB5FEF786
:102120000EFDFFF741FDFFF7B1FCFFF742FCFFF7A3
:10213000F2FCFFF710FD00BF0020029040F2C41037
:10214000C2F2000000680068029040F2C410C2F2BF
:10215000000000684068029000BF00BF40F2C41059
:10216000C2F200000068C06840F0100040F2C411E4
:10217000C2F200010968C860FF2240F28401C2F285
:10218000000140F2C410C2F20000FFF76AFB4FF4F6
:10219000FA60FEF780FB012000214FF448620B46F5
:1021A000CDE9002102904FF47A72FEF717F90A2068
:1021B000FEF771FB012000214FF448620B46CDE988
:1021C000002102904FF47A720220FEF707F90A20EC
:1021D000FEF761FB012000214FF448620B46CDE978
:1021E000002102904FF47A720320FEF7F7F80A20DC
:1021F000FEF751FB012000214FF448620B46CDE968
:10220000002102904FF47A720420FEF7E7F80A20CA
:10221000FEF741FB0020FEF71BF90A20FEF73BFB0F
:1022200000BF40F28400C2F200004078FD28F8D1DF
:1022300040F28400C2F2000080789F28F1D1002093
:1022400040F20001C2F2000108704FF4FA60FEF79C
:1022500022FB012000214FF448620B46CDE900210A
:1022600002904FF47A72FEF7B9F80A20FEF713FBDA
:10227000012000214FF448620B46CDE90021029075
:102280004FF47A720220FEF7A9F80A20FEF703FB4A
:10229000012000214FF448620B46CDE90021029055
:1022A0004FF47A720320FEF799F80A20FEF7F3FA4A
:1022B000012000214FF448620B46CDE90021029035
:1022C0004FF47A720420FEF789F80A20FEF7E3FA49
:1022D0000020FEF7BDF80A20FEF7DDFA00BF40F24D
:1022E0008400C2F200004078FD28F8D140F284005A
:1022F000C2F2000080789F28F1D1002040F2000156
:10230000C2F20001087000BFFEE7000000000000FC
:102310000000010203040607080900000000010292
:102320000304000610160006101600004C230008D7
:102330000000002014000000FE20000860230008B8
:1023400014000020740B00000E21000800000000A3
:102350000024F40001000000100000000000000054
:040000050800018965
:00000001FF
